:10C20000003201201575020091620200F9740200EB
:10C21000F9740200F9740200F9740200F974020062
:10C220000000000000000000000000007577020020
:10C23000F974020000000000BD760200F9740200EB
:10C24000D97C0200D97C0200D97C0200D97C020092
:10C25000D97C0200D97C0200D97C0200D97C020082
:10C26000D97C0200D97C0200D97C0200D97C020072
:10C27000D97C0200D97C0200D97C0200D97C020062
:10C28000D97C0200D97C0200D97C0200D97C020052
:10C29000D97C0200D97C0200D97C0200D97C020042
:10C2A000D97C0200D97C0200D97C0200D97C020032
:10C2B000D97C0200D97C0200D97C0200D97C020022
:10C2C000D97C0200D97C0200D97C0200D97C020012
:10C2D000D97C0200D97C0200D97C0200D97C020002
:10C2E000D97C0200D97C0200D97C0200D97C0200F2
:10C2F000D97C0200D97C0200D97C0200D97C0200E2
:10C30000D97C0200D97C0200D97C0200D97C0200D1
:10C31000D97C0200D97C0200D97C0200D97C0200C1
:10C32000D97C0200D97C0200D97C0200D97C0200B1
:10C33000D97C0200D97C0200D97C0200D97C0200A1
:10C34000D97C0200D97C0200D97C0200D97C020091
:04C35000D97C020092
:10C358002DE9F14F03F11C0402EB840C4FEA930B17
:10C368008A68CB680868496800F046F93CE9F0003B
:10C378006040694072407B400BF1060E4EE083EA54
:10C38800134480EA134582EA134746BA96EA3444CE
:10C39800604000F00F1684EA063420F00F1684EA95
:10C3A800161054BA94EA0106724002F00F1486EA95
:10C3B800043622F00F1486EA14124CBA654069401C
:10C3C80001F00F1485EA043521F00F1485EA1411E1
:10C3D8005CBA67407B4003F00F1487EA043723F008
:10C3E8000F1487EA141344BA44404DBA4D4056BA64
:10C3F80056405FBA5F4087EA174886EA174B84EAD7
:10C4080017464FEA38488BEA1B4485EA1B4788EAF7
:10C418001B4580EA3440694072407B4000F070342C
:10C4280000F0803500F00F3040EA440040EAD500C3
:10C4380080EA900404F0332480EA8400604001F02C
:10C44800703401F0803501F00F3141EA440141EACE
:10C45800D50181EA910404F0332481EA8401614022
:10C4680002F0703402F0803502F00F3242EA4402E2
:10C4780042EAD50282EA920404F0332482EA840272
:10C48800624003F0703403F0803503F00F3343EA61
:10C49800440343EAD50383EA930404F0332483EA8C
:10C4A80084036340C943DB4381EA000483EA04460A
:10C4B80086EA020183EA014382EA334583EA1443A8
:10C4C8005C4084EA00077FEA040A8AEA024A8AEAA8
:10C4D800010B87EA11488AEA374A80EA060181EAAD
:10C4E8001A418AEA030A04EA0A00454088EA04076E
:10C4F80007EA0B0041408AEA0B0608EA060084EACC
:10C5080034428AEA3A4602EA060358404540414026
:10C5180087EA37438BEA3B4003EA000985EA0905C5
:10C5280082EA0309464006EA0906714085EA0100E5
:10C5380005EA3546464006EA314181EA304181EA5A
:10C54800364606EA304686EA354634400F4086EAE3
:10C55800010508EA050886EA3640024088EA02082A
:10C5680081EA314213405C4080EA020309EA030988
:10C5780087EA0907674088EA040806EA0A0601EA22
:10C588000B018AEA0B0425408AEA3A4420404540D8
:10C598008BEA3B4B02EA0B02564084EA0B04234029
:10C5A80059406E40694087EA364080EA384080EA60
:10C5B800060380EA104481EA134585EA344585EA92
:10C5C80017427D4082EA354180EA05403CE9F000A7
:10C5D8006040694072407B40BEF1010E3FF6CFAE2D
:10C5E80020BC00F05FF828606960AA60EB60BDE8D5
:10C5F800F08F00BF00F000BA80EA101404F0F014C5
:10C6080080EA0410604081EA111404F0F01481EA11
:10C618000411614082EA121404F0F01482EA041250
:10C62800624083EA131404F0F01483EA04136340AD
:10C6380080EA102404F47F4480EA0420604081EA00
:10C64800112404F47F4481EA0421614082EA12241F
:10C6580004F47F4482EA0422624083EA132404F447
:10C668007F4483EA0423634081EA500404F055348C
:10C6780080EA4400614083EA520404F0553482EAB7
:10C688004402634082EA900404F0333480EA840070
:10C69800624083EA910404F0333481EA8401634000
:10C6A800704700BF82EA900404F0333480EA8400C3
:10C6B800624083EA910404F0333481EA84016340E0
:10C6C80081EA500404F0553480EA4400614083EA6A
:10C6D800520404F0553482EA4402634080EA10248C
:10C6E80004F47F4480EA0420604081EA112404F4C1
:10C6F8007F4481EA0421614082EA122404F47F44E1
:10C7080082EA0422624083EA132404F47F4483EA21
:10C718000423634080EA101404F0F01480EA041043
:10C72800604081EA111404F0F01481EA04116140B8
:10C7380082EA121404F0F01482EA0412624083EAD6
:10C74800131404F0F01483EA04136340704700BF25
:10C758002DE9F14F94464FEA930B8A68CB68086835
:10C768004968FFF749FF0BF1060E33E083EA1344EB
:10C7780080EA134582EA134746BA96EA3444604091
:10C7880000F00F1684EA063420F00F1684EA16101B
:10C7980054BA94EA0106724002F00F1486EA04368D
:10C7A80022F00F1486EA14124CBA6540694001F071
:10C7B8000F1485EA043521F00F1485EA14115CBAC8
:10C7C80067407B4003F00F1487EA043723F00F1407
:10C7D80087EA1413BCE8F0006040694072407B406F
:10C7E80000F0E03400F0103500F00F3040EA54005B
:10C7F80040EAC50080EA900404F0332480EA84000B
:10C80800604001F0E03401F0103501F00F3141EAE9
:10C81800540141EAC50181EA910404F0332481EA14
:10C828008401614002F0E03402F0103502F00F326A
:10C8380042EA540242EAC50282EA920404F033242E
:10C8480082EA8402624003F0E03403F0103503F01A
:10C858000F3343EA540343EAC50383EA930404F01D
:10C86800332483EA8403634081EA324787EA134525
:10C8780081EA354690EA060484EA034B82EA1B42C1
:10C8880080EA044484EA054483EA144A85EA1444A5
:10C898008BEA044B84EA374481EA0B4181EA16416A
:10C8A80004EA0A00454082EA04082BEA08004140ED
:10C8B8008AEA0B0602EA060084EA34438AEA3A4620
:10C8C80003EA060778404540414088EA38478BEA42
:10C8D8003B4007EA000985EA090583EA070946405B
:10C8E80006EA0906714085EA010005EA3546464030
:10C8F80006EA314181EA304181EA364606EA3046A5
:10C9080086EA3546344008EA010886EA01052A40E5
:10C9180086EA364003405A4081EA31431F407C4052
:10C9280080EA030709EA070988EA0908544088EAFF
:10C93800020806EA0A0601EA0B018AEA0B02154018
:10C948008AEA3A42104045408BEA3B4003405E4049
:10C958004240174079404D404E40E443F64386EA52
:10C9680018435D4085EA054083EA134386EA03419C
:10C9780083EA384284EA114383EA04435FEA334393
:10C98800BEF1010E3FF6F2AE1ED4BCE8F0006040E6
:10C99800694072407B4020BCFFF784FE28606960D4
:10C9A800AA60EB60BDE8F08F2DE9E0414FF2F0029C
:10C9B80080EA1031114080EA01304840410882087D
:10C9C800C3084FF0000E4FE700F0113001F01131AD
:10C9D80002F0113203F0113340EA410040EA8200CC
:10C9E80040EAC3004FF2F00280EA1031114080EAB9
:10C9F80001304840BDE8E0812DE9F04F02F11C0507
:10CA08000646074600EB850851F8040B043A46F839
:10CA1800040BF9D14FF0010CFFF7C6FF5FEA302095
:10CA280080EA0C001ECF41404A4053405C401EC67D
:10CA38002000464517D04FEA4C0C1CF4807F18BFE5
:10CA4800ACF1E50C2C2DE7D03C2D06D1FFF7ACFF5F
:10CA580006CF41404A4006C6100006CF41404A4032
:10CA680006C61000D8E736E90F00FFF7C5FD043DFC
:10CA780086E80F00F7D1BDE8F08F00BF2DE9F00779
:10CA880091E8F807B2E802105B1854EB0C04B2E81E
:10CA980002104D4156EB0C06B2E802104F4158EB1C
:10CAA8000C08B2E8021059EB01095AEB0C0A80E8AD
:10CAB800F80780410130BDE8F00770472DE9F0071D
:10CAC80091E8F807B2E802105B1A74EB0C04B2E8BC
:10CAD80002108D4176EB0C06B2E802108F4178EB1C
:10CAE8000C08B2E8021079EB01097AEB0C0A80E82D
:10CAF800F80780414042BDE8F00770472DE9F0078C
:10CB0800524290E87800B1E880071740DB1918EA2C
:10CB1800020854EB080419EA020955EB09051AEA58
:10CB2800020A56EB0A0678C090E87800B1E8800758
:10CB380017407B4118EA020854EB080419EA020975
:10CB480055EB09051AEA020A56EB0A0678C0804135
:10CB58000130BDE8F00770472DE9F007524290E830
:10CB68007800B1E880071740DB1B18EA020874EB6D
:10CB7800080419EA020975EB09051AEA020A76EBB4
:10CB88000A0678C090E87800B1E880071740BB41F2
:10CB980018EA020874EB080419EA020975EB09059A
:10CBA8001AEA020A76EB0A0678C080414042BDE8DC
:10CBB800F00770472DE9F00152424FF0040890E861
:10CBC800300091E8C000A31B1340E41AF618EB1BD1
:10CBD8001340ED1AFF1830C0C0C1B8F10108EED1FA
:10CBE800BDE8F001704700BF00B592EC080AB1E853
:10CBF800805707EE101A53EC102A56EC114AA7FB7F
:10CC08000251A8FB020BE7FB6310E9FB62B041ECA1
:10CC1800145AA8FB0351EAFB6201E7FB64B5E7FB82
:10CC28006605E8FB661505EE10BAA9FB03B6EAFB34
:10CC38006316ECFB6356E8FB640BE9FB641BEAFB39
:10CC4800645BECFB646B05EE900AACFB023012EE01
:10CC5800104AEEFB6250E9FB6460EAFB64B0E7FB54
:10CC68006431E8FB645112EE904AE8FB6461E9FB29
:10CC780064B1EAFB640106EE103AA7FB043213EE36
:10CC8800104AE7FB6462E8FB64B2E9FB6402EAFB72
:10CC9800641211EE904AE9FB6453EAFB646313EEF5
:10CCA800904AE7FB64B3E8FB6403E9FB6413EAFB1F
:10CCB800642306EE905A17EE109A99E8000610EED3
:10CCC800108AA9FB0854EAFB68B412EE108AECFB40
:10CCD8006804EEFB6814E9FB6824EAFB683410EE8C
:10CCE800908AEEFB6865E9FB68B5EAFB680512EE19
:10CCF800908AECFB6815EEFB6825E9FB6835EAFBD2
:10CD0800684507EE106A11EE108AAEFB0876E9FB5B
:10CD18006806EAFB681613EE108AECFB6826EEFB41
:10CD28006836E9FB6846EAFB685611EE908AECFB28
:10CD380068B7EEFB6807E9FB6817EAFB682713EE9C
:10CD4800908AECFB6837EEFB6847E9FB6857EAFB1B
:10CD5800686700BD2DE9F04F07EE900AFFF744FF22
:10CD680017EE908A07EE90BAA8EC084A88E8FF0008
:10CD7800BDE8F08F00B591E89857A3FB0352A3FBD9
:10CD88000401E3FB6420E3FB671042EC145AA3FBA5
:10CD98000752E3FB6802E4FB6415E3FB6805E3FB69
:10CDA8006925A4FB07B6E3FB6926E3FB6A56E4FBA7
:10CDB800670BE4FB682BE3FB6A5BE3FB6C6B40EC03
:10CDC800151AA4FB0810E4FB6950E3FB6C60E3FB55
:10CDD8006EB0E7FB6721E4FB6951E4FB6A61E3FBA2
:10CDE8006EB1E4FB6E0106EE102AA7FB0832E4FBE5
:10CDF8006A62E4FB6CB2E4FB6E02E7FB6E12E7FBCF
:10CE08006853E7FB6963E4FB6CB3E7FB6C03E7FB80
:10CE18006E13E8FB6E2306EE905AA7FB0954E7FB56
:10CE28006AB4E7FB6C04E8FB6C14E8FB6E24E9FBCE
:10CE38006E34E8FB6865E7FB6AB5E8FB6A05E8FB62
:10CE48006C15E9FB6C25E9FB6E35EAFB6E4507EED0
:10CE5800106AA8FB0976E8FB6A06E9FB6A16E9FB93
:10CE68006C26EAFB6C36EAFB6E46ECFB6E56E8FB7A
:10CE780069B7E9FB6907E9FB6A17EAFB6A27EAFB76
:10CE88006C37ECFB6C47ECFB6E57EEFB6E6700BD36
:10CE98002DE9F04F07EE900AFFF76CFF17EE908A26
:10CEA80007EE90BAA8EC084A88E8FF00BDE8F08FC2
:10CEB80030B44FF0000310F8014B11F8015B013A50
:10CEC80084EA050443EA0403F5D1A3F101034FEA18
:10CED800D37030BC704700BF4FF0000310F8012B2F
:10CEE800013943EA0203F9D1A3F101034FEAD370F0
:10CEF800704700BF30B411F8014B12F8015B6C4069
:10CF080000F8014B013BF6D130BC70472DE9F04FDA
:10CF180090E8F00F00F140004FF0040E59E0F0B433
:10CF2800826BC36B04680525242687593C444FEA65
:10CF3800724787EAF24787EA92273C4442684FEAF9
:10CF4800F21787EAB24787EAD2073C4440F8044B15
:10CF5800032D08BF6FF01B0687593A444FEA734701
:10CF680087EAF34787EA93273A4443684FEAF31777
:10CF780087EAB34787EAD3073A4440F8042B87592E
:10CF88003B444FEA744787EAF44787EA94273B44CF
:10CF980044684FEAF41787EAB44787EAD4073B4462
:10CFA80040F8043B013DC0D1A0F13C00076A3C4475
:10CFB8004FEA724787EAF24787EA92273C440268B9
:10CFC8004FEAF21787EAB24787EAD2073C44C463BC
:10CFD800F0BC4FF0020288EA781C8CEAF84C0BEBA4
:10CFE800BC1C8AEA090303EA080383EA0A039C448F
:10CFF80050F8043B9C4451F8043B9C44674444EA81
:10D00800050B0BEA060B04EA05034BEA030BE344A2
:10D0180084EAF42383EA34530BEBB30B87EA771CD7
:10D028008CEAF74C0AEBBC1C89EA080303EA0703FD
:10D0380083EA09039C4450F8043B9C4451F8043BA0
:10D048009C4466444BEA040A0AEA050A0BEA04030C
:10D058004AEA030AE2448BEAFB2383EA3B530AEBDE
:10D06800B30A86EA761C8CEAF64C09EBBC1C88EA03
:10D07800070303EA060383EA08039C4450F8043BC9
:10D088009C4451F8043B9C4465444AEA0B0909EA6C
:10D0980004090AEA0B0349EA0309E1448AEAFA2384
:10D0A80083EA3A5309EBB30985EA751C8CEAF54C17
:10D0B80008EBBC1C87EA060303EA050383EA0703B7
:10D0C8009C4450F8043B9C4451F8043B9C44644401
:10D0D80049EA0A0808EA0B0809EA0A0348EA0308C1
:10D0E800E04489EAF92383EA395308EBB30884EA70
:10D0F800741C8CEAF44C07EBBC1C86EA050303EAB3
:10D10800040383EA06039C4450F8043B9C4451F80A
:10D11800043B9C44E34448EA090707EA0A0708EA8B
:10D12800090347EA0307674488EAF82383EA385380
:10D1380007EBB3078BEA7B1C8CEAFB4C06EBBC1CA9
:10D1480085EA040303EA0B0383EA05039C4450F8C9
:10D15800043B9C4451F8043B9C44E24447EA0806DB
:10D1680006EA090607EA080346EA0306664487EA68
:10D17800F72383EA375306EBB3068AEA7A1C8CEA6C
:10D18800FA4C05EBBC1C84EA0B0303EA0A0383EAA6
:10D1980004039C4450F8043B9C4451F8043B9C44D1
:10D1A800E14446EA070505EA080506EA070345EAF1
:10D1B8000305654486EAF62383EA365305EBB3058F
:10D1C80089EA791C8CEAF94C04EBBC1C8BEA0A034B
:10D1D80003EA090383EA0B039C4450F8043B9C448C
:10D1E80051F8043B9C44E04445EA060404EA070479
:10D1F80005EA060344EA0304644485EAF52383EA5E
:10D20800355304EBB304013A7FF4E5AEA0F14000D6
:10D21800BEF1010E7FF483AEA0F1400C9CE80F0034
:10D22800001949199219DB19ACE80F009CE80F00A6
:10D238004044494452445B44ACE80F00BDE8F08FD9
:10D248002DE9F00791E8F807B2E802105B1854EBF3
:10D258000C04B2E802104D4156EB0C06B2E802107D
:10D268004F4158EB0C08B2E8021059EB01095AEB90
:10D278000C0A8941B3F1FF3374F1FF3475F1FF35BE
:10D2880076F1000677F1000778F1000879F10109D5
:10D298007AF1FF3A51F100015B184C414D4156F1CA
:10D2A800000657F1000758F1000859EBD1795AEBFD
:10D2B800010A80E8F807BDE8F00770472DE9F00794
:10D2C80091E8F807B2E802105B1A74EB0C04B2E8B4
:10D2D80002108D4176EB0C06B2E802108F4178EB14
:10D2E8000C08B2E8021079EB01097AEB0C0A8941C3
:10D2F8005B184C414D4156F1000657F1000758F1B3
:10D30800000859EBD1795AEB010A80E8F807BDE823
:10D31800F007704718EB040859EB05095AEB060AA1
:10D328005BEB070B5FF0000C4CF1000C18EB0508E9
:10D3380059EB06095AEB070A5BEB070B50EB0C009D
:10D348005FF0000C51EB0C0152EB0C0263414CF105
:10D35800000CB8EB070879F100097AF1000A7BEBB9
:10D36800040BA841B141A241B3416CF1000CBBEBE5
:10D37800050BB041B941AA41BB416CF1000C4CF01E
:10D3880001068CF0020718EB060859EB6C095AEBFA
:10D398006C0A7BEB6C0B70EB6C0471EB6C0572EB3D
:10D3A800670653EB6C076CEB6C0C18EB0C0059EB35
:10D3B8000C015AEB0C025BF1000354F1000455F127
:10D3C800000556EBDC7657EB0C0770472DE9F04F5C
:10D3D80007EE900AFFF708FC59EC168A17EE10AA18
:10D3E800FFF798FF59EC148A5BEC15AAFFF792FF38
:10D3F80017EE908A88E8FF00BDE8F08F2DE9F04F1E
:10D4080007EE900AFFF7B6FC59EC168A17EE10AA39
:10D41800FFF780FF59EC148A5BEC15AAFFF77AFF37
:10D4280017EE908A88E8FF00BDE8F08F81F0004190
:10D4380002E000BF83F0004330B54FEA41044FEAF1
:10D44800430594EA050F08BF90EA020F1FBF54EA8C
:10D45800000C55EA020C7FEA645C7FEA655C00F028
:10D46800E2804FEA5454D4EB5555B8BF6D420CDDF9
:10D478002C4480EA020281EA030382EA000083EA7C
:10D48800010180EA020281EA0303362D88BF30BD1C
:10D4980011F0004F4FEA01314FF4801C4CEA113172
:10D4A80002D0404261EB410113F0004F4FEA0333D1
:10D4B8004CEA133302D0524263EB430394EA050F5C
:10D4C80000F0A780A4F10104D5F1200E0DDB02FACB
:10D4D8000EFC22FA05F2801841F1000103FA0EF25F
:10D4E800801843FA05F359410EE0A5F120050EF125
:10D4F800200E012A03FA0EFC28BF4CF0020C43FA56
:10D5080005F3C01851EBE37101F0004507D54FF062
:10D51800000EDCF1000C7EEB00006EEB0101B1F5B2
:10D52800801F1BD3B1F5001F0CD349085FEA3000F8
:10D538004FEA3C0C04F101044FEA445212F5800F03
:10D5480080F09A80BCF1004F08BF5FEA500C50F1A0
:10D55800000041EB045141EA050130BD5FEA4C0C83
:10D56800404141EB0101013C28BFB1F5801FE9D2E0
:10D5780091F0000F04BF01460020B1FA81F308BF03
:10D588002033A3F10B03B3F120020CDA0C3208DDCF
:10D5980002F1140CC2F10C0201FA0CF021FA02F1AA
:10D5A8000CE002F11402D8BFC2F1200C01FA02F11A
:10D5B80020FA0CFCDCBF41EA0C019040E41AA2BF3F
:10D5C80001EB0451294330BD6FEA04041F3C1CDA07
:10D5D8000C340EDC04F11404C4F1200220FA04F027
:10D5E80001FA02F340EA030021FA04F345EA0301D1
:10D5F80030BDC4F10C04C4F1200220FA02F001FA93
:10D6080004F340EA0300294630BD21FA04F0294614
:10D6180030BD94F0000F83F4801306BF81F48011AD
:10D628000134013D4EE77FEA645C18BF7FEA655C20
:10D6380029D094EA050F08BF90EA020F05D054EAF2
:10D64800000C04BF1946104630BD91EA030F1EBFF7
:10D658000021002030BD5FEA545C05D140004941FB
:10D6680028BF41F0004130BD14F580043CBF01F5EE
:10D67800801130BD01F0004545F0FE4141F47001D4
:10D688004FF0000030BD7FEA645C1ABF19461046AF
:10D698007FEA655C1CBF0B46024650EA013406BFB0
:10D6A80052EA033591EA030F41F4002130BD00BF6F
:10D6B80090F0000F04BF0021704730B54FF480642C
:10D6C80004F132044FF000054FF0000150E700BFAD
:10D6D80090F0000F04BF0021704730B54FF480640C
:10D6E80004F1320410F0004548BF40424FF00001F9
:10D6F8003EE700BF42004FEAE2014FEA31014FEA3C
:10D7080002701FBF12F07F4393F07F4F81F060518A
:10D71800704732F07F4208BF704793F07F4F04BFD5
:10D7280041F40021704730B54FF4607401F00045B2
:10D7380021F000411CE700BF50EA010208BF704712
:10D7480030B54FF000050AE050EA010208BF704703
:10D7580030B511F0004502D5404261EB41014FF46C
:10D76800806404F132045FEA915C3FF4D8AE4FF074
:10D7780003025FEADC0C18BF03325FEADC0C18BF57
:10D78800033202EBDC02C2F1200300FA03FC20FAA8
:10D7980002F001FA03FE40EA0E0021FA02F11444F5
:10D7A800BDE600BF70B54FF0FF0C4CF4E06C1CEA0E
:10D7B80011541DBF1CEA135594EA0C0F95EA0C0F7F
:10D7C80000F0DEF82C4481EA030621EA4C5123EAF2
:10D7D8004C5350EA013518BF52EA033541F4801121
:10D7E80043F4801338D0A0FB02CE4FF00005E1FBD4
:10D7F80002E506F00042E0FB03E54FF00006E1FB1E
:10D8080003569CF0000F18BF4EF0010EA4F1FF0460
:10D81800B6F5007F64F5407404D25FEA4E0E6D41A0
:10D8280046EB060642EAC62141EA55514FEAC520B1
:10D8380040EA5E504FEACE2EB4F1FD0C88BFBCF52D
:10D84800E06F1ED8BEF1004F08BF5FEA500E50F1DE
:10D85800000041EB045170BD06F0004646EA0101A4
:10D8680040EA020081EA0301B4EB5C04C2BFD4EBD6
:10D878000C0541EA045170BD41F480114FF0000ECF
:10D88800013C00F3AB8014F1360FDEBF002001F03D
:10D89800004170BDC4F10004203C35DA0C341BDCB7
:10D8A80004F11404C4F1200500FA05F320FA04F089
:10D8B80001FA05F240EA020001F0004221F00041BD
:10D8C80010EBD37021FA04F642EB06015EEA430E30
:10D8D80008BF20EAD37070BDC4F10C04C4F1200560
:10D8E80000FA04F320FA05F001FA04F240EA020013
:10D8F80001F0004110EBD37041F100015EEA430EE4
:10D9080008BF20EAD37070BDC4F1200500FA05F203
:10D918004EEA020E20FA04F301FA05F243EA020382
:10D9280021FA04F001F0004121FA04F220EA020091
:10D9380000EBD3705EEA430E08BF20EAD37070BDD7
:10D9480094F0000F0FD101F00046400041EB0101B7
:10D9580011F4801F08BF013CF7D041EA060195F099
:10D96800000F18BF704703F00046520043EB030353
:10D9780013F4801F08BF013DF7D043EA0603704740
:10D9880094EA0C0F0CEA135518BF95EA0C0F0CD04B
:10D9980050EA410618BF52EA4306D1D181EA030191
:10D9A80001F000414FF0000070BD50EA410606BF8B
:10D9B8001046194652EA430619D094EA0C0F02D1D0
:10D9C80050EA013613D195EA0C0F05D152EA033615
:10D9D8001CBF104619460AD181EA030101F0004133
:10D9E80041F0FE4141F470014FF0000070BD41F07C
:10D9F800FE4141F4780170BD70B54FF0FF0C4CF456
:10DA0800E06C1CEA11541DBF1CEA135594EA0C0F74
:10DA180095EA0C0F00F0A7F8A4EB050481EA030EC1
:10DA280052EA03354FEA013100F088804FEA0333A8
:10DA38004FF0805545EA131343EA12634FEA022276
:10DA480045EA111545EA10654FEA00260EF0004137
:10DA58009D4208BF964244F1FD0404F5407402D289
:10DA68005B084FEA3202B61A65EB03055B084FEA1A
:10DA780032024FF480104FF4002CB6EB020E75EB17
:10DA8800030E22BFB61A754640EA0C005B084FEA3F
:10DA98003202B6EB020E75EB030E22BFB61A7546BC
:10DAA80040EA5C005B084FEA3202B6EB020E75EB07
:10DAB800030E22BFB61A754640EA9C005B084FEA7F
:10DAC8003202B6EB020E75EB030E22BFB61A75468C
:10DAD80040EADC0055EA060E18D04FEA051545EA7B
:10DAE80016754FEA06164FEAC30343EA52734FEA24
:10DAF800C2025FEA1C1CC0D111F4801F0BD141EA9D
:10DB080000014FF000004FF0004CB6E711F4801F01
:10DB180004BF01430020B4F1FD0C88BFBCF5E06FE1
:10DB28003FF6AFAEB5EB030C04BFB6EB020C5FEAF1
:10DB3800500C50F1000041EB045170BD0EF0004E46
:10DB48004EEA113114EB5C04C2BFD4EB0C0541EA78
:10DB5800045170BD41F480114FF0000E013C90E675
:10DB680045EA060E8DE60CEA135594EA0C0F08BF39
:10DB780095EA0C0F3FF43BAF94EA0C0F0AD150EA38
:10DB880001347FF434AF95EA0C0F7FF425AF1046CB
:10DB980019462CE795EA0C0F06D152EA03353FF4F3
:10DBA800FDAE1046194622E750EA410618BF52EA70
:10DBB80043067FF4C5AE50EA41047FF40DAF52EA44
:10DBC80043057FF4EBAE12E74FF0FF3C06E000BFE1
:10DBD8004FF0010C02E000BF4FF0010C4DF804CDEE
:10DBE8004FEA410C7FEA6C5C4FEA430C18BF7FEAAE
:10DBF8006C5C1BD001B050EA410C0CBF52EA430CDC
:10DC080091EA030F02BF90EA020F0020704710F15B
:10DC1800000F91EA030F58BF994208BF90422CBFEA
:10DC2800D8176FEAE37040F0010070474FEA410CE3
:10DC38007FEA6C5C02D150EA013C07D14FEA430C01
:10DC48007FEA6C5CD6D152EA033CD3D05DF8040B72
:10DC5800704700BF8446104662468C4619466346A4
:10DC680000E000BF01B5FFF7B7FF002848BF10F17B
:10DC7800000F01BD4DF808EDFFF7F4FF0CBF0120C0
:10DC880000205DF808FB00BF4DF808EDFFF7EAFF3C
:10DC980034BF012000205DF808FB00BF4DF808EDF7
:10DCA800FFF7E0FF94BF012000205DF808FB00BFEC
:10DCB8004DF808EDFFF7CEFF94BF012000205DF876
:10DCC80008FB00BF4DF808EDFFF7C4FF34BF012083
:10DCD80000205DF808FB00BF4FEA410C7FEA6C5C4E
:10DCE80002D150EA013C0AD14FEA430C7FEA6C5C4E
:10DCF80002D152EA033C02D14FF0000070474FF0C6
:10DD0800010070474FEA410212F5001215D211D5F1
:10DD18006FF47873B3EB625212D94FEAC12343F020
:10DD2800004343EA505311F0004F23FA02F018BFA2
:10DD3800404270474FF00000704750EA013005D16B
:10DD480011F0004008BF6FF0004070474FF000002E
:10DD5800704700BF4FEA4102B2F1E04324BFB3F578
:10DD6800001CDCF1FE5C0DD901F0004C4FEAC0024A
:10DD78004CEA5070B2F1004F40EB830008BF20F02E
:10DD88000100704711F0804F21D113F13872BCBFE8
:10DD980001F00040704741F480114FEA5252C2F13D
:10DDA8001802C2F1200C10FA0CF320FA02F018BF86
:10DDB80040F001004FEAC1234FEAD32303FA0CFCD9
:10DDC80040EA0C0023FA02F34FEA4303CCE77FEA68
:10DDD800625307D150EA01331EBF4FF0FE4040F4B2
:10DDE8004000704701F0004040F0FE4040F4000061
:10DDF800704700BF7BB972B90029BEBF00204FF041
:10DE0800004106E008BF00281CBF6FF000414FF03A
:10DE1800FF3000F057B8ADF1080C6DE904CE0029C9
:10DE280009DB002B1ADB00F061F8DDF804E0DDE91E
:10DE3800022304B07047404261EB4101002B1BDB19
:10DE480000F054F8DDF804E0DDE9022304B04042B4
:10DE580061EB4101524263EB43037047524263EB6B
:10DE6800430300F043F8DDF804E0DDE9022304B0E1
:10DE7800404261EB41017047524263EB430300F0BB
:10DE880035F8DDF804E0DDE9022304B0524263EB23
:10DE98004303704753B94AB9002908BF00281CBF7B
:10DEA8004FF0FF314FF0FF3000F00CB8ADF1080C27
:10DEB8006DE904CE00F01AF8DDF804E0DDE902238C
:10DEC80004B07047704700BF10F8012B11F8013BF0
:10DED800012A28BF9A42F7D0D01A7047034613F890
:10DEE800012B002AFBD1181A013870472DE9F04799
:10DEF80086468C460846089E154674461946002BE9
:10DF080040F0C1808542B2FA82F245D94AB1C2F1E5
:10DF1800200300FA02FC954094402EFA03F343EAEA
:10DF28000C0C4FEA154EA8B2230CBCFBFEF80EFBF6
:10DF380018CC08FB00F943EA0C43994528D9EB189B
:10DF480008F1FF3704D2994502D9A8F102072B44FA
:10DF5800A3EB0903A4B2B3FBFEFC0EFB1C330CFBC2
:10DF680000F044EA0344A04214D92C190CF1FF3301
:10DF780004D2A04202D9ACF102032C44241A43EA89
:10DF880007401EB1D440002334607360BDE8F087B9
:10DF98004746DDE76346F1E792BB431B01214FEAA1
:10DFA800154EAFB2200CB3FBFEFC0EFB1C330CFB72
:10DFB80007F840EA0343984561D9EB180CF1FF30A4
:10DFC80004D2984502D9ACF102002B44A3EB080314
:10DFD800A4B2B3FBFEFC0EFB1C330CFB07F744EAB0
:10DFE8000344A7424DD92C190CF1FF3304D2A742A0
:10DFF80002D9ACF102032C44E41B43EA0040C0E719
:10E00800C2F120039540944020FA03F12EFA03F35D
:10E018004FEA154E9040AFB20343B1FBFEFC0EFB36
:10E028001C10190C0CFB07F841EA0041884522D95D
:10E0380069180CF1FF3004D2884502D9ACF102000E
:10E048002944A1EB08019BB2B1FBFEFC0EFB1C119D
:10E058000CFB07F743EA01439F420ED9EB180CF17A
:10E06800FF3104D29F4202D9ACF102012B44DB1BE1
:10E0780041EA004193E76046E3E76146F7E7604617
:10E08800A4E76346B8E7834206D916B900210846D3
:10E098007CE7C6E900E0F9E7B3FA83F78FB9834272
:10E0A80001D3724508D8BEEB020460EB03030120DC
:10E0B8009C461EB9002169E73846FAE7C6E9004CD4
:10E0C800F8E7C7F1200CBB400EFA07F522FA0CF46A
:10E0D8002EFA0CF1BA401C4320FA0CF3B8404FEA70
:10E0E800144901431FFA84FEB3FBF9F809FB183001
:10E0F8000B0C08FB0EFA43EA00439A4540D9E31893
:10E1080008F1FF3004D29A4502D9A8F1020023444D
:10E11800A3EB0A0389B2B3FBF9F809FB183308FB30
:10E128000EFE41EA03418E452CD9611808F1FF33F0
:10E1380004D28E4502D9A8F10203214443EA0040E3
:10E14800A1EB0E01A0FB02984145CE46434602D3FF
:10E1580006D14D4504D20138B9EB020E68EB040331
:10E16800002EA7D0B5EB0E0261EB030101FA0CFCFF
:10E1780022FA07F3F9404CEA0303C6E9003199E7AC
:10E188004046C5E74346D9E780B584B000AF0346AB
:10E19800FB80B7F906301846FFF79AFA0EA3D3E9C1
:10E1A8000023FFF7FFFA02460B4610461946FFF711
:10E1B800A9FD0346FB60FB68B3F57A7F02DD4FF4E7
:10E1C8007A73FB60FB68002B01DA0023FB60FB68B5
:10E1D80018461037BD4680BD9A9999999999B93FC3
:10E1E80090B591B006AF786039607B68002B00F07D
:10E1F8001E813B68002B00F01A817B6807F10C0236
:10E20800114618460AF0CEFC97ED037AD7ED037A4B
:10E2180027EE277AD7ED046AD7ED047A66EEA77A57
:10E2280037EE277AD7ED056AD7ED057A66EEA77A35
:10E2380037EE277AD7ED066AD7ED067A66EEA77A23
:10E2480077EE277AB0EE670A61F004FF87ED090AD6
:10E25800D7ED097AB7EE007A77EEC77AF0EEE77A6B
:10E268009FED777AF4EEC77AF1EE10FA5EDD754B22
:10E278009B680133734A9360D7ED097AB7EE007A49
:10E2880077EEC77AB0EEE77A6E4BD3ED037AB4EE49
:10E29800E77AF1EE10FA0ADDD7ED097AB7EE007ADF
:10E2A80077EEC77AF0EEE77A664BC3ED037A03237D
:10E2B800032B40D961F0B5FF034683F00103DBB2BD
:10E2C800002B06D0604B1B681B6803F00403002B6F
:10E2D80031D0012387F8233097F8233083F00103E6
:10E2E800DBB2002B27D1584B1C68D7ED097AB7EE63
:10E2F800007A77EEC77AF0EEE77A17EE900AFFF722
:10E30800F9F902460B46CDE90423504B0393504BD1
:10E31800029308230193002300930023042221463B
:10E32800002062F059F90023FB6104E0454B5B686B
:10E338000133444A5360FA683B681A603A693B689B
:10E348005A607A693B689A60BA693B68DA607B68A8
:10E35800D3ED047A9FED3F7AF4EEC77AF1EE10FA26
:10E3680054D87B685B691846FFF7C4F932A3D3E930
:10E378000023FFF717FA02460B46104619464FF0DE
:10E388000002354BFFF738FB02460B46104619468C
:10E39800FFF7E0FC02463B681A617B689B691846F8
:10E3A800FFF7A8F924A3D3E90023FFF7FBF90246F6
:10E3B8000B46104619464FF00002274BFFF71CFB8F
:10E3C80002460B4610461946FFF7C4FC02463B6856
:10E3D8005A617B681B691846FFF78CF916A3D3E9C5
:10E3E8000023FFF7DFF902460B46104619464FF0A7
:10E3F8000002194BFFF700FB02460B461046194670
:10E40800FFF7A8FC02463B689A610BE07B685A69F3
:10E418003B681A617B689A693B685A617B681A692C
:10E428003B689A617B685A6C3B68DA6100E000BF20
:10E438002C37BD4690BD00BF182D4454FB21094020
:10E448000AD7233C846800200023002040D20A0019
:10E458006C8E09000000B443008066400000000094
:10E468002DE9F04FE5B016AF07F59C73A3F582735D
:10E47800186007F59C73A3F58473196007F59C73FE
:10E48800A3F586731A600023C7F8F8300023C7F88D
:10E49800EC300323022B28D961F0C3FE034683F036
:10E4A8000103DBB2002B06D03B4B1B681B6803F053
:10E4B8000703022B19D9012387F8DF3097F8DF30DB
:10E4C80083F00103DBB2002B0FD1334B1968334BB8
:10E4D80002930023019300230093002303220020CA
:10E4E80062F07AF80023C7F8D8304FF47A7061F0F8
:10E4F800ACFE2B4B1B78DBB2002B04D0284B002240
:10E508001A7003F0A3FA274B1B78DBB2002B04D058
:10E51800244B00221A7004F01FF807F178031846FC
:10E5280008F068F8C7F80401D7F80431002B3DD08B
:10E538000323002B2BD061F074FE034683F0010304
:10E54800DBB2002B06D0144B1B681B6803F00703D3
:10E55800002B1CD0012387F8C73097F8C73083F009
:10E568000103DBB2002B12D10B4B1968D7F8043129
:10E5780003930D4B02930023019300230093002380
:10E588000122002062F028F80023C7F8C0300A20D2
:10E5980061F05BFE24E300BF002300202493090000
:10E5A80081A4002082A400203C930900864B1B68AC
:10E5B8000133854A136007F178034033184603F0A6
:10E5C80099F807F1580207F1780311461846FFF742
:10E5D80007FED7ED1A7A9FED7D7A67EE877A17EEF8
:10E5E800900AFFF787F876A3D3E90023FFF704FA28
:10E5F80002460B4610461946FFF7ACFB0346C7F820
:10E60800E430D7ED1B7A9FED717A67EE877A17EEC3
:10E61800900AFFF76FF86AA3D3E90023FFF7ECF934
:10E6280002460B4610461946FFF794FB0346C7F807
:10E63800E030D7ED1C7A9FED657A67EE877A17EEA2
:10E64800900AFFF757F85EA3D3E90023FFF7D4F940
:10E6580002460B4610461946FFF77CFB0346C7F8EF
:10E66800E83006F095FE0346002B3ED007F158032C
:10E67800184600F0C1FAC7F80401D7F80431002B96
:10E6880033D0D7F8043113F1800F2ED00323012B98
:10E698002BD961F0C6FD034683F00103DBB2002BE2
:10E6A80006D04B4B1B681B6803F00603002B1CD0DD
:10E6B800012387F8033197F8033183F00103DBB2B4
:10E6C800002B12D1424B1968D7F804310393414B00
:10E6D80002930023019300230093002302220020C9
:10E6E80061F07AFF0023C7F8FC30D7F8F83001331F
:10E6F800C7F8F830D7F8F830632B40F29B8002F067
:10E70800C9FD0023C7F8F8300323022B40F292809A
:10E7180061F087FD034683F00103DBB2002B07D0CD
:10E728002B4B1B681B6803F00703022B40F2828007
:10E73800012387F8F73097F8F73083F00103DBB24D
:10E74800002B77D1224B1B68BB62D7F8E400FEF799
:10E75800D1FF82468B46D7F8E000FEF7CBFFC7E92A
:10E768000801D7F8E800FEF7C5FFC7E90601BB6D49
:10E778001846FEF7BFFFC7E90401FB6D1846FEF710
:10E78800B9FFC7E902013B6E1846FEF7B3FF8046A2
:10E7980089467B6E1846FEF7ADFF04460D4697F88E
:10E7A800B8307B6097F8B9303B6097F8BA301E46AE
:10E7B8000AF02EFC0346002B10D0074B0FE000BFD9
:10E7C800182D4454FB21094084680020000034437C
:10E7D800002300205893090074930900B14B159346
:10E7E80014963B6813937B681293CDE91045CDE9E5
:10E7F8000E8997ED027B8DED0C7B97ED047B8DEDFB
:10E808000A7B97ED067B8DED087B97ED087B8DEDF8
:10E81800067BCDE904ABA44B0293002301930023AC
:10E82800009300230322B96A002061F0D5FE00237B
:10E83800C7F8F030D7F8EC300133C7F8EC30D7F828
:10E84800EC3040F6B732934240F2C7810023C7F854
:10E85800EC3007F13C0318460AF0E6FB0323022BD1
:10E8680028D961F0DEFC034683F00103DBB2002BFC
:10E8780006D08E4B1B681B6803F00703022B19D9BF
:10E88800012387F82B3197F82B3183F00103DBB292
:10E89800002B0FD1854B1968854B029300230193F8
:10E8A8000023009300230322002061F095FE00233B
:10E8B800C7F824310323022B31D961F0B2FC034697
:10E8C80083F00103DBB2002B06D0784B1B681B6872
:10E8D80003F00703022B22D9012387F8233197F885
:10E8E800233183F00103DBB2002B18D16F4B1C6876
:10E8F80061F01BFD03466F4AA2FB03239B090393A8
:10E908006D4B0293002301930023009300230322FD
:10E918002146002061F060FE0023C7F81C31032364
:10E92800022B2BD961F07DFC034683F00103DBB297
:10E93800002B06D05D4B1B681B6803F00703022BF6
:10E948001CD9012387F81B3197F81B3183F0010389
:10E95800DBB2002B12D1554B1968584B1B68039337
:10E96800574B0293002301930023009300230322B3
:10E97800002061F031FE0023C7F814310323022B75
:10E9880046D961F04EFC034683F00103DBB2002B4D
:10E9980006D0464B1B681B6803F00703022B37D9C8
:10E9A800012387F8133197F8133183F00103DBB2A1
:10E9B800002B2DD13D4B1D68404B5C683F4B5B687D
:10E9C80007EE903AF8EE677A9FED3E7A27EE877A5F
:10E9D8003A4B1B6807EE903AF8EE677AC7EE276A5B
:10E9E80016EE900AFEF786FE02460B46CDE9042392
:10E9F8000394354B029300230193002300930023D3
:10EA080003222946002061F0E7FD0023C7F80C31F6
:10EA18000323022B32D961F004FC034683F001037F
:10EA2800DBB2002B06D0214B1B681B6803F00703E1
:10EA3800022B23D9012387F80B3197F80B3183F088
:10EA48000103DBB2002B19D1184B1C681B4BDB6888
:10EA58001846FEF74FFE02460B46CDE904231B4B32
:10EA680002930023019300230093002303222146ED
:10EA7800002061F0B1FD0023C7F82C310323022BDD
:10EA880042D961F0CEFB034683F00103DBB2002BD1
:10EA98001ED0064B1B681B6803F00703022B33D9F3
:10EAA80016E000BF7C93090088930900002300202A
:10EAB800D8930900D34D6210F493090084680020AC
:10EAC8000C9409000000C8422494090044940900E9
:10EAD800012387F8333197F8333183F00103DBB230
:10EAE800002B11D13F4B19683B6C03933E4B0293AB
:10EAF800002301930023009300230322002061F0E8
:10EB08006BFD0023C7F834310323022B2BD961F0A6
:10EB180088FB034683F00103DBB2002B06D0314BA0
:10EB28001B681B6803F00703022B1CD9012387F815
:10EB3800D73097F8D73083F00103DBB2002B12D11E
:10EB4800284B1968294B5B690393294B02930023CF
:10EB580001930023009300230322002061F03CFD71
:10EB68000023C7F8D03007F0E3FD034683F0010324
:10EB7800DBB2002B31D00323012B28D961F051FBE4
:10EB8800034683F00103DBB2002B06D0154B1B684C
:10EB98001B6803F00603002B19D0012387F8CF3038
:10EBA80097F8CF3083F00103DBB2002B0FD10D4B68
:10EBB8001968104B0293002301930023009300234C
:10EBC8000222002061F008FD0023C7F8C83007F1D1
:10EBD80078034033184602F087FB0A2061F035FBC2
:10EBE80087E400BF002300206094090084680020A7
:10EBF8007C940900989409002DE9B04FC0B008AF83
:10EC08007860734B1B68002B02D16FF07F03D3E051
:10EC1800704B1B78002B46D07B681B68BB617B68F8
:10EC28005B68FB617B689B683B627B68DB687B6237
:10EC38007B68DB69BB627B681B681846FEF75AFD78
:10EC480004460D467B685B681846FEF753FD804610
:10EC580089467B689B681846FEF74CFD82468B46C2
:10EC68007B68DB681846FEF745FD02460B4607F150
:10EC78008C00CDE90623CDE904ABCDE90289CDE9C5
:10EC88000045554A40215FF067FBC7F8DC00504B50
:10EC98001868524B03F11401D7F8DC309BB207F126
:10ECA8008C0261F03DFE4E4B1B78002B00F08380F8
:10ECB8007B681B69BB607B685B69FB607B689B69E1
:10ECC8003B617B68DB697B617B68D3ED047A9FEDF0
:10ECD800457A67EE877A17EE900AFEF70BFD3AA39E
:10ECE800D3E90023FEF788FE02460B461046194674
:10ECF800FFF730F80346C7F8D8307B68D3ED057ABC
:10ED08009FED387A67EE877A17EE900AFEF7F2FCE5
:10ED18002DA3D3E90023FEF76FFE02460B461046EB
:10ED28001946FFF717F80346C7F8D4307B68D3EDC8
:10ED3800067A9FED2C7A67EE877A17EE900AFEF72F
:10ED4800D9FC21A3D3E90023FEF756FE02460B4661
:10ED580010461946FEF7FEFF0346C7F8D030D7F82D
:10ED6800D800FEF7C7FC04460D46D7F8D400FEF7D6
:10ED7800C1FC80468946D7F8D000FEF7BBFC0246A6
:10ED88000B4607F12C00CDE90423CDE90289CDE932
:10ED98000045154A60215FF0DFFAC7F8CC000C4B3C
:10EDA80018680E4B03F15001D7F8CC309BB207F12D
:10EDB8002C0261F0B5FD00231846E037BD46BDE8DA
:10EDC800B08F00BFAFF30080182D4454FB210940D9
:10EDD800D868002088A4002040A2090064D30A0053
:10EDE80089A400200000344360A20900000000004C
:10EDF800B0B5AAB008AF7860894B1B7883F00103DF
:10EE0800DBB2002B02D17B68002B02D16FF0150317
:10EE1800C0E2844B1B7A002B00F0CA8007F108037C
:10EE2800184607F045FCB86761F03BFEF866BB6F13
:10EE3800002B40F0BD807B4B1B68FA6ED21A794BD1
:10EE48005B689A42C0F0B480774B1B780C2B03D0D8
:10EE5800754B1B780B2B01D1012300E0002387F8A9
:10EE68006B3097F86B3003F0010387F86B3097F835
:10EE78006B30002B17D03B7A012B08D97B7A012BFA
:10EE880005D9BB7A012B02D9FB7A012B01D80123C2
:10EE980000E0002387F8733097F8733003F001031C
:10EEA80087F8733013E03B7A012B05D97B7A012B65
:10EEB80002D9BB7A012B01D8012300E0002387F88F
:10EEC800733097F8733003F0010387F8733097F8BD
:10EED8007330002B6CD097F86B30002B33D00423A1
:10EEE800012B62D961F059FD034683F00103DBB2BF
:10EEF800002B06D04D4B1B681B6803F00603002B44
:10EF080053D0012387F8833097F8833083F00103C7
:10EF1800DBB2002B49D1454B19683B7A7A7AB87A2B
:10EF2800FC7A0694059004920393414B02930023C4
:10EF380001930023009300230222002061F069FE60
:10EF48000023FB6731E00423012B2ED961F025FD56
:10EF5800034683F00103DBB2002B06D0334B1B685A
:10EF68001B6803F00603002B1FD0012387F87230BB
:10EF780097F8723083F00103DBB2002B15D12B4BCD
:10EF880019683B7A7A7AB87A059004920393294BE8
:10EF98000293002301930023009300230222002000
:10EFA80061F037FE0023C7F884301E4AFB6E1360F9
:10EFB80007F10C0308221946202061F048FEB867C3
:10EFC800BB6F002B3AD00423002B27D061F0E5FC5F
:10EFD800034683F00103DBB2002B06D0134B1B68FA
:10EFE8001B6803F00703002B18D00123FB76FB7E78
:10EFF80083F00103DBB2002B10D10C4B1968BB6FF7
:10F0080003930D4B029300230193002300930023E5
:10F018000122002061F0FDFD00237B61BB6FB9E197
:10F028008BA40020D425002051300020D0250020BA
:10F0380088AA0900CCAA090014AB09003B7B1AB2C4
:10F048007B7B1B021BB21343A7F87630BB7B1AB23B
:10F05800FB7B1B021BB21343A7F874303B7C1AB22C
:10F068007B7C1B021BB21343A7F86830BB7C1AB227
:10F07800FB7C1B021BB21343A7F866304FF000025B
:10F08800A54BC7E91623B7F976301846FEF720FBDB
:10F0980002460B46D7E91601FEF784FB02460B46EB
:10F0A800C7E91423B7F974301846FEF711FB024676
:10F0B8000B46D7E91601FEF775FB02460B46C7E972
:10F0C8001223B7F968301846FEF702FB02460B46D2
:10F0D800D7E91601FEF766FB02460B46C7E910237F
:10F0E800B7F966301846FEF7F3FA02460B46D7E939
:10F0F8001601FEF757FB02460B46C7E90E23D7E970
:10F108001423D7E91401FEF74DFB02460B461446BB
:10F118001D46D7E91223D7E91201FEF743FB024641
:10F128000B4620462946FEF787F902460B46144649
:10F138001D46D7E91023D7E91001FEF733FB024635
:10F148000B4620462946FEF777F902460B46144639
:10F158001D46D7E90E23D7E90E01FEF723FB024629
:10F168000B4620462946FEF767F902460B4643EC54
:10F17800172BB0EE470AF0EE670A60F037FF87ED0D
:10F188000C0B63A3D3E90023D7E90C01FEF79AFD22
:10F198000346002B77D0D7E90C23D7E91401FEF7F3
:10F1A8002BFC02460B4610461946FEF7D3FD0246D5
:10F1B8007B681A60D7E90C23D7E91201FEF71CFC1B
:10F1C80002460B4610461946FEF7C4FD02467B6808
:10F1D8005A60D7E90C23D7E91001FEF70DFC024667
:10F1E8000B4610461946FEF7B5FD02467B689A6045
:10F1F800D7E90C23D7E90E01FEF7FEFB02460B46C2
:10F2080010461946FEF7A6FD02467B68DA607B6861
:10F2180093ED007A7B68D3ED007A27EE277A7B6836
:10F22800D3ED016A7B68D3ED017A66EEA77A37EEF3
:10F23800277A7B68D3ED026A7B68D3ED027A66EEA3
:10F24800A77A37EE277A7B68D3ED036A7B68D3ED1C
:10F25800037A66EEA77A77EE277AB0EE670A60F04F
:10F26800F9FE87ED090AD7ED097AB7EE007A77EE4D
:10F27800C77AF0EEE77A9FED297AF4EEC77AF1EED5
:10F2880010FA51DC85E00423012B2BD961F085FBB2
:10F29800034683F00103DBB2002B06D0204B1B682A
:10F2A8001B6803F00603002B1CD0012387F82F30BE
:10F2B80097F82F3083F00103DBB2002B12D1184BE3
:10F2C8001968D7E90C23CDE90423164B02930023D0
:10F2D80001930023009300230222002061F099FC8F
:10F2E8000023BB627B684FF07E521A607B684FF048
:10F2F80000025A607B684FF000029A607B684FF00A
:10F308000002DA606FF0040344E000BFAFF300804E
:10F318002D431CEBE2361A3F0000103F0AD7233C6E
:10F32800D025002034AB09000423032B31D961F028
:10F3380034FB034683F00103DBB2002B06D0174BE6
:10F348001B681B6803F00403002B22D0012387F8F5
:10F35800233097F8233083F00103DBB2002B18D158
:10F368000E4B1C68786AFEF7C5F902460B46CDE9D4
:10F3780004230B4B03930B4B0293082301930023A5
:10F388000093002304222146002061F042FC002360
:10F39800FB61002318468837BD46B0BDD025002044
:10F3A800B8D40A0050AB0900B0B592B004AF786089
:10F3B8007B681B681846FEF79DF902460B46C7E9AD
:10F3C8000C237B685B681846FEF794F902460B46E7
:10F3D800C7E90A237B689B681846FEF78BF9024643
:10F3E8000B46C7E908237B68DB681846FEF782F9F5
:10F3F80002460B46C7E90623D7E90C23D7E90C01D7
:10F40800FEF7D0F902460B4614461D46D7E90A23F3
:10F41800D7E90A01FEF7C6F902460B4620462946F7
:10F42800FEF70AF802460B4614461D46D7E908239C
:10F43800D7E90801FEF7B6F902460B4620462946E9
:10F44800FDF7FAFF02460B4614461D46D7E9062388
:10F45800D7E90601FEF7A6F902460B4620462946DB
:10F46800FDF7EAFF02460B4643EC172BB0EE470ABE
:10F47800F0EE670A60F0BAFD87ED040B44A3D3E908
:10F488000023D7E90401FEF71DFC0346002B3CD0FE
:10F49800D7E90423D7E90C01FEF7AEFA02460B467A
:10F4A80010461946FEF756FC02467B681A60D7E9F3
:10F4B8000423D7E90A01FEF79FFA02460B461046D5
:10F4C8001946FEF747FC02467B685A60D7E90423D1
:10F4D800D7E90801FEF790FA02460B46104619468E
:10F4E800FEF738FC02467B689A60D7E90423D7E91F
:10F4F8000601FEF781FA02460B4610461946FEF74A
:10F5080029FC02467B68DA6038E00423012B25D900
:10F5180061F0B0FB034683F00103DBB2002B06D099
:10F52800194B1B681B6803F00603002B16D0012338
:10F53800FB73FB7B83F00103DBB2002B0ED1124B74
:10F548001968124B029300230193002300930023B0
:10F558000222002061F096FB0023BB607B684FF01D
:10F568007E521A607B684FF00002DA607B68DA68C6
:10F578007B689A607B689A687B685A6000BF3837F6
:10F58800BD46B0BDAFF30080E02500203CB20900C5
:10F598008DEDB5A0F7C6B03EB0B5A8B006AFF8601F
:10F5A800B9607A60FB681B681846FEF7A3F8024644
:10F5B8000B46C7E91C23FB685B681846FEF79AF8F8
:10F5C80002460B46C7E92023FB689B681846FEF7EE
:10F5D80091F802460B46C7E91E23FB68DB6818460C
:10F5E800FEF788F802460B46C7E91A23BB681B6872
:10F5F8001846FEF77FF802460B46C7E91823BB6892
:10F608005B681846FEF776F802460B46C7E91623EC
:10F61800BB689B681846FEF76DF802460B46C7E9BB
:10F628001423BB68DB681846FEF764F802460B46ED
:10F63800C7E91223D7E91823D7E91C01FEF7B2F866
:10F6480002460B4614461D46D7E91623D7E9200182
:10F65800FEF7A8F802460B4620462946FDF7EAFEC3
:10F6680002460B4614461D46D7E91423D7E91E0166
:10F67800FEF798F802460B4620462946FDF7DAFEC3
:10F6880002460B4614461D46D7E91223D7E91A014C
:10F69800FEF788F802460B4620462946FDF7CAFEC3
:10F6A80002460B46C7E91023D7E91623D7E91C0100
:10F6B800FEF778F802460B4614461D46D7E918238C
:10F6C800D7E92001FEF76EF802460B462046294688
:10F6D800FDF7B2FE02460B4614461D46D7E9122333
:10F6E800D7E91E01FEF75EF802460B46204629467A
:10F6F800FDF7A2FE02460B4614461D46D7E9142321
:10F70800D7E91A01FEF74EF802460B46204629466D
:10F71800FDF790FE02460B46C7E90E23D7E91423EE
:10F72800D7E91C01FEF73EF802460B4614461D4673
:10F73800D7E91223D7E92001FEF734F802460B4631
:10F7480020462946FDF776FE02460B4614461D461E
:10F75800D7E91823D7E91E01FEF724F802460B461D
:10F7680020462946FDF768FE02460B4614461D460C
:10F77800D7E91623D7E91A01FEF714F802460B4613
:10F7880020462946FDF758FE02460B46C7E90C23DA
:10F79800D7E91223D7E91C01FEF704F802460B4605
:10F7A80014461D46D7E91423D7E92001FDF7FAFFCF
:10F7B80002460B4620462946FDF73EFE02460B460A
:10F7C80014461D46D7E91623D7E91E01FDF7EAFFBF
:10F7D80002460B4620462946FDF72CFE02460B46FC
:10F7E80014461D46D7E91823D7E91A01FDF7DAFFB1
:10F7F80002460B4620462946FDF71EFE02460B46EA
:10F80800C7E90A23D7E91023D7E91001FDF7CAFF92
:10F8180002460B4614461D46D7E90E23D7E90E01CA
:10F82800FDF7C0FF02460B4620462946FDF704FEB9
:10F8380002460B4614461D46D7E90C23D7E90C01AE
:10F84800FDF7B0FF02460B4620462946FDF7F4FDBA
:10F8580002460B4614461D46D7E90A23D7E90A0192
:10F86800FDF7A0FF02460B4620462946FDF7E4FDBA
:10F8780002460B4643EC172BB0EE470AF0EE670A38
:10F8880060F0B4FB87ED080B6FA3D3E90023D7E939
:10F898000801FEF717FA0346002B3CD0D7E90823E6
:10F8A800D7E91001FEF7A8F802460B46104619469C
:10F8B800FEF750FA02467B681A60D7E90823D7E9B1
:10F8C8000E01FEF799F802460B4610461946FEF758
:10F8D80041FA02467B685A60D7E90823D7E90C0148
:10F8E800FEF78AF802460B4610461946FEF732FA2A
:10F8F80002467B689A60D7E90823D7E90A01FEF730
:10F908007BF802460B4610461946FEF723FA0246D4
:10F918007B68DA6038E00423002B25D061F0AAF96F
:10F92800034683F00103DBB2002B06D0404B1B6873
:10F938001B6803F00703002B16D00123FB77FB7F1E
:10F9480083F00103DBB2002B0ED1394B1968394B18
:10F958000293002301930023009300230122002037
:10F9680061F090F90023BB617B684FF07E521A600A
:10F978007B684FF00002DA607B68DA687B689A601F
:10F988007B689A687B685A60D7E90801FEF7E2F954
:10F9980007EE100AF7EE007A77EE677AF0EEE77A6C
:10F9A800254BC3ED0A7A244BD3ED0A7A9FED237ACF
:10F9B800F4EEC77AF1EE10FA00DC35E00423032BED
:10F9C80032D961F057F9034683F00103DBB2002B0B
:10F9D80006D0174B1B681B6803F00403002B23D0C9
:10F9E8000123FB75FB7D83F00103DBB2002B1BD1E8
:10F9F8000F4B1C68104B9B6A1846FDF77BFE0246AE
:10FA08000B46CDE904230E4B03930E4B02930823B8
:10FA1800019300230093002304222146002061F073
:10FA280031F900233B61FFE700BF8837BD46B0BD11
:10FA3800E025002070B20900B03700200AD7A33BA8
:10FA4800F0D40A00A4B209008DEDB5A0F7C6B03E07
:10FA580080B596B008AFF860B9607A6065F082FE4C
:10FA6800C7E90C01BB68012B07D1D7E90C234C4926
:10FA7800F86867F08AF9002389E07B6804331B681B
:10FA880019464848FEF720FA0346002B14D07B6835
:10FA980004331B6819464448FEF716FA0346002B40
:10FAA8000AD07B6804331B681A464049F86867F037
:10FAB80096F96FF004036AE0D7E90C0136A3D3E99D
:10FAC8000023FEF797F902460B46C7E90A23D7E950
:10FAD8000C0131A3D3E90023FEF78CF9C7E90C2305
:10FAE800D7E90C01324A4FF00003FEF783F90246CA
:10FAF8000B46C7E90823D7E90C012D4A4FF000034C
:10FB0800FEF778F9C7E90C23D7E90C014EF6602215
:10FB18004FF00003FEF76EF902460B46C7E90623CD
:10FB2800D7E90C014EF660224FF00003FEF762F9A8
:10FB3800C7E90C23D7E90C014FF47A724FF00003A0
:10FB4800FEF758F902460B46C7E90423D7E90C012A
:10FB58004FF47A724FF00003FEF74CF9C7E90C2313
:10FB6800D7E90C23CDE90623D7E90423CDE90423FB
:10FB7800D7E90623CDE90223D7E90823CDE90023F5
:10FB8800D7E90A230B49F86867F0FFF800231846FD
:10FB98003837BD4680BD00BF005C26050000000068
:10FBA800B4C90900C8C90900CCC90900D8C90900E5
:10FBB80080EE3600F0C909002DE9F04F476A97B08A
:10FBC8008346209E08910C92129355EC104B8DEDB4
:10FBD800000B7FB910205DF0A1FF0246CBF824008E
:10FBE80020B9A74BEA21A7487AF0C1FFC0E90177FD
:10FBF8000760C760DBF82430196859B15A680123D7
:10FC0800584693404A608B605EF03CFDDBF8243038
:10FC180000221A602B1EB7BF23F0004300230122E5
:10FC28000193A8BF3360019F974BB8BF3260BB43B5
:10FC380019D142F20F73129A1360C7F313032343C7
:10FC480000F0DB85219B53B9904B21E0904B039347
:10FC58000833219A1360039817B0BDE8F08F8B4BD7
:10FC680003930333F5E79DED007B0022002351EC5D
:10FC7800170B8DED0A7BFDF7FDFF804650B1012380
:10FC8800129A1360219B13B1824B219A1360824B05
:10FC98000393E0E7C7F30A5614AA15A958469DED41
:10FCA8000A0B5EF077FF0290002E76D00B9BA6F22F
:10FCB800FF36CDF84C80C3F3130343F07F53DDE9DF
:10FCC8000A0143F4401319460022744BFDF7B2FBB6
:10FCD80065A3D3E90023FDF765FD65A3D3E90023F8
:10FCE800FDF7AAFB04460D463046FDF7F1FC62A37A
:10FCF800D3E90023FDF756FD02460B462046294668
:10FD0800FDF79AFB04460D46FDF7FCFF0022074667
:10FD1800002320462946FDF7B7FF40B13846FDF7D6
:10FD2800D7FC22462B46FDF7A5FF00B9013F162F49
:10FD380052D85B4B03EBC703DDE90A01D3E9002383
:10FD4800FDF7A2FF002849D0013F00231193149B1F
:10FD58009B1B5A1E4CBFC3F101030023079245BFEA
:10FD68000693002306930793002F39DB079B109710
:10FD78003B44079300230993089B092B66D8052B5E
:10FD8800C5BF043B002401240893089B023B032BB6
:10FD980067D8DFE803F02D3A3859DDE914631E44CB
:10FDA80006F23243202BC9BFC3F14003C3F120033D
:10FDB8009F4006F21243D8BF04FA03F006F1FF365B
:10FDC800C4BF24FA03F347EA0300FDF771FC0122DC
:10FDD800A1F1F873139276E70123B7E71190B6E71C
:10FDE800069BDB1B06937B42099300231093C3E712
:10FDF80000230D930C9B002B56DC012399461A46D1
:10FE080004930C920CE00123F3E700230D930C9B61
:10FE1800FB1803F1010904934B46012BB8BF0123DA
:10FE2800DBF824000021042202F114059D423FD989
:10FE3800416058465EF0E6FB039000283BD1194B21
:10FE480002464FF4D571CEE60123DFE701240023F3
:10FE58000D9408934FF0FF33002299460493122320
:10FE6800CFE701230D93F5E761436F63A787D23F7F
:10FE7800B3C8608B288AC63FFB799F501344D33F91
:10FE8800860D0B009D0D0B000000F07F820D0B000E
:10FE9800790D0B00560D0B00550D0B000000F83FB7
:10FEA80040D10A00100E0B000C9B99460493B7E74B
:10FEB80001315200B8E7DBF82430B9F10E0F039A8C
:10FEC8001A606FD8002C6DD0002F36DD07F00F02B6
:10FED800A04BF8054FEA271403EBC20393ED007B10
:10FEE8008DED0E7B17D59C4B04F00F044FF00308E3
:10FEF800D3E90823DDE90A01FDF77EFDCDE900011C
:10FF0800954D5CB9DDE90E23DDE90001FDF774FDCF
:10FF1800CDE900012BE04FF00208F1E7E10709D530
:10FF280008F10108DDE90E01D5E90023FDF73AFCE7
:10FF3800CDE90E0164100835E3E700F007817C4243
:10FF4800844B854D4FF0020804F00F02241103EB97
:10FF5800C203DDE90A01D3E90023FDF723FC0023EE
:10FF6800CDE90001002C40F0E580002BD0D1119B99
:10FF7800DDE90045002B00F04C810022774B20463C
:10FF88002946FDF781FE002800F04381B9F1000FF2
:10FF980000F03F81049B002B00F3E480DDE90A3484
:10FFA800CDE90034159B002B02DB0E2F40F3428273
:10FFB8000D9A002A40F06782099C0025DDF8188018
:10FFC800B8F1000F0DD0079B002B0ADD4345069AB8
:10FFD800A8BF4346D21AA8EB03080692079AD31A79
:10FFE8000793099B0BB30D9B002B00F0A682002CF6
:08FFF80000F0A1822946224617
:020000021000EC
:1000000058465EF06DFC029A0146054658465EF081
:10001000BDFB0299064658465EF038FB099B1B1B48
:10002000099300F09182099A314658465EF058FCD7
:100030000290012158465EF093FB109B0446002B72
:1000400000F084821A46014658465EF049FC089B3F
:100050000446012B03DC009B002B00F07C82002671
:10006000236904EB8303186987F0EBFBC0F12000E0
:100070001096079B184410F01F0000F09182C0F109
:100080002003042B40F38182C0F11C00069B034433
:1000900080440693079B03440793069B002B05DDD2
:1000A0001A46029958465EF075FC0290079B002B99
:1000B00005DD21461A4658465EF06CFC0446119B4D
:1000C000002B00F076822146029887F009FC002878
:1000D00080F26F8200230A22029958465EF0F8FAF5
:1000E0000D9B7E1E0290002B00F05C8200232946AF
:1000F0000A2258465EF0ECFA049B0546002B03DC0E
:10010000089B022B00F35E82B8F1000F05DD294643
:10011000424658465EF03EFC0546109B002B00F020
:10012000D082696858465EF071FA0746002840F0B0
:100130007F820D4B024640F2EA2158E5E20706D5E0
:1001400008F10108D5E90023FDF730FB0123641015
:1001500008350BE74FF002080DE700BF40D10A0059
:1001600018D10A000000F03F100E0B0020460022BC
:10017000AC4B2946FDF71AFB7E1E08F10108049CD2
:10018000CDE900014046FDF7A7FADDE90023FDF7C0
:100190000DFBA54B0022FDF753F9A1F15073CDE9FA
:1001A0000E010F93002C3BD10022A04BDDE9000192
:1001B000FDF744F902460B46CDE90023DDE90E23A5
:1001C000FDF784FD002840F05781DDE90E2101F1A3
:1001D0000043DDE90001FDF75BFD00283FF4E2AEDE
:1001E000002425460C9BDDF80CA0DE434FF00008F0
:1001F000214658465EF04AFA002D00F0A980B8F179
:10020000000F05D0A84503D0414658465EF03EFA9F
:10021000294658465EF03AFA9AE03E464C46B1E727
:10022000834B03EBC40353E90201039B1C440D9B66
:10023000002B4AD002460B4600207E49FDF7E0FB2A
:10024000DDE90E23FDF7FAF8DDF80CA0CDE90E018B
:10025000DDE90001FDF75AFD0546FDF73DFA0246CE
:1002600030350B46DDE90001FDF7E8F80AF8015BDF
:1002700002460B46CDE90001DDE90E01FDF726FD42
:10028000002865D100206C49DDE90023FDF7D6F890
:1002900002460B46DDE90E01FDF718FD002840F08F
:1002A0000D81A24500F0EA8000225E4BDDE90E01DF
:1002B000FDF77CFA00225B4BCDE90E01DDE9000180
:1002C000FDF774FACDE90001C2E7DDE90E23FDF781
:1002D0006DFAA046DDF80CA0CDE90E01DDE90001C4
:1002E000FDF714FD0546FDF7F7F9024630350B46DC
:1002F000DDE90001FDF7A2F80AF8015B02460B46B2
:10030000A245CDE900234FF0000223D1494BDDE99E
:100310000E01FDF795F802460B46DDE90001FDF7F9
:10032000D5FC002840F0CA8000204249DDE90E23B8
:10033000FDF784F802460B46DDE90001FDF7A8FC55
:1003400070B1C24608F1FF381AF8013C302BF8D0E2
:10035000374655E0334BFDF729FACDE90001BDE7FB
:10036000DDE90A34CDE90034159B002BFFF628AEF9
:100370000E2F3FF725AE2E4B03EBC70393ED007B0B
:100380000C9B002B8DED047B02DAB9F1000F64D0D9
:10039000DDF80CA0DDE90045DDE90423204629460F
:1003A000FDF72EFBFDF7B2FC0646FDF795F9DDE9FA
:1003B0000423FDF7FBF90246204606F130040B4604
:1003C0002946FDF73BF80AF8014B039C02460B4611
:1003D000AAEB0404A14540F08280FDF731F8044601
:1003E0000D46DDE90423FDF771FC002865D12046A8
:1003F0002946DDE90423FDF741FC08B1F3075CD48D
:10040000029958465EF042F9002301378AF800301D
:10041000129B1F60219B002B3FF421ACC3F800A06E
:100420001DE400BF0000244000001C4000001440F8
:1004300040D10A000000E03F0000F03FA24B03EB78
:10044000C70393ED007B0C9B002B8DED047B9FDAA3
:10045000B9F1000F9CDC7FF4C3AE00229B4BDDE9B9
:100460000401FDF7A3F9DDE90023FDF725FC0446AF
:1004700000287FF4B5AE3E462546B4E0DDE90A34F7
:10048000CDE90034159B002B01DB0E2FD6DD089A39
:10049000012A36DC139A82B303F23343099CDDF858
:1004A0001880069A012158461A440692079A1A445F
:1004B00007925EF055F9054686E53E4653469A4654
:1004C00013F8012D392A06D1039A9A42F7D1302226
:1004D000039901360A701A7801321A7038E700223F
:1004E0007B4BFDF763F90022002304460D46FDF720
:1004F000C5FB00283FF450AF82E7149BC3F13603DD
:10050000CCE709F1FF34099BA34208DBB9F1000FE6
:10051000A3EB04040EDBDDF818804B46C1E7099B12
:10052000109AE31A0994DDF8188000241A444B4607
:100530001092B6E7069BA3EB09080023B1E7029EE1
:1005400071E5099A029970E5029672E5089B012B04
:1005500017DC009BABB9019BC3F313039BB9019B51
:1005600023F00046360D360536B1069B01260133D1
:100570000693079B01330793109B002B7FF470AD0C
:100580001096012075E50026F6E73FF486AD1C3392
:10059000069A1A4498440692079A1A4407927CE5F0
:1005A0000346F4E7049B002B2BDC089B022B09DCA1
:1005B00027E0B9F1000F1DDC089B022B1ADD3E4637
:1005C000CDF81090049B002B7FF40CAE2146052241
:1005D00058465EF07DF801460446029887F080F99F
:1005E00000287FF7FFADDDF80CA0312301360AF8B3
:1005F000013BFBE50D9B3E46CDF81090002B7FF4B0
:1006000083AD039F2146029887F080F8039B00F199
:100610003009049A07F8019BFB1A9A4240F3CB80F9
:1006200000230A22029958465EF052F80290E9E748
:100630002A6905F10C010C300232920086F0A9FE05
:100640000122394658465EF0A5F9039BA8460546A7
:1006500003F1010ADDE9032313440793009B03F030
:10066000010309930AF1FF3321460298049387F0AE
:100670004DF84146069000F13009029887F030F9B4
:100680002A462146074658465EF0F0F9C268014600
:1006900002B358465DF0FAFF002F3ADA01220299C0
:1006A00058465EF077F92146029087F019F9002844
:1006B00003DC29D119F0010F26D0B9F1390F1DD172
:1006C00032E02846C1E700BF40D10A0000001440D4
:1006D000000024400A90029887F002F90A990C90D1
:1006E00058465DF0D3FF0C9A5ABB089B53B9099B3F
:1006F00043B9B9F1390F17D0002F05DD069B03F17F
:10070000310901E0002F2ADADDF810A00AF8019B78
:100710006EE5089B3B4304D1009B03F00103002BD3
:10072000BCD0B9F1390F36D1049F392307F8013B0A
:10073000BA46013F1AF8013C392B5AD001333B70BD
:1007400056E5002F06DB089B3B4306D1009B03F0D8
:10075000010313B9002AA1DCD6E7002AE1DC079BDC
:1007600057460AF8019C53452ED000230A220299CD
:1007700058465DF0ADFFA84502904FF000034FF0E2
:100780000A02414658460BD15DF0A2FF804605465D
:100790000AF1010A66E7DDF810A009F10109B5E7E1
:1007A0005DF096FF2946804600230A2258465DF0F8
:1007B0008FFF0546ECE7049B4FF00008002BCCBFF1
:1007C0001F460127039B1F440122029958465EF0F1
:1007D000E1F82146029087F083F80028A8DC02D1D6
:1007E00019F0010FA4D1BA4617F8013D302BFAD009
:1007F000FEE4039BBB429BD13123039A0136137065
:10080000F6E4219B002B7FF425AA014BFFF744BAA5
:10081000790D0B0090B58BB000AFF8600B467A6095
:10082000FB72FB689B687B62FB685B683B62FB68F2
:100830001B69FB617B6A9B69002B02D16FF0570338
:100840009BE07B6803F4C003B3F5C00F0ED140F208
:100850007A334C4A4C494D4861F05BFC4C4861F09E
:1008600058FC40F27A3147487AF0F9FC7B6803F48F
:10087000C003002B0ED140F27E33424A4549434823
:1008800061F047FC444861F044FC40F27E313D4851
:100890007AF0E5FC7B6803F48003002B19D07B68B9
:1008A00003F08073002B14D17B6803F0C063B3F1B5
:1008B000C06F0ED140F28133324A3849334861F07B
:1008C00028FC374861F025FC40F281312D487AF050
:1008D000C6FC7B6803F48003002B13D07B6803F015
:1008E000C063002B0ED14FF46273264A2D4927486E
:1008F00061F00FFC2C4861F00CFC4FF46271214850
:100900007AF0ADFC3B6A1A68FB7A012101FA03F325
:100910001340002B0ED140F292331A4A23491B4850
:1009200061F0F7FB224861F0F4FB40F29231154888
:100930007AF095FC7B6803F40003002B0CD0FB6974
:100940001A68FB7A012101FA03F31340002B03D04C
:100950007B6883F0C0637B607A68164B1340BB6191
:100960007B6803F0B0737B617B6A9C69F97ABB6931
:100970007A69F868A04738613B6918462C37BD464C
:1009800090BD00BFC0840900F484090038850900C7
:100990005885090084850900B0850900DC850900B7
:1009A00060860900B48609000087090048870900AD
:1009B000888709004000000680B588B000AFF86065
:1009C0000B467A60FB72FB689B68FB61FB685B68A7
:1009D000BB61FB681B697B617B6803F0FC63002BD8
:1009E0000ED040F2DE336B4A6B496C4861F091FBEC
:1009F0006B4861F08EFB40F2DE3166487AF02FFCE6
:100A00007B6803F03003302B0ED140F2E133614AB2
:100A10006449624861F07DFB634861F07AFB40F213
:100A2000E1315C487AF01BFC7B6803F48033002BD7
:100A300018D07B6803F40033002B13D17B6803F0DC
:100A40000203002B0ED040F2E533524A5749534877
:100A500061F05FFB564861F05CFB40F2E5314D48C8
:100A60007AF0FDFB7B6803F00203002B10D17B685A
:100A700003F00403002B0BD04FF47A73454A4D4921
:100A8000464861F046FB4FF47A7142487AF0E7FB42
:100A90007B6803F44023002B13D07B6803F40033FE
:100AA000002B0ED140F2EB333A4A43493B4861F008
:100AB00030FB424861F02DFB40F2EB3135487AF0D3
:100AC000CEFB7B6803F44023B3F5402F0ED140F2F8
:100AD000EF33304A3A49314861F01BFB394861F045
:100AE00018FB40F2EF312B487AF0B9FB7B6803F436
:100AF0008013002B0DD07B6803F44023002B08D01B
:100B00007B6803F00103002B03D07B6883F4402350
:100B10007B607B6823F480137B60BB691A68FB7A77
:100B2000012101FA03F31340002B0ED140F2FB33F5
:100B3000184A2549194861F0ECFA244861F0E9FAAD
:100B400040F2FB3113487AF08AFB7B6803F0010323
:100B5000002B09D07B691A68FB7A012101FA03F3A3
:100B60001A437B691A6009E07B691A68FB7A0121E4
:100B700001FA03F3DB431A407B691A60FB691B68C7
:100B8000F97A7A68F868984738613B6918462037DF
:100B9000BD4680BDC08409009C87090038850900D6
:100BA000FC870900208809005C8809009C880900EE
:100BB000E48809003489090068890900B0890900BE
:100BC000EC890900308A09004887090088870900F4
:100BD00080B586B000AF78600B46FB707B685B68C1
:100BE0003B613B691A68FB78012101FA03F313406A
:100BF000002B0ED140F23363134A1449144861F0BC
:100C000088FA144861F085FA40F233610E487AF0B0
:100C100026FB07F10C03194678685FF013FC786136
:100C20007B69002B0AD1FB7801229A40FB681340B4
:100C3000002B14BF01230023DBB27B617B691846C4
:100C40001837BD4680BD00BFC08409004887090031
:100C5000388509008887090080B586B000AFF86044
:100C60000B467A60FB72FB685B683B613B691A6804
:100C7000FB7A012101FA03F31340002B0ED140F25D
:100C80006363144A1449154861F043FA144861F04B
:100C900040FA40F263610F487AF0E1FA7B68002B7A
:100CA00009D0FB7A012202FA03F31946F8685FF0D3
:100CB0007BFC786108E0FB7A012202FA03F3194613
:100CC000F8685FF07FFC78617B6918461837BD468D
:100CD00080BD00BFC084090048870900388509002D
:100CE0008887090080B586B000AFF8600B467A604F
:100CF000FB72FB685B687B61FB681B693B617B691E
:100D00001A68FB7A012101FA03F31340002B0ED17C
:100D100040F28C63134A1449144861F0FAF91448FC
:100D200061F0F7F940F28C610E487AF098FA3B696D
:100D30001A68FB7A012101FA03F31340002B06D055
:100D40007B68002B0CBF01230023DBB27B60FB7AA6
:100D50007A681946F868FFF77FFF03461846183788
:100D6000BD4680BDC0840900488709003885090058
:100D70008887090080B584B000AFF860B9607A60F8
:100D8000FB68002B0ED140F2D663144A1449154873
:100D900061F0BFF9144861F0BCF940F2D6610F4828
:100DA0007AF05DFABB68002B0ED140F2D7630B4A94
:100DB0000E490C4861F0ADF90D4861F0AAF940F216
:100DC000D76106487AF04BFAFB68BA685A60FB684C
:100DD0007A689A6000BF1037BD4680BDC0840900A4
:100DE0005C8A090038850900688A0900908A090030
:100DF000988A090080B58CB004AF564B564A1A60E9
:100E0000544B1B6818465FF018FA034683F0010341
:100E1000DBB2002B2BD00323022B25D95FF005FA80
:100E2000034683F00103DBB2002B06D04B4B1B685B
:100E30001B6803F00703022B16D90123FB72FB7A10
:100E400083F00103DBB2002B0ED1444B1968444BF5
:100E50000293002301930023009300230322002028
:100E60005FF0BEFB00237B606FF012036EE0394B36
:100E70001B683C4918465FF0F1FBF861FB69002BE9
:100E80002CD00323022B27D95FF0CFF9034683F040
:100E90000103DBB2002B06D0304B1B681B6803F04C
:100EA0000703022B18D90123FB74FB7C83F0010399
:100EB000DBB2002B10D1294B1968FB6903932A4B35
:100EC00002930023019300230093002303220020B8
:100ED0005FF086FB0023FB60FB6937E01D4B1B685E
:100EE000224918465FF0BAFBF861FB69002B2CD051
:100EF0000323022B27D95FF098F9034683F00103FF
:100F0000DBB2002B06D0154B1B681B6803F00703F0
:100F1000022B18D90123FB76FB7E83F00103DBB2A1
:100F2000002B10D10D4B1968FB690393104B0293F2
:100F300000230193002300930023032200205FF08D
:100F40004FFB00237B61FB6900E00023184620373C
:100F5000BD4680BD9C680020887C090000230020DD
:100F6000D08A090004230020E88A09000C2300200D
:100F70000C8B090080B590B006AF0346FB71FB797E
:100F8000052B07D0052B00F38D80032B31D0042BCC
:100F90005BD087E00323022B27D95FF046F9034695
:100FA00083F00103DBB2002B06D0584B1B681B6893
:100FB00003F00703022B18D9012387F8273097F88D
:100FC000273083F00103DBB2002B0ED14F4B1968A1
:100FD0004F4B02930023019300230093002303222D
:100FE00000205FF0FDFA00233B624A4B01221A7099
:100FF00087E00323022B25D95FF017F9034683F01E
:101000000103DBB2002B06D0404B1B681B6803F0CA
:101010000703022B16D90123FB75FB7D83F0010327
:10102000DBB2002B0ED1394B19683B4B02930023E6
:101030000193002300930023032200205FF0D0FAE5
:1010400000233B6107F094FF5BE00323022B25D9CB
:101050005FF0EBF8034683F00103DBB2002B06D010
:101060002A4B1B681B6803F00703022B16D90123C8
:10107000FB77FB7F83F00103DBB2002B0ED1234B08
:101080001968264B02930023019300230093002349
:10109000032200205FF0A4FA0023BB61204B012251
:1010A0001A702EE00323032B2AD95FF0BEF8034603
:1010B00083F00103DBB2002B06D0144B1B681B68C6
:1010C00003F00403002B1BD00123FB73FB7B83F095
:1010D0000103DBB2002B13D10C4B1968FB7904938D
:1010E000104B0393104B02930823019300230093AA
:1010F0000023042200205FF073FA0023BB60FFE7A7
:1011000000BF00BF2837BD4680BD00BF00230020C0
:10111000308B090081A40020608B0900788B0900C6
:1011200082A4002018D20A00A08B090080B584B0E8
:1011300000AF786039600023FB6010E001210C48AB
:101140005FF0D3F938685FF084F8002108485FF059
:10115000CCF938685FF07DF8FB680133FB60FA6812
:101160007B689A42EADB00BF00BF1037BD4680BDF6
:1011700008D20A0080B58EB004AFF860B9607A601A
:101180005FF0D7F878623E4B1B687A6AD31AC72B98
:1011900072D93B4A7B6A13603A485FF095F903467F
:1011A000012B3CD14FF4FA605FF053F835485FF003
:1011B0008BF90346012B32D10323022B27D95FF091
:1011C00034F8034683F00103DBB2002B06D02E4B2C
:1011D0001B681B6803F00703022B18D9012387F84B
:1011E000233097F8233083F00103DBB2002B0ED1BC
:1011F000254B1968254B029300230193002300938C
:101200000023032200205FF0EBF90023FB61204B59
:1012100001221A7064210520FFF788FF2DE01D4B85
:1012200001221A700323022B27D95EF0FEFF03462A
:1012300083F00103DBB2002B06D0134B1B681B6845
:1012400003F00703022B18D90123FB76FB7E83F002
:101250000103DBB2002B10D10B4B19680E4B02932C
:1012600000230193002300930023032200205FF05A
:10127000B7F900237B6100E000BF2837BD4680BD81
:10128000D068002010D20A0000230020C48B09007F
:1012900082A4002081A40020F48B090080B500AF57
:1012A000104B18465EF0C9FF034683F00103DBB222
:1012B000002B15D10C4B1B78002B14BF01230023EE
:1012C000DBB283F00103DBB203F00103DAB2064BB9
:1012D0001A70054B1B78194604485FF006F900E0C8
:1012E00000BF80BDF87B090080A4002008D20A005E
:1012F00090B59DB008AF78600323022B27D95EF02C
:1013000094FF034683F00103DBB2002B06D0704B41
:101310001B681B6803F00703022B18D9012387F809
:101320003B3097F83B3083F00103DBB2002B0ED14A
:10133000674B1968674B02930023019300230093C6
:101340000023032200205FF04BF90023FB630323FB
:10135000022B43D95EF069FF034683F00103DBB241
:10136000002B06D05A4B1B681B6803F00703022BA7
:1013700034D9012387F8433097F8433083F00103D1
:10138000DBB2002B2AD1524B1C687B681B78002BE8
:1013900001D0514B00E0514B7A681278012A01D9F3
:1013A0004D4A00E04D4A79680978022901D94A4935
:1013B00000E04A497868007806900591049203930A
:1013C000474B029300230193002300930023032241
:1013D000214600205FF004F900237B640323022BE5
:1013E00043D95EF022FF034683F00103DBB2002BFA
:1013F00006D0374B1B681B6803F00703022B34D958
:10140000012387F84A3097F84A3083F00103DBB2B2
:10141000002B2AD12E4B1C687B685B78002B01D0F7
:101420002D4B00E02D4B7A685278012A01D92A4AC7
:1014300000E02A4A79684978022901D9264900E062
:101440002649786840780690059104920393254BCD
:1014500002930023019300230093002303222146DB
:1014600000205FF0BDF80023FB640323022B50D95A
:101470005EF0DBFE034683F00103DBB2002B06D0F7
:10148000134B1B681B6803F00703022B41D9012390
:1014900087F84B3097F84B3083F00103DBB2002B19
:1014A00037D10B4B1C687B689B78002B01D00A4B13
:1014B00000E00A4B7A689278012A01D9064A00E0D6
:1014C000064A7968897802290ED903490DE000BFE0
:1014D000002300201C8C0900388C09003C8C09007A
:1014E000408C09005C8C09007C4978688078069003
:1014F0000591049203937A4B0293002301930023F6
:10150000009300230322214600205FF069F80023A6
:101510007B630323022B27D95EF087FE034683F00B
:101520000103DBB2002B06D06E4B1B681B6803F077
:101530000703022B18D9012387F8333097F833308B
:1015400083F00103DBB2002B0ED1664B1968664BAA
:101550000293002301930023009300230322002021
:101560005FF03EF80023FB627B685B78022B2AD891
:101570000323022B27D95EF058FE034683F00103B4
:10158000DBB2002B06D0574B1B681B6803F0070328
:10159000022B18D9012387F82B3097F82B3083F0D2
:1015A0000103DBB2002B0ED14E4B19684F4B029357
:1015B00000230193002300930023032200205FF007
:1015C0000FF800237B627B689B78022B53D80323A0
:1015D000022B27D95EF029FE034683F00103DBB21C
:1015E000002B06D03F4B1B681B6803F00703022B40
:1015F00018D9012387F8233097F8233083F00103AB
:10160000DBB2002B0ED1374B1968394B0293002304
:101610000193002300930023032200205EF0E0FFEB
:101620000023FB610323022B25D95EF0FEFD034658
:1016300083F00103DBB2002B06D02A4B1B681B682A
:1016400003F00703022B16D90123FB76FB7E83F000
:101650000103DBB2002B0ED1224B1968254B0293FC
:1016600000230193002300930023032200205EF057
:10167000B7FF00237B617B681B78012B29D80323EC
:10168000022B26D95EF0D1FD034683F00103DBB2C5
:10169000002B06D0134B1B681B6803F00703022BBB
:1016A00017D90123FB74FB7C83F00103DBB2002B11
:1016B0000FD10C4B1968104B0293002301930023A8
:1016C00000930023032200205EF08AFF0023FB60CA
:1016D000FFE700BF5437BD4690BD00BF3C8C0900FA
:1016E000788C090000230020948C0900BC8C090030
:1016F000F88C0900388D0900648D090080B598B018
:1017000008AF78605EF015FE7863984B1B687A6BC3
:10171000D31A41F28732934240F29081934A7B6B15
:101720001360002387F83A307B681B78012B07D9B8
:101730007B685B78012B03D97B689B78012B02D8EF
:10174000012387F83A3097F83A30002B00F0C68032
:10175000864B1B7983F00103DBB2002B00F0BE80C7
:10176000834B5B690133824A53610323012B27D9E1
:101770005EF05BFD034683F00103DBB2002B06D075
:101780007C4B1B681B6803F00603002B18D0012359
:1017900087F83B3097F83B3083F00103DBB2002B36
:1017A0000ED1744B1968744B0293002301930023EC
:1017B00000930023022200205EF012FF0023FB634F
:1017C0007868FFF795FD64210320FFF7AFFC674BB6
:1017D00001221A710323022B27D95EF026FD03464E
:1017E00083F00103DBB2002B06D0624B1B681B6841
:1017F00003F00703022B18D9012387F8333097F839
:10180000333083F00103DBB2002B0ED1594B196842
:101810005A4B0293002301930023009300230322D9
:1018200000205EF0DDFE0023FB620323022B27D99C
:101830005EF0FBFC034683F00103DBB2002B06D015
:101840004C4B1B681B6803F00703022B18D90123BC
:1018500087F82B3097F82B3083F00103DBB2002B95
:101860000ED1444B1968464B029300230193002389
:1018700000930023032200205EF0B2FE00237B626F
:101880000323022B40F284805EF0CFFC034683F0FA
:101890000103DBB2002B06D0364B1B681B6803F03C
:1018A0000703022B74D9012387F8233097F82330DC
:1018B00083F00103DBB2002B0FD12E4B1968314BA3
:1018C00002930023019300230093002303220020AE
:1018D0005EF086FE0023FB615AE059E097F83A304B
:1018E00083F00103DBB2002B53D0204B1B79002B7C
:1018F0004FD00323022B25D95EF097FC034683F0DB
:101900000103DBB2002B06D01A4B1B681B6803F0E7
:101910000703022B16D90123FB76FB7E83F001031C
:10192000DBB2002B0ED1134B1968174B0293002327
:101930000193002300930023032200205EF050FE59
:1019400000237B61094B00221A717B681B78022BF4
:101950001FD97B685B78022B1BD97B689B78022B95
:1019600017D90A4B01221A7013E000BF7C680020CF
:101970008468002000230020908D0900B08D0900AC
:10198000E08D0900008E0900288E090082A4002045
:1019900000BF7B681A782B4B5B799A420BD17B682E
:1019A0005A78284B9B799A4205D17B689A78254BC7
:1019B000DB799A4243D00323032B32D95EF035FC06
:1019C000034683F00103DBB2002B06D01E4B1B68DD
:1019D0001B6803F00403002B23D00123FB74FB7C62
:1019E00083F00103DBB2002B1BD1174B19687B6816
:1019F0001B781A467B685B7818467B689B78069351
:101A000005900492114B0393114B02930823019309
:101A1000002300930023042200205EF0E1FD002358
:101A2000FB607B681A78074B5A717B685A78054BC4
:101A30009A717B689A78034BDA7100E000BF4037F7
:101A4000BD4680BD7C680020002300202CD20A0007
:101A5000448E0900F0B5ADF5217D0AAF0023C7F82B
:101A600030320323022B28D95EF0DFFB034683F0DC
:101A70000103DBB2002B06D0B14B1B681B6803F0DF
:101A80000703022B19D9012387F8373297F8373229
:101A900083F00103DBB2002B0FD1A94B1968A94BCE
:101AA00002930023019300230093002303220020CC
:101AB0005EF096FD0023C7F838320323022B28D9A5
:101AC0005EF0B3FB034683F00103DBB2002B06D0CC
:101AD0009B4B1B681B6803F00703022B19D90123DA
:101AE00087F83F3297F83F3283F00103DBB2002BD7
:101AF0000FD1934B1968944B029300230193002359
:101B000000930023032200205EF06AFD0023C7F843
:101B100040320323022B28D95EF087FB034683F073
:101B20000103DBB2002B06D0854B1B681B6803F05A
:101B30000703022B19D9012387F8473297F8473258
:101B400083F00103DBB2002B0FD17D4B19687F4B73
:101B5000029300230193002300930023032200201B
:101B60005EF03EFD0023C7F848320323022B28D93C
:101B70005EF05BFB034683F00103DBB2002B06D073
:101B80006F4B1B681B6803F00703022B19D9012355
:101B900087F84F3297F84F3283F00103DBB2002B06
:101BA0000FD1674B19686A4B0293002301930023FE
:101BB00000930023032200205EF012FD0023C7F8EB
:101BC00050320323022B28D95EF02FFB034683F00B
:101BD0000103DBB2002B06D0594B1B681B6803F0D6
:101BE0000703022B19D9012387F8573297F8573288
:101BF00083F00103DBB2002B0FD1514B1968554B19
:101C0000029300230193002300930023032200206A
:101C10005EF0E6FC0023C7F828320323022B28D904
:101C20005EF003FB034683F00103DBB2002B06D01A
:101C3000434B1B681B6803F00703022B19D90123D0
:101C400087F8273297F8273283F00103DBB2002BA5
:101C50000FD13B4B1968404B0293002301930023A3
:101C600000930023032200205EF0BAFC0023C7F893
:101C700020320323022B28D95EF0D7FA034683F0E3
:101C80000103DBB2002B06D02D4B1B681B6803F051
:101C90000703022B19D9012387F81F3297F81F3247
:101CA00083F00103DBB2002B0FD1254B19682B4BBE
:101CB00002930023019300230093002303220020BA
:101CC0005EF08EFC0023C7F818320323022B28D9BC
:101CD0005EF0ABFA034683F00103DBB2002B06D0C3
