:10C20000405C01207DD90100EDD0010061D9010021
:10C2100061D9010061D9010061D9010061D9010032
:10C220000000000000000000000000005DDB0100D5
:10C2300061D9010000000000A5DA010061D9010008
:10C24000E5DE0100E5DE0100E5DE0100E5DE0100DE
:10C25000E5DE0100E5DE0100E5DE0100E5DE0100CE
:10C26000E5DE0100E5DE0100E5DE0100E5DE0100BE
:10C27000E5DE0100E5DE0100E5DE0100E5DE0100AE
:10C28000E5DE0100E5DE0100E5DE0100E5DE01009E
:10C29000E5DE0100E5DE0100E5DE0100E5DE01008E
:10C2A000E5DE0100E5DE0100E5DE0100E5DE01007E
:10C2B000E5DE0100E5DE0100E5DE0100E5DE01006E
:10C2C000E5DE0100E5DE0100E5DE0100E5DE01005E
:10C2D000E5DE0100E5DE0100E5DE0100E5DE01004E
:10C2E000E5DE0100E5DE0100E5DE0100E5DE01003E
:10C2F000E5DE0100E5DE0100E5DE0100E5DE01002E
:10C30000E5DE0100E5DE0100E5DE0100E5DE01001D
:10C31000E5DE0100E5DE0100E5DE0100E5DE01000D
:10C32000E5DE0100E5DE0100E5DE0100E5DE0100FD
:10C33000E5DE0100E5DE0100E5DE0100E5DE0100ED
:10C34000E5DE0100E5DE0100E5DE0100E5DE0100DD
:04C35000E5DE010025
:10C358002DE9F14F03F11C0402EB840C4FEA930B17
:10C368008A68CB680868496800F046F93CE9F0003B
:10C378006040694072407B400BF1060E4EE083EA54
:10C38800134480EA134582EA134746BA96EA3444CE
:10C39800604000F00F1684EA063420F00F1684EA95
:10C3A800161054BA94EA0106724002F00F1486EA95
:10C3B800043622F00F1486EA14124CBA654069401C
:10C3C80001F00F1485EA043521F00F1485EA1411E1
:10C3D8005CBA67407B4003F00F1487EA043723F008
:10C3E8000F1487EA141344BA44404DBA4D4056BA64
:10C3F80056405FBA5F4087EA174886EA174B84EAD7
:10C4080017464FEA38488BEA1B4485EA1B4788EAF7
:10C418001B4580EA3440694072407B4000F070342C
:10C4280000F0803500F00F3040EA440040EAD500C3
:10C4380080EA900404F0332480EA8400604001F02C
:10C44800703401F0803501F00F3141EA440141EACE
:10C45800D50181EA910404F0332481EA8401614022
:10C4680002F0703402F0803502F00F3242EA4402E2
:10C4780042EAD50282EA920404F0332482EA840272
:10C48800624003F0703403F0803503F00F3343EA61
:10C49800440343EAD50383EA930404F0332483EA8C
:10C4A80084036340C943DB4381EA000483EA04460A
:10C4B80086EA020183EA014382EA334583EA1443A8
:10C4C8005C4084EA00077FEA040A8AEA024A8AEAA8
:10C4D800010B87EA11488AEA374A80EA060181EAAD
:10C4E8001A418AEA030A04EA0A00454088EA04076E
:10C4F80007EA0B0041408AEA0B0608EA060084EACC
:10C5080034428AEA3A4602EA060358404540414026
:10C5180087EA37438BEA3B4003EA000985EA0905C5
:10C5280082EA0309464006EA0906714085EA0100E5
:10C5380005EA3546464006EA314181EA304181EA5A
:10C54800364606EA304686EA354634400F4086EAE3
:10C55800010508EA050886EA3640024088EA02082A
:10C5680081EA314213405C4080EA020309EA030988
:10C5780087EA0907674088EA040806EA0A0601EA22
:10C588000B018AEA0B0425408AEA3A4420404540D8
:10C598008BEA3B4B02EA0B02564084EA0B04234029
:10C5A80059406E40694087EA364080EA384080EA60
:10C5B800060380EA104481EA134585EA344585EA92
:10C5C80017427D4082EA354180EA05403CE9F000A7
:10C5D8006040694072407B40BEF1010E3FF6CFAE2D
:10C5E80020BC00F05FF828606960AA60EB60BDE8D5
:10C5F800F08F00BF00F000BA80EA101404F0F014C5
:10C6080080EA0410604081EA111404F0F01481EA11
:10C618000411614082EA121404F0F01482EA041250
:10C62800624083EA131404F0F01483EA04136340AD
:10C6380080EA102404F47F4480EA0420604081EA00
:10C64800112404F47F4481EA0421614082EA12241F
:10C6580004F47F4482EA0422624083EA132404F447
:10C668007F4483EA0423634081EA500404F055348C
:10C6780080EA4400614083EA520404F0553482EAB7
:10C688004402634082EA900404F0333480EA840070
:10C69800624083EA910404F0333481EA8401634000
:10C6A800704700BF82EA900404F0333480EA8400C3
:10C6B800624083EA910404F0333481EA84016340E0
:10C6C80081EA500404F0553480EA4400614083EA6A
:10C6D800520404F0553482EA4402634080EA10248C
:10C6E80004F47F4480EA0420604081EA112404F4C1
:10C6F8007F4481EA0421614082EA122404F47F44E1
:10C7080082EA0422624083EA132404F47F4483EA21
:10C718000423634080EA101404F0F01480EA041043
:10C72800604081EA111404F0F01481EA04116140B8
:10C7380082EA121404F0F01482EA0412624083EAD6
:10C74800131404F0F01483EA04136340704700BF25
:10C758002DE9F14F94464FEA930B8A68CB68086835
:10C768004968FFF749FF0BF1060E33E083EA1344EB
:10C7780080EA134582EA134746BA96EA3444604091
:10C7880000F00F1684EA063420F00F1684EA16101B
:10C7980054BA94EA0106724002F00F1486EA04368D
:10C7A80022F00F1486EA14124CBA6540694001F071
:10C7B8000F1485EA043521F00F1485EA14115CBAC8
:10C7C80067407B4003F00F1487EA043723F00F1407
:10C7D80087EA1413BCE8F0006040694072407B406F
:10C7E80000F0E03400F0103500F00F3040EA54005B
:10C7F80040EAC50080EA900404F0332480EA84000B
:10C80800604001F0E03401F0103501F00F3141EAE9
:10C81800540141EAC50181EA910404F0332481EA14
:10C828008401614002F0E03402F0103502F00F326A
:10C8380042EA540242EAC50282EA920404F033242E
:10C8480082EA8402624003F0E03403F0103503F01A
:10C858000F3343EA540343EAC50383EA930404F01D
:10C86800332483EA8403634081EA324787EA134525
:10C8780081EA354690EA060484EA034B82EA1B42C1
:10C8880080EA044484EA054483EA144A85EA1444A5
:10C898008BEA044B84EA374481EA0B4181EA16416A
:10C8A80004EA0A00454082EA04082BEA08004140ED
:10C8B8008AEA0B0602EA060084EA34438AEA3A4620
:10C8C80003EA060778404540414088EA38478BEA42
:10C8D8003B4007EA000985EA090583EA070946405B
:10C8E80006EA0906714085EA010005EA3546464030
:10C8F80006EA314181EA304181EA364606EA3046A5
:10C9080086EA3546344008EA010886EA01052A40E5
:10C9180086EA364003405A4081EA31431F407C4052
:10C9280080EA030709EA070988EA0908544088EAFF
:10C93800020806EA0A0601EA0B018AEA0B02154018
:10C948008AEA3A42104045408BEA3B4003405E4049
:10C958004240174079404D404E40E443F64386EA52
:10C9680018435D4085EA054083EA134386EA03419C
:10C9780083EA384284EA114383EA04435FEA334393
:10C98800BEF1010E3FF6F2AE1ED4BCE8F0006040E6
:10C99800694072407B4020BCFFF784FE28606960D4
:10C9A800AA60EB60BDE8F08F2DE9E0414FF2F0029C
:10C9B80080EA1031114080EA01304840410882087D
:10C9C800C3084FF0000E4FE700F0113001F01131AD
:10C9D80002F0113203F0113340EA410040EA8200CC
:10C9E80040EAC3004FF2F00280EA1031114080EAB9
:10C9F80001304840BDE8E0812DE9F04F02F11C0507
:10CA08000646074600EB850851F8040B043A46F839
:10CA1800040BF9D14FF0010CFFF7C6FF5FEA302095
:10CA280080EA0C001ECF41404A4053405C401EC67D
:10CA38002000464517D04FEA4C0C1CF4807F18BFE5
:10CA4800ACF1E50C2C2DE7D03C2D06D1FFF7ACFF5F
:10CA580006CF41404A4006C6100006CF41404A4032
:10CA680006C61000D8E736E90F00FFF7C5FD043DFC
:10CA780086E80F00F7D1BDE8F08F00BF2DE9F00779
:10CA880091E8F807B2E802105B1854EB0C04B2E81E
:10CA980002104D4156EB0C06B2E802104F4158EB1C
:10CAA8000C08B2E8021059EB01095AEB0C0A80E8AD
:10CAB800F80780410130BDE8F00770472DE9F0071D
:10CAC80091E8F807B2E802105B1A74EB0C04B2E8BC
:10CAD80002108D4176EB0C06B2E802108F4178EB1C
:10CAE8000C08B2E8021079EB01097AEB0C0A80E82D
:10CAF800F80780414042BDE8F00770472DE9F0078C
:10CB0800524290E87800B1E880071740DB1918EA2C
:10CB1800020854EB080419EA020955EB09051AEA58
:10CB2800020A56EB0A0678C090E87800B1E8800758
:10CB380017407B4118EA020854EB080419EA020975
:10CB480055EB09051AEA020A56EB0A0678C0804135
:10CB58000130BDE8F00770472DE9F007524290E830
:10CB68007800B1E880071740DB1B18EA020874EB6D
:10CB7800080419EA020975EB09051AEA020A76EBB4
:10CB88000A0678C090E87800B1E880071740BB41F2
:10CB980018EA020874EB080419EA020975EB09059A
:10CBA8001AEA020A76EB0A0678C080414042BDE8DC
:10CBB800F00770472DE9F00152424FF0040890E861
:10CBC800300091E8C000A31B1340E41AF618EB1BD1
:10CBD8001340ED1AFF1830C0C0C1B8F10108EED1FA
:10CBE800BDE8F001704700BF00B592EC080AB1E853
:10CBF800805707EE101A53EC102A56EC114AA7FB7F
:10CC08000251A8FB020BE7FB6310E9FB62B041ECA1
:10CC1800145AA8FB0351EAFB6201E7FB64B5E7FB82
:10CC28006605E8FB661505EE10BAA9FB03B6EAFB34
:10CC38006316ECFB6356E8FB640BE9FB641BEAFB39
:10CC4800645BECFB646B05EE900AACFB023012EE01
:10CC5800104AEEFB6250E9FB6460EAFB64B0E7FB54
:10CC68006431E8FB645112EE904AE8FB6461E9FB29
:10CC780064B1EAFB640106EE103AA7FB043213EE36
:10CC8800104AE7FB6462E8FB64B2E9FB6402EAFB72
:10CC9800641211EE904AE9FB6453EAFB646313EEF5
:10CCA800904AE7FB64B3E8FB6403E9FB6413EAFB1F
:10CCB800642306EE905A17EE109A99E8000610EED3
:10CCC800108AA9FB0854EAFB68B412EE108AECFB40
:10CCD8006804EEFB6814E9FB6824EAFB683410EE8C
:10CCE800908AEEFB6865E9FB68B5EAFB680512EE19
:10CCF800908AECFB6815EEFB6825E9FB6835EAFBD2
:10CD0800684507EE106A11EE108AAEFB0876E9FB5B
:10CD18006806EAFB681613EE108AECFB6826EEFB41
:10CD28006836E9FB6846EAFB685611EE908AECFB28
:10CD380068B7EEFB6807E9FB6817EAFB682713EE9C
:10CD4800908AECFB6837EEFB6847E9FB6857EAFB1B
:10CD5800686700BD2DE9F04F07EE900AFFF744FF22
:10CD680017EE908A07EE90BAA8EC084A88E8FF0008
:10CD7800BDE8F08F00B591E89857A3FB0352A3FBD9
:10CD88000401E3FB6420E3FB671042EC145AA3FBA5
:10CD98000752E3FB6802E4FB6415E3FB6805E3FB69
:10CDA8006925A4FB07B6E3FB6926E3FB6A56E4FBA7
:10CDB800670BE4FB682BE3FB6A5BE3FB6C6B40EC03
:10CDC800151AA4FB0810E4FB6950E3FB6C60E3FB55
:10CDD8006EB0E7FB6721E4FB6951E4FB6A61E3FBA2
:10CDE8006EB1E4FB6E0106EE102AA7FB0832E4FBE5
:10CDF8006A62E4FB6CB2E4FB6E02E7FB6E12E7FBCF
:10CE08006853E7FB6963E4FB6CB3E7FB6C03E7FB80
:10CE18006E13E8FB6E2306EE905AA7FB0954E7FB56
:10CE28006AB4E7FB6C04E8FB6C14E8FB6E24E9FBCE
:10CE38006E34E8FB6865E7FB6AB5E8FB6A05E8FB62
:10CE48006C15E9FB6C25E9FB6E35EAFB6E4507EED0
:10CE5800106AA8FB0976E8FB6A06E9FB6A16E9FB93
:10CE68006C26EAFB6C36EAFB6E46ECFB6E56E8FB7A
:10CE780069B7E9FB6907E9FB6A17EAFB6A27EAFB76
:10CE88006C37ECFB6C47ECFB6E57EEFB6E6700BD36
:10CE98002DE9F04F07EE900AFFF76CFF17EE908A26
:10CEA80007EE90BAA8EC084A88E8FF00BDE8F08FC2
:10CEB80030B44FF0000310F8014B11F8015B013A50
:10CEC80084EA050443EA0403F5D1A3F101034FEA18
:10CED800D37030BC704700BF4FF0000310F8012B2F
:10CEE800013943EA0203F9D1A3F101034FEAD370F0
:10CEF800704700BF30B411F8014B12F8015B6C4069
:10CF080000F8014B013BF6D130BC70472DE9F04FDA
:10CF180090E8F00F00F140004FF0040E59E0F0B433
:10CF2800826BC36B04680525242687593C444FEA65
:10CF3800724787EAF24787EA92273C4442684FEAF9
:10CF4800F21787EAB24787EAD2073C4440F8044B15
:10CF5800032D08BF6FF01B0687593A444FEA734701
:10CF680087EAF34787EA93273A4443684FEAF31777
:10CF780087EAB34787EAD3073A4440F8042B87592E
:10CF88003B444FEA744787EAF44787EA94273B44CF
:10CF980044684FEAF41787EAB44787EAD4073B4462
:10CFA80040F8043B013DC0D1A0F13C00076A3C4475
:10CFB8004FEA724787EAF24787EA92273C440268B9
:10CFC8004FEAF21787EAB24787EAD2073C44C463BC
:10CFD800F0BC4FF0020288EA781C8CEAF84C0BEBA4
:10CFE800BC1C8AEA090303EA080383EA0A039C448F
:10CFF80050F8043B9C4451F8043B9C44674444EA81
:10D00800050B0BEA060B04EA05034BEA030BE344A2
:10D0180084EAF42383EA34530BEBB30B87EA771CD7
:10D028008CEAF74C0AEBBC1C89EA080303EA0703FD
:10D0380083EA09039C4450F8043B9C4451F8043BA0
:10D048009C4466444BEA040A0AEA050A0BEA04030C
:10D058004AEA030AE2448BEAFB2383EA3B530AEBDE
:10D06800B30A86EA761C8CEAF64C09EBBC1C88EA03
:10D07800070303EA060383EA08039C4450F8043BC9
:10D088009C4451F8043B9C4465444AEA0B0909EA6C
:10D0980004090AEA0B0349EA0309E1448AEAFA2384
:10D0A80083EA3A5309EBB30985EA751C8CEAF54C17
:10D0B80008EBBC1C87EA060303EA050383EA0703B7
:10D0C8009C4450F8043B9C4451F8043B9C44644401
:10D0D80049EA0A0808EA0B0809EA0A0348EA0308C1
:10D0E800E04489EAF92383EA395308EBB30884EA70
:10D0F800741C8CEAF44C07EBBC1C86EA050303EAB3
:10D10800040383EA06039C4450F8043B9C4451F80A
:10D11800043B9C44E34448EA090707EA0A0708EA8B
:10D12800090347EA0307674488EAF82383EA385380
:10D1380007EBB3078BEA7B1C8CEAFB4C06EBBC1CA9
:10D1480085EA040303EA0B0383EA05039C4450F8C9
:10D15800043B9C4451F8043B9C44E24447EA0806DB
:10D1680006EA090607EA080346EA0306664487EA68
:10D17800F72383EA375306EBB3068AEA7A1C8CEA6C
:10D18800FA4C05EBBC1C84EA0B0303EA0A0383EAA6
:10D1980004039C4450F8043B9C4451F8043B9C44D1
:10D1A800E14446EA070505EA080506EA070345EAF1
:10D1B8000305654486EAF62383EA365305EBB3058F
:10D1C80089EA791C8CEAF94C04EBBC1C8BEA0A034B
:10D1D80003EA090383EA0B039C4450F8043B9C448C
:10D1E80051F8043B9C44E04445EA060404EA070479
:10D1F80005EA060344EA0304644485EAF52383EA5E
:10D20800355304EBB304013A7FF4E5AEA0F14000D6
:10D21800BEF1010E7FF483AEA0F1400C9CE80F0034
:10D22800001949199219DB19ACE80F009CE80F00A6
:10D238004044494452445B44ACE80F00BDE8F08FD9
:10D248002DE9F00791E8F807B2E802105B1854EBF3
:10D258000C04B2E802104D4156EB0C06B2E802107D
:10D268004F4158EB0C08B2E8021059EB01095AEB90
:10D278000C0A8941B3F1FF3374F1FF3475F1FF35BE
:10D2880076F1000677F1000778F1000879F10109D5
:10D298007AF1FF3A51F100015B184C414D4156F1CA
:10D2A800000657F1000758F1000859EBD1795AEBFD
:10D2B800010A80E8F807BDE8F00770472DE9F00794
:10D2C80091E8F807B2E802105B1A74EB0C04B2E8B4
:10D2D80002108D4176EB0C06B2E802108F4178EB14
:10D2E8000C08B2E8021079EB01097AEB0C0A8941C3
:10D2F8005B184C414D4156F1000657F1000758F1B3
:10D30800000859EBD1795AEB010A80E8F807BDE823
:10D31800F007704718EB040859EB05095AEB060AA1
:10D328005BEB070B5FF0000C4CF1000C18EB0508E9
:10D3380059EB06095AEB070A5BEB070B50EB0C009D
:10D348005FF0000C51EB0C0152EB0C0263414CF105
:10D35800000CB8EB070879F100097AF1000A7BEBB9
:10D36800040BA841B141A241B3416CF1000CBBEBE5
:10D37800050BB041B941AA41BB416CF1000C4CF01E
:10D3880001068CF0020718EB060859EB6C095AEBFA
:10D398006C0A7BEB6C0B70EB6C0471EB6C0572EB3D
:10D3A800670653EB6C076CEB6C0C18EB0C0059EB35
:10D3B8000C015AEB0C025BF1000354F1000455F127
:10D3C800000556EBDC7657EB0C0770472DE9F04F5C
:10D3D80007EE900AFFF708FC59EC168A17EE10AA18
:10D3E800FFF798FF59EC148A5BEC15AAFFF792FF38
:10D3F80017EE908A88E8FF00BDE8F08F2DE9F04F1E
:10D4080007EE900AFFF7B6FC59EC168A17EE10AA39
:10D41800FFF780FF59EC148A5BEC15AAFFF77AFF37
:10D4280017EE908A88E8FF00BDE8F08F81F0004190
:10D4380002E000BF83F0004330B54FEA41044FEAF1
:10D44800430594EA050F08BF90EA020F1FBF54EA8C
:10D45800000C55EA020C7FEA645C7FEA655C00F028
:10D46800E2804FEA5454D4EB5555B8BF6D420CDDF9
:10D478002C4480EA020281EA030382EA000083EA7C
:10D48800010180EA020281EA0303362D88BF30BD1C
:10D4980011F0004F4FEA01314FF4801C4CEA113172
:10D4A80002D0404261EB410113F0004F4FEA0333D1
:10D4B8004CEA133302D0524263EB430394EA050F5C
:10D4C80000F0A780A4F10104D5F1200E0DDB02FACB
:10D4D8000EFC22FA05F2801841F1000103FA0EF25F
:10D4E800801843FA05F359410EE0A5F120050EF125
:10D4F800200E012A03FA0EFC28BF4CF0020C43FA56
:10D5080005F3C01851EBE37101F0004507D54FF062
:10D51800000EDCF1000C7EEB00006EEB0101B1F5B2
:10D52800801F1BD3B1F5001F0CD349085FEA3000F8
:10D538004FEA3C0C04F101044FEA445212F5800F03
:10D5480080F09A80BCF1004F08BF5FEA500C50F1A0
:10D55800000041EB045141EA050130BD5FEA4C0C83
:10D56800404141EB0101013C28BFB1F5801FE9D2E0
:10D5780091F0000F04BF01460020B1FA81F308BF03
:10D588002033A3F10B03B3F120020CDA0C3208DDCF
:10D5980002F1140CC2F10C0201FA0CF021FA02F1AA
:10D5A8000CE002F11402D8BFC2F1200C01FA02F11A
:10D5B80020FA0CFCDCBF41EA0C019040E41AA2BF3F
:10D5C80001EB0451294330BD6FEA04041F3C1CDA07
:10D5D8000C340EDC04F11404C4F1200220FA04F027
:10D5E80001FA02F340EA030021FA04F345EA0301D1
:10D5F80030BDC4F10C04C4F1200220FA02F001FA93
:10D6080004F340EA0300294630BD21FA04F0294614
:10D6180030BD94F0000F83F4801306BF81F48011AD
:10D628000134013D4EE77FEA645C18BF7FEA655C20
:10D6380029D094EA050F08BF90EA020F05D054EAF2
:10D64800000C04BF1946104630BD91EA030F1EBFF7
:10D658000021002030BD5FEA545C05D140004941FB
:10D6680028BF41F0004130BD14F580043CBF01F5EE
:10D67800801130BD01F0004545F0FE4141F47001D4
:10D688004FF0000030BD7FEA645C1ABF19461046AF
:10D698007FEA655C1CBF0B46024650EA013406BFB0
:10D6A80052EA033591EA030F41F4002130BD00BF6F
:10D6B80090F0000F04BF0021704730B54FF480642C
:10D6C80004F132044FF000054FF0000150E700BFAD
:10D6D80090F0000F04BF0021704730B54FF480640C
:10D6E80004F1320410F0004548BF40424FF00001F9
:10D6F8003EE700BF42004FEAE2014FEA31014FEA3C
:10D7080002701FBF12F07F4393F07F4F81F060518A
:10D71800704732F07F4208BF704793F07F4F04BFD5
:10D7280041F40021704730B54FF4607401F00045B2
:10D7380021F000411CE700BF50EA010208BF704712
:10D7480030B54FF000050AE050EA010208BF704703
:10D7580030B511F0004502D5404261EB41014FF46C
:10D76800806404F132045FEA915C3FF4D8AE4FF074
:10D7780003025FEADC0C18BF03325FEADC0C18BF57
:10D78800033202EBDC02C2F1200300FA03FC20FAA8
:10D7980002F001FA03FE40EA0E0021FA02F11444F5
:10D7A800BDE600BF70B54FF0FF0C4CF4E06C1CEA0E
:10D7B80011541DBF1CEA135594EA0C0F95EA0C0F7F
:10D7C80000F0DEF82C4481EA030621EA4C5123EAF2
:10D7D8004C5350EA013518BF52EA033541F4801121
:10D7E80043F4801338D0A0FB02CE4FF00005E1FBD4
:10D7F80002E506F00042E0FB03E54FF00006E1FB1E
:10D8080003569CF0000F18BF4EF0010EA4F1FF0460
:10D81800B6F5007F64F5407404D25FEA4E0E6D41A0
:10D8280046EB060642EAC62141EA55514FEAC520B1
:10D8380040EA5E504FEACE2EB4F1FD0C88BFBCF52D
:10D84800E06F1ED8BEF1004F08BF5FEA500E50F1DE
:10D85800000041EB045170BD06F0004646EA0101A4
:10D8680040EA020081EA0301B4EB5C04C2BFD4EBD6
:10D878000C0541EA045170BD41F480114FF0000ECF
:10D88800013C00F3AB8014F1360FDEBF002001F03D
:10D89800004170BDC4F10004203C35DA0C341BDCB7
:10D8A80004F11404C4F1200500FA05F320FA04F089
:10D8B80001FA05F240EA020001F0004221F00041BD
:10D8C80010EBD37021FA04F642EB06015EEA430E30
:10D8D80008BF20EAD37070BDC4F10C04C4F1200560
:10D8E80000FA04F320FA05F001FA04F240EA020013
:10D8F80001F0004110EBD37041F100015EEA430EE4
:10D9080008BF20EAD37070BDC4F1200500FA05F203
:10D918004EEA020E20FA04F301FA05F243EA020382
:10D9280021FA04F001F0004121FA04F220EA020091
:10D9380000EBD3705EEA430E08BF20EAD37070BDD7
:10D9480094F0000F0FD101F00046400041EB0101B7
:10D9580011F4801F08BF013CF7D041EA060195F099
:10D96800000F18BF704703F00046520043EB030353
:10D9780013F4801F08BF013DF7D043EA0603704740
:10D9880094EA0C0F0CEA135518BF95EA0C0F0CD04B
:10D9980050EA410618BF52EA4306D1D181EA030191
:10D9A80001F000414FF0000070BD50EA410606BF8B
:10D9B8001046194652EA430619D094EA0C0F02D1D0
:10D9C80050EA013613D195EA0C0F05D152EA033615
:10D9D8001CBF104619460AD181EA030101F0004133
:10D9E80041F0FE4141F470014FF0000070BD41F07C
:10D9F800FE4141F4780170BD70B54FF0FF0C4CF456
:10DA0800E06C1CEA11541DBF1CEA135594EA0C0F74
:10DA180095EA0C0F00F0A7F8A4EB050481EA030EC1
:10DA280052EA03354FEA013100F088804FEA0333A8
:10DA38004FF0805545EA131343EA12634FEA022276
:10DA480045EA111545EA10654FEA00260EF0004137
:10DA58009D4208BF964244F1FD0404F5407402D289
:10DA68005B084FEA3202B61A65EB03055B084FEA1A
:10DA780032024FF480104FF4002CB6EB020E75EB17
:10DA8800030E22BFB61A754640EA0C005B084FEA3F
:10DA98003202B6EB020E75EB030E22BFB61A7546BC
:10DAA80040EA5C005B084FEA3202B6EB020E75EB07
:10DAB800030E22BFB61A754640EA9C005B084FEA7F
:10DAC8003202B6EB020E75EB030E22BFB61A75468C
:10DAD80040EADC0055EA060E18D04FEA051545EA7B
:10DAE80016754FEA06164FEAC30343EA52734FEA24
:10DAF800C2025FEA1C1CC0D111F4801F0BD141EA9D
:10DB080000014FF000004FF0004CB6E711F4801F01
:10DB180004BF01430020B4F1FD0C88BFBCF5E06FE1
:10DB28003FF6AFAEB5EB030C04BFB6EB020C5FEAF1
:10DB3800500C50F1000041EB045170BD0EF0004E46
:10DB48004EEA113114EB5C04C2BFD4EB0C0541EA78
:10DB5800045170BD41F480114FF0000E013C90E675
:10DB680045EA060E8DE60CEA135594EA0C0F08BF39
:10DB780095EA0C0F3FF43BAF94EA0C0F0AD150EA38
:10DB880001347FF434AF95EA0C0F7FF425AF1046CB
:10DB980019462CE795EA0C0F06D152EA03353FF4F3
:10DBA800FDAE1046194622E750EA410618BF52EA70
:10DBB80043067FF4C5AE50EA41047FF40DAF52EA44
:10DBC80043057FF4EBAE12E74FF0FF3C06E000BFE1
:10DBD8004FF0010C02E000BF4FF0010C4DF804CDEE
:10DBE8004FEA410C7FEA6C5C4FEA430C18BF7FEAAE
:10DBF8006C5C1BD001B050EA410C0CBF52EA430CDC
:10DC080091EA030F02BF90EA020F0020704710F15B
:10DC1800000F91EA030F58BF994208BF90422CBFEA
:10DC2800D8176FEAE37040F0010070474FEA410CE3
:10DC38007FEA6C5C02D150EA013C07D14FEA430C01
:10DC48007FEA6C5CD6D152EA033CD3D05DF8040B72
:10DC5800704700BF8446104662468C4619466346A4
:10DC680000E000BF01B5FFF7B7FF002848BF10F17B
:10DC7800000F01BD4DF808EDFFF7F4FF0CBF0120C0
:10DC880000205DF808FB00BF4DF808EDFFF7EAFF3C
:10DC980034BF012000205DF808FB00BF4DF808EDF7
:10DCA800FFF7E0FF94BF012000205DF808FB00BFEC
:10DCB8004DF808EDFFF7CEFF94BF012000205DF876
:10DCC80008FB00BF4DF808EDFFF7C4FF34BF012083
:10DCD80000205DF808FB00BF4FEA410C7FEA6C5C4E
:10DCE80002D150EA013C0AD14FEA430C7FEA6C5C4E
:10DCF80002D152EA033C02D14FF0000070474FF0C6
:10DD0800010070474FEA410212F5001215D211D5F1
:10DD18006FF47873B3EB625212D94FEAC12343F020
:10DD2800004343EA505311F0004F23FA02F018BFA2
:10DD3800404270474FF00000704750EA013005D16B
:10DD480011F0004008BF6FF0004070474FF000002E
:10DD5800704700BF4FEA4102B2F1E04324BFB3F578
:10DD6800001CDCF1FE5C0DD901F0004C4FEAC0024A
:10DD78004CEA5070B2F1004F40EB830008BF20F02E
:10DD88000100704711F0804F21D113F13872BCBFE8
:10DD980001F00040704741F480114FEA5252C2F13D
:10DDA8001802C2F1200C10FA0CF320FA02F018BF86
:10DDB80040F001004FEAC1234FEAD32303FA0CFCD9
:10DDC80040EA0C0023FA02F34FEA4303CCE77FEA68
:10DDD800625307D150EA01331EBF4FF0FE4040F4B2
:10DDE8004000704701F0004040F0FE4040F4000061
:10DDF800704700BF7BB972B90029BEBF00204FF041
:10DE0800004106E008BF00281CBF6FF000414FF03A
:10DE1800FF3000F057B8ADF1080C6DE904CE0029C9
:10DE280009DB002B1ADB00F061F8DDF804E0DDE91E
:10DE3800022304B07047404261EB4101002B1BDB19
:10DE480000F054F8DDF804E0DDE9022304B04042B4
:10DE580061EB4101524263EB43037047524263EB6B
:10DE6800430300F043F8DDF804E0DDE9022304B0E1
:10DE7800404261EB41017047524263EB430300F0BB
:10DE880035F8DDF804E0DDE9022304B0524263EB23
:10DE98004303704753B94AB9002908BF00281CBF7B
:10DEA8004FF0FF314FF0FF3000F00CB8ADF1080C27
:10DEB8006DE904CE00F01AF8DDF804E0DDE902238C
:10DEC80004B07047704700BF10F8012B11F8013BF0
:10DED800012A28BF9A42F7D0D01A7047034613F890
:10DEE800012B002AFBD1181A013870472DE9F04799
:10DEF80086468C460846089E154674461946002BE9
:10DF080040F0C1808542B2FA82F245D94AB1C2F1E5
:10DF1800200300FA02FC954094402EFA03F343EAEA
:10DF28000C0C4FEA154EA8B2230CBCFBFEF80EFBF6
:10DF380018CC08FB00F943EA0C43994528D9EB189B
:10DF480008F1FF3704D2994502D9A8F102072B44FA
:10DF5800A3EB0903A4B2B3FBFEFC0EFB1C330CFBC2
:10DF680000F044EA0344A04214D92C190CF1FF3301
:10DF780004D2A04202D9ACF102032C44241A43EA89
:10DF880007401EB1D440002334607360BDE8F087B9
:10DF98004746DDE76346F1E792BB431B01214FEAA1
:10DFA800154EAFB2200CB3FBFEFC0EFB1C330CFB72
:10DFB80007F840EA0343984561D9EB180CF1FF30A4
:10DFC80004D2984502D9ACF102002B44A3EB080314
:10DFD800A4B2B3FBFEFC0EFB1C330CFB07F744EAB0
:10DFE8000344A7424DD92C190CF1FF3304D2A742A0
:10DFF80002D9ACF102032C44E41B43EA0040C0E719
:10E00800C2F120039540944020FA03F12EFA03F35D
:10E018004FEA154E9040AFB20343B1FBFEFC0EFB36
:10E028001C10190C0CFB07F841EA0041884522D95D
:10E0380069180CF1FF3004D2884502D9ACF102000E
:10E048002944A1EB08019BB2B1FBFEFC0EFB1C119D
:10E058000CFB07F743EA01439F420ED9EB180CF17A
:10E06800FF3104D29F4202D9ACF102012B44DB1BE1
:10E0780041EA004193E76046E3E76146F7E7604617
:10E08800A4E76346B8E7834206D916B900210846D3
:10E098007CE7C6E900E0F9E7B3FA83F78FB9834272
:10E0A80001D3724508D8BEEB020460EB03030120DC
:10E0B8009C461EB9002169E73846FAE7C6E9004CD4
:10E0C800F8E7C7F1200CBB400EFA07F522FA0CF46A
:10E0D8002EFA0CF1BA401C4320FA0CF3B8404FEA70
:10E0E800144901431FFA84FEB3FBF9F809FB183001
:10E0F8000B0C08FB0EFA43EA00439A4540D9E31893
:10E1080008F1FF3004D29A4502D9A8F1020023444D
:10E11800A3EB0A0389B2B3FBF9F809FB183308FB30
:10E128000EFE41EA03418E452CD9611808F1FF33F0
:10E1380004D28E4502D9A8F10203214443EA0040E3
:10E14800A1EB0E01A0FB02984145CE46434602D3FF
:10E1580006D14D4504D20138B9EB020E68EB040331
:10E16800002EA7D0B5EB0E0261EB030101FA0CFCFF
:10E1780022FA07F3F9404CEA0303C6E9003199E7AC
:10E188004046C5E74346D9E708B5FFF7A1FA0AA311
:10E19800D3E90023FFF706FBFFF7B4FDB0F57A7F5C
:10E1A80002DC002803DB08BD4FF47A70FBE700208F
:10E1B800F9E700BFAFF300809A9999999999B93F07
:10E1C800002800F08D8030B52DED028B85B00C460F
:10E1D8000546002979D0694606F032FD9DED008A92
:10E1E80068EE087A9DED017A27EE077A77EE877A4E
:10E1F8009DED027A27EE077A77EE877A9DED030A7E
:10E2080020EE000A37EE800A33F01AFDF7EE007AA6
:10E2180030EE670AB0EEC00ADFED357AB4EEE70AF1
:10E22800F1EE10FA0DDD334B9A6801329A60D3EDA6
:10E23800037AB4EEE70AF1EE10FA06DD83ED030A7D
:10E2480003E02C4A53680133536084ED008A019B34
:10E258006360029BA360039BE36095ED047ADFEDA6
:10E26800267AB4EEE77AF1EE10FA32D86869FFF749
:10E2780041FA1DA3D3E90023FFF794FA00221F4BAC
:10E28800FFF7BAFBFFF766FD2061A869FFF732FACE
:10E2980015A3D3E90023FFF785FA0022174BFFF7F0
:10E2A800ABFBFFF757FD60612869FFF723FA0EA360
:10E2B800D3E90023FFF776FA0022104BFFF79CFB07
:10E2C800FFF748FDA0616B6CE36105B0BDEC028B04
:10E2D80030BD6B692361AB6963612B69A361F2E7A8
:10E2E800704700BFAFF30080182D4454FB2109404C
:10E2F8000AD7233C506700200000B44300806640E2
:10E308002DE9F04F2DED0E8BA5B000AFBA4B1B6871
:10E3180003F00703022B07D84FF47A7033F0ACFDF3
:10E328004FF0000A544614E0B44A0321B24835F0CD
:10E33800C0FBF1E7B24B00221A7003F08BFA0CE035
:10E34800B04B00221A7003F099F90AE00A2033F062
:10E3580093FDAB4B1B78002BECD1AA4B1B78002B01
:10E36800EED107F1480005F067F8034650B1A24A1C
:10E37800126812F0070FE9D0A34A01219E4835F030
:10E38800A2FBE3E7A14A13680133136007F1880091
:10E3980003F0BCF907F1280107F14800FFF710FF67
:10E3A8009FED9B8AD7ED0E7A67EE887A17EE900A72
:10E3B800FFF7A0F98EA3D3E90023FFF71DFBFFF7B2
:10E3C800C9FC08EE900AD7ED0F7A67EE887A17EE47
:10E3D800900AFFF78FF986A3D3E90023FFF70CFB18
:10E3E800FFF7B8FC0646D7ED107A67EE887A17EE85
:10E3F800900AFFF77FF97EA3D3E90023FFF7FCFA21
:10E40800FFF7A8FC054604F09FFC68B90134632CAB
:10E418001FD80AF1010A40F6B7339A4500F2128173
:10E428000A2033F029FD94E707F1280000F04CFAA0
:10E4380003460028EAD010F1800FE7D06E4A126830
:10E4480012F0060FE2D0734A02216B4835F03BFB0D
:10E45800DCE702F01BF9684B1B6803F00703022B8B
:10E4680001D80024D5E718EE900AFFF743F90022F7
:10E478000023FEF7E1FF41EC1C0B3046FFF73AF9A9
:10E4880000220023FEF7D8FF41EC1B0B2846FFF7BC
:10E4980031F900220023FEF7CFFF41EC1A0BB86ACE
:10E4A800FFF728F900220023FEF7C6FF41EC190BFD
:10E4B800F86AFFF71FF900220023FEF7BDFF41ECC1
:10E4C800180B386BFFF716F900220023FEF7B4FF8C
:10E4D80041EC1D0B786BFFF70DF900220023FEF7C6
:10E4E800ABFF41EC1E0B97F888307B6097F889608A
:10E4F80097F88A5006F026FD002868D0464B3B6006
:10E508006C460A233B7313237B739AB06B4613F153
:10E5180010025FD04FF0520C6AB36146BCF1040F91
:10E5280003DDDFF8FCE0C3F814E0082901DD83ED22
:10E5380006CB102901DD83ED08BB182901DD83ED29
:10E548000AAB202901DD83ED0C9B282901DD83ED31
:10E558000E8B302901DD83ED10DB382901DD83EDD9
:10E5680012EB402901DD78681865442900DD5E65F5
:10E57800482900DD9D650A2139721321797262BB31
:10E58800BCF1510F5BDD522142B1142038730020D9
:10E598007873B8730120F873F86818616FF3000B8B
:10E5A8006FF3410B6FF3820B6FF3C50B032363F318
:10E5B800881BC1F30A0161F3532B6FF31F5B002320
:10E5C80059460D480AF0DCFAA546002421E7134B0A
:10E5D8003B6095E76FF0004C9EE7BCF14C0F01DD06
:10E5E8003968D96503F16001002025E0AFF30080A8
:10E5F800182D4454FB210940D82F0020584005000D
:10E608004FA200204EA20020704005005067002055
:10E61800000034438C400500444005004C40050090
:10E62800A840050000F1880507F10806354415F8EB
:10E63800885C01F8015B01300128F3D9A0E76FF08D
:10E648001B01A1E707F10C0006F082FC914B1B6847
:10E6580003F00703022B75D88E4B1B6803F00703E2
:10E66800022B75D88B4B1B6803F00703022B7BD852
:10E67800884B1B6803F00703022B7DD8854B1B686A
:10E6880003F00703022B3FD9834BD868FFF732F812
:10E6980000220023FEF7D0FE41EC170B6D4688B030
:10E6A8006B4613F1100200F0DA80102142B10846DF
:10E6B800042901DD794E5E61082801DD83ED067BC2
:10E6C8000F2940F3CF8010213AB10420387200207E
:10E6D8007872B872F872B86818616FF300096FF34E
:10E6E80041096FF382096FF3C509032363F388199E
:10E6F800C1F30A0161F353296FF31F5900234946F7
:10E7080064480AF03DFAAD46624B1B6803F0070304
:10E71800022B00F2AA805F4B1B6803F00703022B51
:10E7280000F2AA8004F0C4FE48B95A4B1B6813F0E3
:10E73800060F40F0A98007F1880002F051F84FF069
:10E74800000A6DE6564A0321524835F0B2F983E7CC
:10E7580033F078FB534BA3FB00239B09524A032158
:10E768004C4835F0B0F97DE74B4B1B684F4A032105
:10E77800484835F0A8F97BE7474B5E6807EE906A92
:10E78800B8EE677ADFED4A7A27EE277AD3ED007A7A
:10E79800F8EE677AC7EE277A17EE900AFEF7AAFF17
:10E7A80000220023FEF748FE41EC170B6D461C22A1
:10E7B8000C2312F0070F26D103F1080108461F3376
:10E7C80023F00703ADEB030D6A4629B102F11000EF
:10E7D80003291BD86FF01B006FF300086FF3410883
:10E7E8006FF382086FF3C508032363F3881860F397
:10E7F80053286FF31F5810320023414625480AF06A
:10E80800BFF9AD463AE704330432D2E730B1042900
:10E8180001DD284B5361082900DD96611C230C2675
:10E8280013F0070F18D1334620B18E4202DA861949
:10E8380086ED007B08331E46994201DA6FF01B060D
:10E8480040B1C3F387033B7200237B72BB72FB7238
:10E85800B86810613046BFE704360433E0E76FF06C
:10E86800004123E76FF01B012EE73B69124A0321A1
:10E87800084835F028F94EE7074B5B690F4A032132
:10E88800044835F020F94DE70D4A0221014835F0DA
:10E8980010F950E7D82F0020506700206441050088
:10E8A800F8400500D34D6210144105002C410500C5
:10E8B8000000C84244410500804105009C41050014
:10E8C800B8410500000000004D4B1B68002B00F00C
:10E8D8009080F0B52DED048BB7B00446494B1B78FA
:10E8E80043B9494B1B78002B2ED1002037B0BDEC23
:10E8F800048BF0BD0568099546680A9687680B97EA
:10E90800C0680C90E3690D93FEF7F4FECDE90601AB
:10E918003846FEF7EFFECDE904013046FEF7EAFE81
:10E92800CDE902012846FEF7E5FECDE90001374AA8
:10E93800402126A831F006FB83B226AA3449304884
:10E94800006833F021FBCCE7D4ED047ACDED097AE9
:10E9580094ED059A8DED0A9AD4ED068ACDED0B8AD1
:10E96800E3690C939FED2B8A67EE887A17EE900A7D
:10E97800FEF7C0FE20A3D3E90023FFF73DF8FFF719
:10E98800E9F9044669EE087A17EE900AFEF7B2FE36
:10E9980019A3D3E90023FFF72FF8FFF7DBF90546A2
:10E9A80068EE887A17EE900AFEF7A4FE12A3D3E960
:10E9B8000023FFF721F8FFF7CDF9FEF79BFECDE91D
:10E9C80004012846FEF796FECDE902012046FEF72F
:10E9D80091FECDE90001104A60210EA831F0B2FA8B
:10E9E80083B20EAA0D490648006833F0CDFA00201C
:10E9F8007CE76FF07F007047182D4454FB210940D5
:10EA08008467002056A2002055A200202048050057
:10EA1800D048050000003443404805000C49050073
:10EA28002DE9F04F2DED048B8BB000AF584B1B78C0
:10EA3800002B00F04F820446002800F04E82554B10
:10EA48001B7AB3B9082207F12001202033F0E9FA34
:10EA58000546002800F0A8804F4B1B6813F0070FED
:10EA680040F08F8028462C37BD46BDEC048BBDE8AE
:10EA7800F08F07F11C0004F0B9FC054633F0EBFAFF
:10EA88000646002DDED1434A1368C31A52689342E2
:10EA9800D8D3424B1B780B3BDBB2012B0DD93A7F05
:10EAA800012A05D97A7F012A02D9BA7F012AC9D851
:10EAB800012B0FD9374B1E60C4E73A7F012AF7D9DB
:10EAC8007A7F012AF4D9BA7F012AF1D9FA7F012A7B
:10EAD800B8D8EDE7304B1B6813F0060FEAD097F86B
:10EAE8001C9097F81D8097F81EE097F81FC06D4698
:10EAF8008AB06B4613F110023DD01820B2B101461E
:10EB0800042803DDDFF89CA0C3F814A0082901DD60
:10EB1800C3F818900C2901DDC3F81C80102901DD09
:10EB2800C3F820E0142901DDC3F824C0172825DD27
:10EB38004FF0180C3AB10621397600217976B9766A
:10EB4800F976B869186100216FF300016FF341018C
:10EB58006FF382016FF3C501022363F38811CCF3CD
:10EB68000A0363F353216FF31F5100230A480AF085
:10EB780007F8AD469EE76FF00040BFE76FF01B0C4B
:10EB8800D8E70346064A0121034834F09CFF69E7A9
:10EB98005BA20020D0250020602F0020E42E00205A
:10EBA8003C4C0500F84B050097F8200097F82130F9
:10EBB8001B021BB297F8226097F82320120212B2A8
:10EBC800164397F8249097F82520120212B249EAC2
:10EBD800020997F8268097F82720120212B248EA0D
:10EBE80002081843FEF774FD0022BF4BFEF7DAFD5A
:10EBF80082468B463046FEF76BFD0022BA4BFEF785
:10EC0800D1FDC7E904014846FEF762FD0022B64B74
:10EC1800FEF7C8FDC7E902014046FEF759FD00228C
:10EC2800B14BFEF7BFFDC7E9000152465B465046AF
:10EC38005946FEF7B7FD80468946D7E904010246E2
:10EC48000B46FEF7AFFD02460B4640464946FEF727
:10EC5800F3FB80468946D7E9020102460B46FEF7D8
:10EC6800A1FD02460B4640464946FEF7E5FB8046B5
:10EC78008946D7E9000102460B46FEF793FD024696
:10EC88000B4640464946FEF7D7FB41EC100B32F0E5
:10EC9800A3FF59EC108B92A3D3E9002340464946C1
:10ECA800FFF710F8002800F0A08042464B46504677
:10ECB8005946FEF7A1FEFFF74DF808EE100A20604E
:10ECC80042464B46D7E90401FEF796FEFFF742F8A5
:10ECD80009EE100A606042464B46D7E90201FEF78A
:10ECE8008BFEFFF737F808EE900AA06042464B46C5
:10ECF800D7E90001FEF780FEFFF72CF800EE100AB6
:10ED0800E06028EE088A29EE099A38EE098A68EE4A
:10ED1800A88A38EE288A20EE000A38EE000A32F077
:10ED28008FFFF7EE007A70EE677AF0EEE77A9FEDE4
:10ED38006F7AF4EEC77AF1EE10FA7FF793AE6C4B68
:10ED48001B6813F0040F3FF48DAEDFED6A7A30EEE6
:10ED5800270A6C461C220C2312F0070540F0978006
:10ED680003F1080842461F3323F00703ADEB030DF8
:10ED78006E46B8F1000F00F0958006F11009B8F161
:10ED8800030F40F28D80B9F1000F09D0B8F1040FDC
:10ED980001DD594B7361B8F1080F01DD574BB361C1
:10EDA8001C230C2213F0070F74D19246B9F1000FFF
:10EDB80009D0424507DA09EB020B10EE100AFEF7FC
:10EDC80099FCCBE900010AF10803984565DB1A466E
:10EDD800B9F1000F66D0C3F387033B7600237B7637
:10EDE800BB76FB76B86930615CE0414B1B6813F079
:10EDF800060F3CD00022002340464946FEF71CFB84
:10EE08006E4688B06B4613F110023AD010255AB1FD
:10EE1800AC46042D03DDDFF8E8E0C3F814E0BCF1EC
:10EE2800080F01DDC3E906010F2D2DDD10253AB1CC
:10EE38000421397600217976B976F976B8691861AE
:10EE480000216FF300016FF341016FF382016FF34B
:10EE5800C501022363F38811C5F30A0363F3532141
:10EE68006FF31F510023224809F08AFEB5464FF080
:10EE78007E53236000236360A360E3606FF00405A2
:10EE8800F0E56FF00045C2E76FF01B05CFE70433EC
:10EE9800043261E70432043384E76FF01B0297E71A
:10EEA8006FF01B0200216FF300016FF341016FF354
:10EEB80082016FF3C501042363F3881162F35321C0
:10EEC8006FF31F5106F110020023094809F058FE9C
:10EED800A546C7E56FF01505C4E56FF01505C1E552
:10EEE8002D431CEBE2361A3F0000103F0AD7233CA3
:10EEF800602F002000000000784C050098550500A0
:10EF08005C4C0500000000002DE9D04F84B0044699
:10EF18000068FEF7EFFB804689466068FEF7EAFB6B
:10EF280082468B46A068FEF7E5FBCDE90001E06864
:10EF3800FEF7E0FBCDE9020142464B464046494612
:10EF4800FEF730FC06460F4652465B465046594689
:10EF5800FEF728FC02460B4630463946FEF76CFAA7
:10EF680006460F46DDE9000102460B46FEF71AFC8D
:10EF780002460B4630463946FEF75EFA06460F460D
:10EF8800DDE9020102460B46FEF70CFC02460B4681
:10EF980030463946FEF750FA41EC100B32F01CFEB1
:10EFA80057EC106B22A3D3E9002330463946FEF70D
:10EFB80089FE30B332463B4640464946FEF71CFDC3
:10EFC800FEF7C8FE206032463B4650465946FEF7DB
:10EFD80013FDFEF7BFFE606032463B46DDE90001E7
:10EFE800FEF70AFDFEF7B6FEA06032463B46DDE9B5
:10EFF8000201FEF701FDFEF7ADFEE06004B0BDE8DA
:10F00800D08F094B1B6813F0060F07D14FF07E53C2
:10F0180023600023E360A3606360EFE7034A0221F3
:10F02800014834F046FDF1E714300020145605007D
:10F038008DEDB5A0F7C6B03E2DE9F04F95B000AF05
:10F0480005460C4616460068FEF754FB804689467E
:10F058006868FEF74FFBC7E91001A868FEF74AFB8E
:10F06800C7E90E01E868FEF745FBC7E90C0120680F
:10F07800FEF740FB82468B466068FEF73BFBC7E91C
:10F088000A01A068FEF736FBC7E90801E068FEF749
:10F0980031FB04460D46C7E9068942464B465046B1
:10F0A8005946FEF77FFB80468946D7E91023D7E902
:10F0B8000A01FEF777FB02460B4640464946FEF733
:10F0C800B9F980468946D7E90E23D7E90801FEF742
:10F0D80069FB02460B4640464946FEF7ABF98046B7
:10F0E8008946D7E90C2320462946FEF75BFB0246F2
:10F0F8000B4640464946FEF79DF9C7E90201D7E9A4
:10F108000623D7E90A01FEF74DFB80468946D7E971
:10F11800102350465946FEF745FB02460B4640462B
:10F128004946FEF789F980468946D7E90E232046E5
:10F138002946FEF737FB02460B4640464946FEF78E
:10F148007BF980468946D7E90C23D7E90801FEF701
:10F1580029FB02460B4640464946FEF76BF9C7E9CC
:10F168000401D7E90623D7E90801FEF71BFB80460F
:10F178008946D7E9102320462946FEF713FB0246A5
:10F188000B4640464946FEF755F980468946D7E979
:10F198000E2350465946FEF705FB02460B464046ED
:10F1A8004946FEF749F980468946D7E90C23D7E94D
:10F1B8000A01FEF7F7FA02460B4640464946FEF7B3
:10F1C8003BF9C7E90001D7E9062320462946FEF79F
:10F1D800E9FA04460D46D7E91023D7E90801FEF7F6
:10F1E800E1FA02460B4620462946FEF725F9044671
:10F1F8000D46D7E90E23D7E90A01FEF7D3FA0246EE
:10F208000B4620462946FEF715F904460D46D7E970
:10F218000C2350465946FEF7C5FA02460B462046CF
:10F228002946FEF709F980468946D7E9024522466C
:10F238002B4620462946FEF7B5FA04460D46D7E97F
:10F2480004BC5A46634658466146FEF7ABFA024686
:10F258000B4620462946FEF7EFF804460D46D7E947
:10F2680000AB52465B4650465946FEF79BFA0246AB
:10F278000B4620462946FEF7DFF804460D4642466F
:10F288004B4640464946FEF78DFA02460B46204655
:10F298002946FEF7D1F841EC100B32F09DFC55ECF5
:10F2A800104B70A3D3E9002320462946FEF70AFD38
:10F2B800002800F08E8022462B46D7E90201FEF78F
:10F2C8009BFBFEF747FD306022462B46D7E9040139
:10F2D800FEF792FBFEF73EFD706022462B46504635
:10F2E8005946FEF789FBFEF735FDB06022462B46EE
:10F2F80040464946FEF780FBFEF72CFDF0602046AD
:10F308002946FEF727FD07EE900AB7EE007A77EE5A
:10F31800C77AF0EEE77A4C4BC3ED0A7A9FED4B7A49
:10F32800F4EEC77AF1EE10FA40F38880484B1B6878
:10F3380013F0040F00F082809FED467A77EE877A0B
:10F348006D461C220C2312F0070F55D103F1080655
:10F3580032461F3323F00703ADEB030D6C46002E36
:10F3680055D004F11009032E4FD9B9F1000F07D079
:10F37800042E01DD384B6361082E01DD374BA36194
:10F388001C230C2213F0070F39D19046B9F1000F56
:10F3980009D0B24207DA09EB020A17EE900AFEF723
:10F3A800A9F9CAE9000108F108039E422ADB1A46B6
:10F3B800B9F1000F2BD0C3F3870387F84C30002333
:10F3C80087F84D3087F84E3087F84F30F86C206159
:10F3D8001DE01F4B1B6813F0070F07D14FF07E533A
:10F3E80033600023F360B360736088E71C4A01212F
:10F3F800174834F05EFBF1E704330432A3E7043224
:10F408000433BFE76FF01B02D2E76FF01B02002145
:10F418006FF300016FF341016FF382016FF3C501D0
:10F42800042363F3881162F353216FF31F5104F12E
:10F4380010020023064809F0A3FBAD465437BD4629
:10F44800BDE8F08FAFF30080083600200AD7A33B51
:10F4580014300020000000007C560500E05905002B
:10F46800485605008DEDB5A0F7C6B03E0000000077
:10F478002DE9F04F8DB009900D46174640F0ACFECF
:10F488004B0143EAD0634401241A63EB01039B0058
:10F4980043EA9473A400241843EB0101C90041EA2C
:10F4A8005471C4F3103444EA41444FEAD139012D70
:10F4B80065D07D6829463C48FEF706FD28B12946F7
:10F4C8003A48FEF701FD002861D135A3D3E90023AE
:10F4D80020464946FEF78EFC80460A9130A3D3E9C0
:10F4E800002320464946FEF785FC15461C46304A4F
:10F4F800002328462146FEF77DFC06460F462C4A87
:10F50800002328462146FEF775FC15461C464EF694
:10F518006022002328462146FEF76CFC81460B91A9
:10F528004EF66022002328462146FEF763FC154666
:10F538001C464FF47A72002328462146FEF75AFCEF
:10F5480083468A464FF47A72002328462146FEF7FE
:10F5580051FCCDE90623CDF810B0CDF814A0CDF8B4
:10F5680008900B9A03920096019742460A9B11490C
:10F57800099835F059F800200DB0BDE8F08F224603
:10F588004B460D49099835F04FF80020F4E72A4614
:10F598000A49099835F066F86FF00400ECE700BFF7
:10F5A800005C26050000000034640500386405008E
:10F5B80080EE36005C6405002064050044640500A4
:10F5C80010B5082140F6014012F046FFD8B10446B4
:10F5D80008210C300FF0D8FD02460F4B93F8D830B5
:10F5E80013F0010F0BD10D484FF0005136F0CDFF4D
:10F5F8000022214640F6014013F008FB10BD04A18B
:10F60800D1E90001F2E76FF06800F7E7AFF3008097
:10F6180090880002008000209020002010880002BE
:10F6280000B583B09FED0A7B8DED007B082903D9D7
:10F63800002003B05DF804FB0A460146684642F024
:10F648006DFADDE900013FF0DDFDF2E7AFF3008080
:10F65800000000000000000030B589B00C9D0028B3
:10F668003FD00446002948D0D0F8200110F0010FFF
:10F678004FD10020C4F80801C4F80C0104F58870C3
:10F68800C4F81001C4F8140104F58C70C4F818010A
:10F69800C4F81C01002D48D02879002847D1012042
:10F6A800C4F820019FED247B8DED067B002004909B
:10F6B8000393029001900094214B204629F024FAEC
:10F6C80055B1296811B1204629F01EF96B791BB193
:10F6D800237B43F00103237320462AF06FF909B016
:10F6E80030BD184C40F2DB222146174833F0B8FAF7
:10F6F80040F2DB2120463DF035FE124C4FF43772C4
:10F708002146114833F0ACFA4FF4377120463DF0EA
:10F7180029FE0C4C40F2DD2221460B4833F0A0FABA
:10F7280040F2DD2120463DF01DFE0120B8E740F201
:10F738000110B5E7AFF30080FFFFFFFFFFFFFFFFFA
:10F748001D7D030044E30500FC2F050000000000B8
:10F758002DE9F04F476A97B08346209E08910C9296
:10F76800129355EC104B8DED000B7FB910202FF044
:10F77800CBFF0246CBF8240020B9A74BEA21A748C3
:10F788003DF03BFCC0E901770760C760DBF8243037
:10F79800196859B15A680123584693404A608B60EA
:10F7A80030F066FDDBF8243000221A602B1EB7BF4C
:10F7B80023F00043002301220193A8BF3360019F77
:10F7C800974BB8BF3260BB4319D142F20F73129AFC
:10F7D8001360C7F31303234300F0DB85219B53B960
:10F7E800904B21E0904B03930833219A13600398C0
:10F7F80017B0BDE8F08F8B4B03930333F5E79DED0E
:10F80800007B0022002351EC170B8DED0A7BFEF7DD
:10F8180031FA804650B10123129A1360219B13B12B
:10F82800824B219A1360824B0393E0E7C7F30A5691
:10F8380014AA15A958469DED0A0B30F0A1FF0290B5
:10F84800002E76D00B9BA6F2FF36CDF84C80C3F382
:10F85800130343F07F53DDE90A0143F440131946CB
:10F868000022744BFDF7E6FD65A3D3E90023FDF7FD
:10F8780099FF65A3D3E90023FDF7DEFD04460D4695
:10F888003046FDF725FF62A3D3E90023FDF78AFF81
:10F8980002460B4620462946FDF7CEFD04460D4696
:10F8A800FEF730FA00220746002320462946FEF7D5
:10F8B800EBF940B13846FDF70BFF22462B46FEF721
:10F8C800D9F900B9013F162F52D85B4B03EBC70398
:10F8D800DDE90A01D3E90023FEF7D6F9002849D06B
:10F8E800013F00231193149B9B1B5A1E4CBFC3F16D
:10F8F80001030023079245BF06930023069307934D
:10F90800002F39DB079B10973B440793002309938B
:10F91800089B092B66D8052BC5BF043B002401248E
:10F928000893089B023B032B67D8DFE803F02D3AC6
:10F938003859DDE914631E4406F23243202BC9BF4F
:10F94800C3F14003C3F120039F4006F21243D8BF1E
:10F9580004FA03F006F1FF36C4BF24FA03F347EABA
:10F968000300FDF7A5FE0122A1F1F873139276E7D3
:10F978000123B7E71190B6E7069BDB1B06937B4292
:10F98800099300231093C3E700230D930C9B002BCE
:10F9980056DC012399461A4604930C920CE0012385
:10F9A800F3E700230D930C9BFB1803F10109049363
:10F9B8004B46012BB8BF0123DBF8240000210422A9
:10F9C80002F114059D423FD94160584630F010FCC1
:10F9D800039000283BD1194B02464FF4D571CEE66F
:10F9E8000123DFE7012400230D9408934FF0FF3330
:10F9F8000022994604931223CFE701230D93F5E7DC
:10FA080061436F63A787D23FB3C8608B288AC63F1C
:10FA1800FB799F501344D33F07EA05001EEA05000F
:10FA28000000F07F03EA0500FAE90500D7E90500C0
:10FA3800D6E905000000F83F002F050091EA05000F
:10FA48000C9B99460493B7E701315200B8E7DBF8FD
:10FA58002430B9F10E0F039A1A606FD8002C6DD0BC
:10FA6800002F36DD07F00F02A04BF8054FEA2714E8
:10FA780003EBC20393ED007B8DED0E7B17D59C4BFA
:10FA880004F00F044FF00308D3E90823DDE90A0165
:10FA9800FDF7B2FFCDE90001954D5CB9DDE90E2314
:10FAA800DDE90001FDF7A8FFCDE900012BE04FF0EB
:10FAB8000208F1E7E10709D508F10108DDE90E01BF
:10FAC800D5E90023FDF76EFECDE90E016410083577
:10FAD800E3E700F007817C42844B854D4FF0020834
:10FAE80004F00F02241103EBC203DDE90A01D3E994
:10FAF8000023FDF757FE0023CDE90001002C40F05C
:10FB0800E580002BD0D1119BDDE90045002B00F0EA
:10FB18004C810022774B20462946FEF7B5F800288D
:10FB280000F04381B9F1000F00F03F81049B002BE6
:10FB380000F3E480DDE90A34CDE90034159B002B9D
:10FB480002DB0E2F40F342820D9A002A40F06782B2
:10FB5800099C0025DDF81880B8F1000F0DD0079B2F
:10FB6800002B0ADD4345069AA8BF4346D21AA8EBE4
:10FB780003080692079AD31A0793099B0BB30D9BA8
:10FB8800002B00F0A682002C00F0A1822946224614
:10FB9800584630F097FC029A01460546584630F020
:10FBA800E7FB02990646584630F062FB099B1B1B8F
:10FBB800099300F09182099A3146584630F082FC48
:10FBC80002900121584630F0BDFB109B0446002BE3
:10FBD80000F084821A460146584630F073FC089BB0
:10FBE8000446012B03DC009B002B00F07C820026DE
:10FBF800236904EB8303186942F0E8F9C0F1200097
:10FC08001096079B184410F01F0000F09182C0F175
:10FC18002003042B40F38182C0F11C00069B03449F
:10FC280080440693079B03440793069B002B05DD3E
:10FC38001A460299584630F09FFC0290079B002B09
:10FC480005DD21461A46584630F096FC0446119BBD
:10FC5800002B00F076822146029842F006FA00282E
:10FC680080F26F8200230A220299584630F022FB64
:10FC78000D9B7E1E0290002B00F05C82002329461B
:10FC88000A22584630F016FB049B0546002B03DC7D
:10FC9800089B022B00F35E82B8F1000F05DD2946B0
:10FCA8004246584630F068FC0546109B002B00F091
:10FCB800D0826968584630F09BFA0746002840F021
:10FCC8007F820D4B024640F2EA2158E5E20706D54D
:10FCD80008F10108D5E90023FDF764FD012364104C
:10FCE80008350BE74FF002080DE700BF002F0500AD
:10FCF800D82E05000000F03F91EA050020460022BA
:10FD0800AC4B2946FDF74EFD7E1E08F10108049C08
:10FD1800CDE900014046FDF7DBFCDDE90023FDF7F6
:10FD280041FDA54B0022FDF787FBA1F15073CDE9FA
:10FD38000E010F93002C3BD10022A04BDDE90001FE
:10FD4800FDF778FB02460B46CDE90023DDE90E23DB
:10FD5800FDF7B8FF002840F05781DDE90E2101F1D9
:10FD68000043DDE90001FDF78FFF00283FF4E2AE14
:10FD7800002425460C9BDDF80CA0DE434FF000085C
:10FD88002146584630F074FA002D00F0A980B8F1E9
:10FD9800000F05D0A84503D04146584630F068FA10
:10FDA8002946584630F064FA9AE03E464C46B1E798
:10FDB800834B03EBC40353E90201039B1C440D9BD3
:10FDC800002B4AD002460B4600207E49FDF714FE60
:10FDD800DDE90E23FDF72EFBDDF80CA0CDE90E01C1
:10FDE800DDE90001FDF78EFF0546FDF771FC0246CF
:10FDF80030350B46DDE90001FDF71CFB0AF8015B15
:10FE080002460B46CDE90001DDE90E01FDF75AFF78
:10FE1800002865D100206C49DDE90023FDF70AFBC5
:10FE280002460B46DDE90E01FDF74CFF002840F0C5
:10FE38000D81A24500F0EA8000225E4BDDE90E014B
:10FE4800FDF7B0FC00225B4BCDE90E01DDE90001B6
:10FE5800FDF7A8FCCDE90001C2E7DDE90E23FDF7B7
:10FE6800A1FCA046DDF80CA0CDE90E01DDE90001FA
:10FE7800FDF748FF0546FDF72BFC024630350B46DB
:10FE8800DDE90001FDF7D6FA0AF8015B02460B46E8
:10FE9800A245CDE900234FF0000223D1494BDDE90B
:10FEA8000E01FDF7C9FA02460B46DDE90001FDF730
:10FEB80009FF002840F0CA8000204249DDE90E23EE
:10FEC800FDF7B8FA02460B46DDE90001FDF7DCFE56
:10FED80070B1C24608F1FF381AF8013C302BF8D04F
:10FEE800374655E0334BFDF75DFCCDE90001BDE732
:10FEF800DDE90A34CDE90034159B002BFFF628AE66
:10FF08000E2F3FF725AE2E4B03EBC70393ED007B77
:10FF18000C9B002B8DED047B02DAB9F1000F64D045
:10FF2800DDF80CA0DDE90045DDE90423204629467B
:10FF3800FDF762FDFDF7E6FE0646FDF7C9FBDDE9C4
:10FF48000423FDF72FFC0246204606F130040B4639
:10FF58002946FDF76FFA0AF8014B039C02460B4647
:10FF6800AAEB0404A14540F08280FDF765FA044637
:10FF78000D46DDE90423FDF7A5FE002865D12046DE
:10FF88002946DDE90423FDF775FE08B1F3075CD4C3
:10FF98000299584630F06CF9002301378AF800308E
:10FFA800129B1F60219B002B3FF421ACC3F800A0DB
:10FFB8001DE400BF0000244000001C400000144065
:10FFC800002F05000000E03F0000F03FA24B03EBCC
:10FFD800C70393ED007B0C9B002B8DED047B9FDA10
:10FFE800B9F1000F9CDC7FF4C3AE00229B4BDDE926
:08FFF8000401FDF7D7FBDDE970
:020000021000EC
:100000000023FDF759FE044600287FF4B5AE3E46B6
:100010002546B4E0DDE90A34CDE90034159B002B18
:1000200001DB0E2FD6DD089A012A36DC139A82B343
:1000300003F23343099CDDF81880069A01215846E3
:100040001A440692079A1A44079230F07FF905463F
:1000500086E53E4653469A4613F8012D392A06D1C5
:10006000039A9A42F7D13022039901360A701A781E
:1000700001321A7038E700227B4BFDF797FB002214
:10008000002304460D46FDF7F9FD00283FF450AF6C
:1000900082E7149BC3F13603CCE709F1FF34099BD7
:1000A000A34208DBB9F1000FA3EB04040EDBDDF87B
:1000B00018804B46C1E7099B109AE31A0994DDF8B2
:1000C000188000241A444B461092B6E7069BA3EB17
:1000D00009080023B1E7029E71E5099A029970E5CB
:1000E000029672E5089B012B17DC009BABB9019BC4
:1000F000C3F313039BB9019B23F00046360D36056D
:1001000036B1069B012601330693079B0133079303
:10011000109B002B7FF470AD1096012075E5002632
:10012000F6E73FF486AD1C33069A1A4498440692CB
:10013000079A1A4407927CE50346F4E7049B002BD8
:100140002BDC089B022B09DC27E0B9F1000F1DDC3A
:10015000089B022B1ADD3E46CDF81090049B002B25
:100160007FF40CAE21460522584630F0A7F8014630
:100170000446029841F07DFF00287FF7FFADDDF8CF
:100180000CA0312301360AF8013BFBE50D9B3E46EE
:10019000CDF81090002B7FF483AD039F2146029889
:1001A00041F07DFE039B00F13009049A07F8019BA2
:1001B000FB1A9A4240F3CB8000230A220299584648
:1001C00030F07CF80290E9E72A6905F10C010C3067
:1001D0000232920041F0A6FC01223946584630F026
:1001E000CFF9039BA846054603F1010ADDE9032385
:1001F00013440793009B03F0010309930AF1FF33B3
:1002000021460298049341F04AFE4146069000F1CF
:100210003009029841F02DFF2A46214607465846EC
:1002200030F01AFAC268014602B3584630F024F89A
:10023000002F3ADA01220299584630F0A1F92146FE
:10024000029041F016FF002803DC29D119F0010FBC
:1002500026D0B9F1390F1DD132E02846C1E700BFE1
:10026000002F050000001440000024400A9002986E
:1002700041F0FFFE0A990C9058462FF0FDFF0C9AB2
:100280005ABB089B53B9099B43B9B9F1390F17D031
:10029000002F05DD069B03F1310901E0002F2ADA6A
:1002A000DDF810A00AF8019B6EE5089B3B4304D1E2
:1002B000009B03F00103002BBCD0B9F1390F36D1FC
:1002C000049F392307F8013BBA46013F1AF8013C65
:1002D000392B5AD001333B7056E5002F06DB089BC3
:1002E0003B4306D1009B03F0010313B9002AA1DCB4
:1002F000D6E7002AE1DC079B57460AF8019C5345E4
:100300002ED000230A22029958462FF0D7FFA84585
:1003100002904FF000034FF00A02414658460BD1BD
:100320002FF0CCFF804605460AF1010A66E7DDF8AA
:1003300010A009F10109B5E72FF0C0FF294680465A
:1003400000230A2258462FF0B9FF0546ECE7049B2C
:100350004FF00008002BCCBF1F460127039B1F4412
:1003600001220299584630F00BF92146029041F0E3
:1003700080FE0028A8DC02D119F0010FA4D1BA46F2
:1003800017F8013D302BFAD0FEE4039BBB429BD112
:100390003123039A01361370F6E4219B002B7FF47E
:1003A00025AA014BFFF744BAFAE9050010B54368E6
:1003B0001C68012303FA01F10C4204D07AB183686E
:1003C000DB68984710BD084C40F26362214607483D
:1003D00032F04AFC40F2636120463CF0C7FF83687C
:1003E0001B699847EEE700BFC82F0500FC2F0500EA
:1003F00038B5436805691C6801238B401C4208D04E
:100400002C68234202D0B2FA82F25209FFF7CEFFE3
:1004100038BD064C40F28C622146054832F024FC7F
:1004200040F28C6120463CF0A1FF00BFC82F0500C0
:10043000FC2F050010B582B043681B6801248C4076
:1004400023420AD001A931F0E0FC20B9019B1C42F3
:1004500014BF0120002002B010BD064C40F23362F0
:100460002146054832F000FC40F2336120463CF062
:100470007DFF00BFC82F0500FC2F0500F8B586687A
:100480004768046912F0FC6F33D1134602F0300262
:10049000302A3AD0434A1A40434DAA4241D003F091
:1004A0000602042A49D013F4402202D013F4003F7C
:1004B0004FD0B2F5402F58D013F4801F05D022B191
:1004C00013F0010F01D083F4402323F480123D6820
:1004D0004FF0010C0CFA01FC15EA0C0F51D013F08F
:1004E000010F5AD023684CEA03032360336898470E
:1004F000F8BD2E4C40F2DE3221462D4832F0B4FBDE
:1005000040F2DE3120463CF031FF284C40F2E1322F
:100510002146274832F0A8FB40F2E13120463CF06A
:1005200025FF224C40F2E5322146214832F09CFB67
:1005300040F2E53120463CF019FF1C4C4FF47A7232
:1005400021461B4832F090FB4FF47A7120463CF074
:100550000DFF164C40F2EB322146154832F084FB79
:1005600040F2EB3120463CF001FF104C40F2EF32FC
:1005700021460F4832F078FB40F2EF3120463CF044
:10058000F5FE0A4C40F2FB322146094832F06CFB82
:1005900040F2FB3120463CF0E9FE236823EA0C03DD
:1005A0002360A3E70200030002000100C82F05003A
:1005B000FC2F050070B58368456806699C69002CAE
:1005C0005ED002F4C003B3F5C00F1DD043B302F0F8
:1005D000E863B3F1C86F2FD002F0C863B3F5800FA2
:1005E00036D02D6801238B401D423DD012F4000F00
:1005F00004D035682B4201D082F0C062224B1340F8
:1006000002F0B072A04770BD204C40F27A32214611
:100610001F4832F029FB40F27A3120463CF0A6FE1A
:100620001A4C40F27E322146194832F01DFB40F24E
:100630007E3120463CF09AFE144C40F28132214635
:10064000134832F011FB40F2813120463CF08EFE1F
:100650000E4C4FF4627221460D4832F005FB4FF408
:10066000627120463CF082FE084C40F292322146F4
:10067000074832F0F9FA40F2923120463CF076FE1B
:100680006FF05700BFE700BF40000006C82F05000D
:10069000FC2F050008B507483FF042FA00B908BD35
:1006A000054B1A7882F001021A7006210148FFF703
:1006B0009FFEF4E76823050050A2002010B52048F3
:1006C000204B18603FF02CFA88B11E4B18688368E5
:1006D0001B681D4998470446C0B91A4B18688368BF
:1006E0001B681A4998470446E8B9204610BD184BC4
:1006F0001B6803F00703022B02D86FF01204F4E723
:10070000144A0321124833F0D8F9F6E7104B1B685E
:1007100003F00703022BE8D903460F4A03210C48D4
:1007200033F0D5F9E1E70A4B1B6803F00703022B0E
:10073000DBD90346094A0321054833F0C8F9D4E759
:10074000102405004C6700201C23002014230020E7
:10075000D82F0020143005002C3005005030050043
:1007600008B5042823D0052802D0032810D008BDDE
:10077000174B1B6803F00703022B03D8154B01220C
:100780001A70F4E7144A0321114833F096F9F5E79B
:100790000F4B1B6803F00703022B02D804F02CFA5E
:1007A000E5E70E4A03210A4833F087F9F6E7084BDC
:1007B0001B6803F00703022B03D8094B01221A70B0
:1007C000D5E7084A0321024833F077F9F5E700BF7F
:1007D000D82F00204FA2002074300500A43005005F
:1007E0004EA20020BC3005002DE9F04184B000AFDE
:1007F00004467C4B1B6803F00703022B52D8794B4D
:100800001B6803F00703022B40F28C802378002B37
:100810004ED0DFF8D481012B4DD9734E022B4CD929
:1008200071486D4600223A7202227A720121B97231
:100830000321F9723A7304227A738CB0EC461CF1EE
:1008400010023CD04FF01E0E2AB1BEF1040F02DDA3
:100850006649CCF81410002139720221797222B154
:10086000BEF1080F01DDCCF818800121B972032117
:10087000F97222B1BEF10C0F01DDCCF81C6002212F
:100880003973042179733AB37146BEF1100F01DD5B
:10089000CCF82000142901DDCCF824300CF1280319
:1008A000002117E0524A03214E4833F006F9A6E72B
:1008B000DFF84081AFE74F4EB0E74E48B1E76FF049
:1008C000004EC1E701F11000384410F8080C03F89D
:1008D000010B01310529F5D9BEF11D0F75DD1E2370
:1008E0004AB10621397100217971B9710321F97179
:1008F0007868CCF8100000216FF300016FF341011C
:100900006FF382016FF3C501032060F38811C3F315
:100910000A0363F353216FF31F510023314808F09A
:1009200033F9AD462F4B1B6803F00703022B40F24F
:1009300095806378002B4BD0DFF8AC80012B4AD92F
:10094000294E022B49D928486D4600223A720222CC
:100950007A720121B9720321F9723A7304227A730F
:100960008CB0EC461CF1100239D04FF01E0E2AB1AB
:10097000BEF1040F02DD2049CCF8141000213972B9
:100980000221797222B1BEF1080F01DDCCF8188086
:100990000121B9720321F97222B1BEF10C0F01DD00
:1009A000CCF81C60022139730421797382B371463B
:1009B000BEF1100F01DDCCF82000142901DDCCF8C8
:1009C00024300CF12803002120E06FF01B0387E79F
:1009D000DFF82080B2E7074EB3E70648B4E76FF0D0
:1009E000004EC4E7D82F0020E43005000831050090
:1009F000EC300500E83005002431050001F110005D
:100A0000384410F8080C03F8010B01310529F5D919
:100A1000BEF11D0F75DD1E234AB10621397100217B
:100A20007971B9710321F9717868CCF8100000214F
:100A30006FF300016FF341016FF382016FF3C501A2
:100A4000032060F38811C3F30A0363F353216FF3A8
:100A50001F5100236F4808F097F8AD466D4B1B6897
:100A600003F00703022B40F28980A378002B4BD0C0
:100A7000DFF8A481012B4AD9674E022B49D9664879
:100A80006D4600223A7202227A720121B972032164
:100A9000F9723A7304227A738CB0EC461CF110029E
:100AA00039D04FF01E0E2AB1BEF1040F02DD5B49B2
:100AB000CCF81410002139720221797222B1BEF1F2
:100AC000080F01DDCCF818800121B9720321F972F9
:100AD00022B1BEF10C0F01DDCCF81C60022139738C
:100AE0000421797322B37146BEF1100F01DDCCF8F9
:100AF0002000142901DDCCF824300CF1280300215A
:100B000014E06FF01B0387E7DFF81481B2E7444E6F
:100B1000B3E74348B4E76FF0004EC4E701F11000BB
:100B2000384410F8080C03F8010B01310529F5D9F8
:100B3000BEF11D0F47DD1E234AB106213971002188
:100B40007971B9710321F9717868CCF8100000212E
:100B50006FF300016FF341016FF382016FF3C50181
:100B6000032060F38811C3F30A0363F353216FF387
:100B70001F510023274808F007F8AD46254B1B6896
:100B800003F00703022B21D86378022B05D8214BF1
:100B90001B6803F00703022B1ED8A378022B0BD887
:100BA0001C4B1B6803F00703022B1BD8194B1B6857
:100BB00003F00703022B1BD82378012B1ED9103713
:100BC000BD46BDE8F0816FF01B03B5E7154A032170
:100BD000104832F072FFD7E7134A03210D4832F074
:100BE0006CFFDAE7114A03210A4832F066FFDDE7BD
:100BF0000F4A0321074832F060FFDDE7054B1B6811
:100C000003F00703022BDAD90A4A0321014832F024
:100C100054FFD4E7D82F0020E43005004031050010
:100C2000E83005005C31050084310500C031050065
:100C3000003205002C3205002DE9F04F8BB002AFD9
:100C40008F4B1B6803F00703022B40F2EF818D4AA4
:100C500003218B4832F031FFE8E18B4A01218848BB
:100C600032F035FFF0E10022884BD7E90401FCF7B0
:100C70009DFDFDF74BF801B218203CF081FAE6E14A
:100C8000834A01217E4832F022FFEEE100227F4BB1
:100C9000D7E90601FCF78AFDFDF738F801B2192003
:100CA0003CF06EFAE4E1DFF8F091B9F90000FDF7ED
:100CB0006FFA0546B9F90200FDF76AFA04462946BB
:100CC00016203CF06FFA214617203CF06BFAB9F978
:100CD0000030B3F5FA7F2BDD6E4A136801331360E1
:100CE0006D4BB3F90230B3F5FA7F25DD6B4A13681B
:100CF00001331360674B1B68132B21DD684A1278A0
:100D0000F2B9674B01221A70664B00221A60664ADC
:100D10001368013313605A4A126802F00702022A6C
:100D200040F28980614A0321554832F0D0FE82E0CA
:100D3000584B00221A60D3E7584B00221A60D9E7BB
:100D4000132B78DC564B1B78002B74D0544B0022AD
:100D50001A70544B1B68642202FB03F3544A13605D
:100D6000544A116819441160534A82FB03C04FEA88
:100D7000E37CCCEBA01C4FF47A7E0EFB1C337B6033
:100D800082FB0102C817C0EBA2100EFB10113C4AF7
:100D9000126802F00702022A4AD9E9468AB00DF128
:100DA000080E1EF1100265D04FF0180BDAB1DA46CA
:100DB000BBF1040F02DD414BCEF81430BAF1080F3D
:100DC00001DDCEF818C0BAF10C0F02DD7B68CEF859
:100DD0001C30BAF1100F01DDCEF82000BAF1140F6B
:100DE00001DDCEF82410BBF1170F46DD182342B108
:100DF0000621397300217973B973F973F868CEF855
:100E000010006FF300066FF341066FF382066FF375
:100E1000C506032161F38816C3F30A0363F353265F
:100E20006FF31F5600233146154807F0ADFECD463F
:100E30001C4B00221A60194B1B68132B48DD204AFB
:100E40001278002A44D11E4B01221A701D4B002239
:100E50001A601D4A136801331360094A126802F0D0
:100E60000702022A40F2B180184A0321044832F0F6
:100E70002EFEAAE06FF0004B98E76FF01B03B6E779
:100E8000D82F0020583205007C3205000000244095
:100E9000A432050044670020486700204067002016
:100EA0004DA200203C67002024670020E0320500AE
:100EB000346700202C670020D34D62100C330500EE
:100EC0004CA2002038670020206700205433050022
:100ED000132B7ADC744B1B78002B76D0724B0022DC
:100EE0001A70724B1B68642202FB03F3704A136092
:100EF000704A1168194411606F4A82FB03C04FEABF
:100F0000E37CCCEBA01C4FF47A7E0EFB1C337B60A1
:100F100082FB0102C817C0EBA2100EFB1011674A3A
:100F2000126802F00702022A4CD9E9468AB00DF194
:100F3000080E1EF1100200F0B0804FF0180BDAB16D
:100F4000DA46BBF1040F02DD5D4BCEF81430BAF186
:100F5000080F01DDCEF818C0BAF10C0F02DD7B6876
:100F6000CEF81C30BAF1100F01DDCEF82000BAF136
:100F7000140F01DDCEF82410BBF1170F40F3908061
:100F8000182342B10621397300217973B973F973BB
:100F9000F868CEF810006FF300086FF341086FF3A4
:100FA00082086FF3C508032161F38818C3F30A03AD
:100FB00063F353286FF31F58002341463F4807F05F
:100FC000E3FDCD46394B00221A603E4B1B781BB126
:100FD0003D4A136801331360334B1B781BB1334A0E
:100FE000136801331360394B1968394B1B68194476
:100FF000384B19601A203CF0D5F801F0B9FE90B1D9
:1010000097ED040B01F0C4FE97ED060B01F0E0FE36
:101010002F4B19682D4B18682E4B1B6800932346E5
:101020002A4601F0F5FE642030F02AFF07F1100097
:1010300030F087FF034600283FF415AE1F4A1268C0
:1010400012F0070F7FF409AE642030F019FF07F1AA
:10105000180001F0FBF9034600283FF417AE174AC9
:10106000126812F0070F7FF40BAE642030F008FF17
:10107000194B186883685B6818499847034600282D
:101080003FF411AE0D4A126812F0070FB5D0144AA2
:1010900001210A4832F01BFDAFE76FF0004B4EE72D
:1010A0006FF01B036DE700BF4CA2002038670020E3
:1010B0003067002028670020D34D6210D82F002011
:1010C000803305004DA200203C67002024670020EB
:1010D000206700201C6700204C67002000230020B0
:1010E000C832050010B582B0AF4B1B6803F0070390
:1010F000022B00F2D780AC4B1B6803F00703022BD6
:1011000000F2D680A84B1B6803F00703022B00F205
:10111000D580A54B1B6803F00703022B00F2D48097
:10112000A2483EF0FDFC002840F0D4809E4B1B6896
:1011300003F00703022B00F2E2809C483EF0F0FC33
:10114000002840F0E28004F05DFA974B1B6803F042
:101150000703022B00F25081954B1B68019301207D
:1011600002F088FC01A802F0FFF90446002840F0D4
:1011700049818D4B1B6803F00703022B00F24F815E
:10118000894B1B6803F00703022B00F24E81864B4C
:101190001B6803F00703022B00F24D8102F010FCE4
:1011A000002840F05481804B1B6803F00703022B9A
:1011B00000F2478104F0D4F9002840F08B817A4B8B
:1011C0001B6803F00703022B00F27E81642030F0DD
:1011D00057FE01F05DFD0346002800F09481724A3D
:1011E000126812F0070F40F082816F4B1B6813F0FA
:1011F000060F40F082816C4B1B6803F00703022B43
:1012000000F29D81684B1B6803F00703022B00F27C
:101210009C81654B1B6803F00703022B00F29B8146
:10122000614B1B6803F00703022B00F29A815E4BAF
:101230001B6803F00703022B00F299815A4B1B68CD
:1012400003F00703022B00F29881574B1B6803F051
:101250000703022B00F29781534B1B6803F007032F
:10126000022B00F29681504B1B6803F00703022B00
:1012700000F295814C4B1B6803F00703022B00F230
:101280009481494B1B6803F00703022B00F2938102
:10129000454B1B6803F00703022B00F292812046A6
:1012A00002B010BD434A03213F4832F006FC22E75A
:1012B000414A03213C4832F000FC23E73F4A032126
:1012C000394832F0FAFB24E73D4A0321364832F030
:1012D000F4FB25E74FF4B0113A4830F0ACFD03467B
:1012E00000283FF423AF304A126812F0060F3FF493
:1012F0001DAF354A02212C4832F0E9FB16E7334A8C
:101300000321294832F0D9FB17E74FF480313048E8
:1013100030F091FD034658B1234A126812F0060FCF
:101320003FF411AF2B4A02211F4832F0D0FB0AE7ED
:101330004FF0B86208211D48FFF73CF9034658B149
:10134000194A126812F0060F3FF4FDAE224A02213C
:10135000154832F0BCFBF6E62049214B4B604FF4B8
:1013600080738B60114830F05CFD0F4B1B6803F0FD
:101370000703022B12D80C4B1B6803F00703022B48
:1013800034D8094B1B6803F00703022B7FF6DBAE52
:10139000144A0321044832F090FBD4E6124A032198
:1013A000014832F08AFBE6E7D82F002068230500C9
:1013B000502C0500C833050048340500783405007A
:1013C000A834050094440500283505003C35050087
:1013D0008C44050058350500703505007067002005
:1013E000251E0100DC35050094350500784A0321EF
:1013F000784832F062FBC4E7774A0321754832F03F
:101400005CFBA9E6734B1B6813F0070F3FF447AF73
:101410000346724A01216F4832F059FB3FE7704A98
:1014200003216C4832F049FBAAE66E4A0321694861
:1014300032F043FBABE66C4A0321664832F03DFBD9
:10144000ACE66A4A0321634832F037FBB2E6614BEF
:101450001B6803F00703022B1ED85E4B1B6803F0CA
:101460000703022B1ED85B4B1B6803F00703022BFC
:101470001ED8584B1B6803F00703022B1ED8554B90
:101480001B6803F00703022B7FF694AE584A032132
:10149000504832F012FB8DE6564A03214D4832F097
:1014A0000CFBDAE7544A03214A4832F006FBDAE73C
:1014B000524A0321474832F000FBDAE7504A032141
:1014C000444832F0FAFADAE74E4A0321414832F052
:1014D000F4FA7BE63F4B1B6803F00703022B7FF611
:1014E00075AE494A03213B4832F0E7FA6EE6474AB7
:1014F0000121384832F0EBFA77E6454A02213548B7
:1015000032F0DBFA77E6334B1B6803F00703022B5C
:101510000FD8404801F09CFC2E4B1B6803F00703DA
:10152000022B7FF668AE3C4A03212A4832F0C5FA06
:1015300061E63A4A0321274832F0BFFAE9E7384A20
:101540000321244832F0B9FA5CE6364A03212148E7
:1015500032F0B3FA5DE6344A03211E4832F0ADFAA8
:101560005EE6324A03211B4832F0A7FA5FE6304AB2
:101570000321184832F0A1FA60E62E4A03211548EB
:1015800032F09BFA61E62C4A0321124832F095FAB8
:1015900062E62A4A03210F4832F08FFA63E6284AAE
:1015A00003210C4832F089FA64E6264A03210948EF
:1015B00032F083FA65E6244A0321064832F07DFAC8
:1015C00066E6174A0321034832F077FA67E600BF60
:1015D000B4350500D82F00200C3605003C36050038
:1015E0005836050084360500B0360500E83605009B
:1015F000E83705001437050050370500803705002F
:10160000B437050024380500503805008838050037
:10161000A038050061070100E8380500C43805005E
:10162000E4670500C8330500143905004839050092
:10163000C8390500FC390500303A0500643A050058
:10164000983A0500CC3A0500A8340500F8B50746DD
:101650000E46002411E00A4D012206212846FEF71D
:10166000C7FE304630F00CFC002206212846FEF76B
:10167000BFFE304630F004FC0134BC42EBDBF8BD69
:101680006823050000B583B001F016FF70B102F0C9
:1016900065F90346F0B11A4A126812F0070F10D02C
:1016A000184A0121164832F012FA0AE001A801F0A6
:1016B000A1FE134B1B6813F0060F05D101A8FFF71D
:1016C00093F803B05DF804FB0F4A02210C4832F096
:1016D000F4F9F3E730F0BAFB0C4B1861084B1B68C8
:1016E00003F00703022B04D8C8210320FFF7AEFF45
:1016F000E7E7074A0321024832F0DFF9F4E700BFC9
:10170000D82F00202C3B0500003B0500506700202F
:101710004C3B050010B5044630F098FB464B1B6867
:10172000C31A41F2873293425BD9434B1860237846
:10173000012B22D96378012B1FD9A378012B1CD947
:101740000023002B42D13C4B1B79002B3ED03B4B5E
:101750001B6803F00703022B5CD8374B00221A7179
:101760002378022B32D96378022B2FD9A378022B4E
:101770002CD9334B01221A7028E02F4B1B79002BF8
:10178000DFD1304A5369013353612C4B1B6813F08E
:10179000060F27D12046FFF727F864210320FFF723
:1017A00055FF254B01221A71244B1B6803F00703D8
:1017B000022B1DD8214B1B6803F00703022B1DD8F9
:1017C0001E4B1B6803F00703022B1DD822781A4B0F
:1017D0005B799A4224D0184B5A7162789A71A27838
:1017E000DA7110BD184A0221144832F066F9D1E7C7
:1017F000164A0321114832F060F9DBE7144A03214D
:101800000E4832F05AF9DBE7124A03210B4832F056
:1018100054F9DBE7104A0321084832F04EF99CE7FF
:101820006178054B9B799942D5D1A178024BDB7940
:101830009942D0D1D5E700BF68670020D82F00209B
:101840004EA2002050670020783B0500983B050021
:10185000C83B0500E83B0500103C05002DE9F04FB2
:10186000EDB002AFB34B1B6803F00703022B46D861
:10187000B04B1B6803F00703022B46D8AD4B1B6827
:1018800003F00703022B46D8AA4B1B6803F007039B
:10189000022B46D8A74B1B6803F00703022B46D840
:1018A000A44B1B6803F00703022B46D8A14B1B680F
:1018B00003F00703022B46D89E4B1B6803F0070377
:1018C000022B46D89B4B1B6803F00703022B46D81C
:1018D000984B1B6803F00703022B47D8954B1B68F6
:1018E00003F00703022B47D864210220FFF7AEFE66
:1018F0004FF47A7030F0C4FA002425464FE18E4A46
:1019000003218C4832F0D9F8B2E78C4A0321894888
:1019100032F0D3F8B2E78A4A0321864832F0CDF894
:10192000B2E7884A0321834832F0C7F8B2E7864A13
:101930000321804832F0C1F8B2E7844A03217D4890
:1019400032F0BBF8B2E7824A03217A4832F0B5F8A8
:10195000B2E7804A0321774832F0AFF8B2E71423A8
:101960007D4A0321734832F0B2F8B1E77B4A032184
:10197000704832F0A2F8B1E76F4A03216D4832F0A7
:101980009CF8B1E797ED080A20EE000AD7ED097A36
:1019900067EEA77A70EE277A97ED0A7A27EE077A34
:1019A00077EE877A97ED0B0A20EE000A37EE800A71
:1019B00030F04AF9F7EE007A70EE677AF0EEE77AE7
:1019C0009FED677AF4EEC77AF1EE10FA40F1DE800F
:1019D00005F1010907F1680303EB051507F1200381
:1019E0000FCB85E80F005F4A82FB0432E317C3EB9D
:1019F000620303EB83039C4240F05B814D4B1B6809
:101A000003F00703022B40F25681042C71DD092CF0
:101A100074DD55490E2C6EDC8A46544804F1010BE6
:101A20006D4600233B7602227A760123BB760323A0
:101A3000FB763A7704227A77BB770523FB778EB063
:101A40000DF1080C1CF110025DD04FF0280E2AB1E8
:101A5000BEF1040F02DD464BCCF8143000233B7678
:101A600002237B7622B1BEF1080F01DDCCF818A06D
:101A70000123BB760323FB7622B1BEF10C0F01DDFF
:101A8000CCF81C1002233B7704237B7722B1BEF1F4
:101A9000100F01DDCCF820000323BB770523FB7773
:101AA000A2BBBEF1270F6EDD28234AB1082139758C
:101AB00000217975B9750421F9757869CCF81000A1
:101AC0006FF300086FF341086FF382086FF3C508E6
:101AD000032161F38818C3F30A0363F353286FF3F8
:101AE0001F5800234146134807F04EF8AD464D46B7
:101AF00051E01E498EE78A461B488FE7DFF868A051
:101B00001A4801468AE76FF0004EA0E77346BEF11F
:101B1000140F02DD1549CCF82410182B01DDCCF888
:101B200028B01C2B02DD1423CCF82C300CF1300330
:101B3000002125E0D82F0020E46705002C3C05009B
:101B4000A83C0500D83C0500543D0500843D050037
:101B5000B43D0500E43D0500143E0500443E05008B
:101B6000CDCC4C3D67666666E4300500E830050084
:101B7000E03E050007F11800405C03F8010B01315D
:101B80000729F7D98DE76FF01B038EE7984B1B6889
:101B900013F0060F1AD1322030F072F90134132CF1
:101BA00000F38B8007F1200001F04AFC00283FF48D
:101BB000E9AE8F4B1B6813F0070FEFD0631C00904A
:101BC0008C4A01218A4831F08DFFE7E7611CDFED87
:101BD0008A7A30EE270AEB461C220C2312F0070FFC
:101BE0002CD103F1080A52461F3323F00703ADEB53
:101BF000030D0DF10809BAF1000F07D009F1100328
:101C0000FB60BAF1030F1CD86FF01B026FF30006E4
:101C10006FF341066FF382066FF3C506022363F389
:101C2000881662F353266FF31F5609F11002002342
:101C300031466F4806F0A8FFDD46ACE704330432B6
:101C4000CCE753B1BAF1040F02DD6C4BC9F8143084
:101C5000BAF1080F01DDC9F818101C230C2213F08B
:101C6000070F20D1BA60FB6853B1524508DA13441C
:101C70007B6010EE100AFBF741FD7B68C3E90001B1
:101C8000BB6808339A4511DB1A46F9680029BDD0B4
:101C9000C3F387033B7600237B76BB76FB76B8697C
:101CA000C9F81000B2E704320433D8E76FF01B0222
:101CB000EBE74D466FE74D466DE7092D21DC4C4BB8
:101CC0001B6813F0070F0DD1494B1B6813F0070F6A
:101CD00011D132210520FFF7B9FC07F5D677BD46B3
