:020000040000FA
:10000000D8A304206923000071820000552300005A
:100010005523000055230000552300005523000000
:10002000000000000000000000000000BD240000EF
:100030005523000000000000652400005523000047
:100040003526000035260000352600003526000044
:100050003526000035260000352600003526000034
:100060003526000035260000352600003526000024
:100070003526000035260000352600003526000014
:100080003526000035260000352600003526000004
:1000900035260000352600003526000035260000F4
:1000A00035260000352600003526000035260000E4
:1000B00035260000352600003526000035260000D4
:1000C00035260000352600003526000035260000C4
:1000D00035260000352600003526000035260000B4
:1000E00035260000352600003526000035260000A4
:1000F0003526000035260000352600003526000094
:100100003526000035260000352600003526000083
:100110003526000035260000352600003526000073
:100120003526000035260000352600003526000063
:100130003526000035260000352600003526000053
:100140003526000035260000352600003526000043
:100150003526000053B94AB9002908BF00281CBF42
:100160004FF0FF314FF0FF3000F00CB8ADF1080C4C
:100170006DE904CE00F008F8DDF804E0DDE90223C3
:1001800004B07047704700BF2DE9F04786468C46A3
:100190000846089E154674461946002B40F0C1805B
:1001A0008542B2FA82F245D94AB1C2F1200300FA7F
:1001B00002FC954094402EFA03F343EA0C0C4FEAFC
:1001C000154EA8B2230CBCFBFEF80EFB18CC08FBA6
:1001D00000F943EA0C43994528D9EB1808F1FF3799
:1001E00004D2994502D9A8F102072B44A3EB0903D5
:1001F000A4B2B3FBFEFC0EFB1C330CFB00F044EA84
:100200000344A04214D92C190CF1FF3304D2A042AC
:1002100002D9ACF102032C44241A43EA07401EB170
:10022000D440002334607360BDE8F0874746DDE7C3
:100230006346F1E792BB431B01214FEA154EAFB273
:10024000200CB3FBFEFC0EFB1C330CFB07F840EA52
:100250000343984561D9EB180CF1FF3004D298455F
:1002600002D9ACF102002B44A3EB0803A4B2B3FB08
:10027000FEFC0EFB1C330CFB07F744EA0344A742C9
:100280004DD92C190CF1FF3304D2A74202D9ACF19D
:1002900002032C44E41B43EA0040C0E7C2F1200300
:1002A0009540944020FA03F12EFA03F34FEA154EDD
:1002B0009040AFB20343B1FBFEFC0EFB1C10190CC7
:1002C0000CFB07F841EA0041884522D969180CF176
:1002D000FF3004D2884502D9ACF102002944A1EBD9
:1002E00008019BB2B1FBFEFC0EFB1C110CFB07F7D7
:1002F00043EA01439F420ED9EB180CF1FF3104D2BF
:100300009F4202D9ACF102012B44DB1B41EA0041C0
:1003100093E76046E3E76146F7E76046A4E7634694
:10032000B8E7834206D916B9002108467CE7C6E93A
:1003300000E0F9E7B3FA83F78FB9834201D372453E
:1003400008D8BEEB020460EB030301209C461EB9F3
:10035000002169E73846FAE7C6E9004CF8E7C7F13B
:10036000200CBB400EFA07F522FA0CF42EFA0CF121
:10037000BA401C4320FA0CF3B8404FEA1449014339
:100380001FFA84FEB3FBF9F809FB18300B0C08FBCD
:100390000EFA43EA00439A4540D9E31808F1FF30CA
:1003A00004D29A4502D9A8F102002344A3EB0A0320
:1003B00089B2B3FBF9F809FB183308FB0EFE41EADA
:1003C00003418E452CD9611808F1FF3304D28E45C4
:1003D00002D9A8F10203214443EA0040A1EB0E0137
:1003E000A0FB02984145CE46434602D306D14D4577
:1003F00004D20138B9EB020E68EB0403002EA7D03B
:10040000B5EB0E0261EB030101FA0CFC22FA07F3D3
:10041000F9404CEA0303C6E9003199E74046C5E7D5
:100420004346D9E7F0B5404B404A4921C2F800366F
:10043000C2F80436C2F80836C2F80C36C2F81036D4
:10044000C2F81436C2F81836C2F81C3602F58052CB
:10045000C2F800363648C2F8043687B0C2F808360B
:10046000C2F80C36C2F81036C2F81436C2F8183684
:10047000C2F81C3607F058FE00F06AF806F0C3FC1C
:1004800003A800F0BFFE2B4B1B68834204D045211C
:10049000294807F049FEFEE74921059A274807F059
:1004A00043FE039926484B7D0A7DC98A0091492164
:1004B00007F03AFE4921234807F036FE4FF4404149
:1004C000002003F093FE044620B145211E4807F0AA
:1004D0002BFEFEE7012003F06FFF02A99DF810003C
:1004E00000F05AF8029B059D1D44039B1E8903F0F2
:1004F00065FEAF1901F0ECF801F0CEF801F064FFF1
:1005000084F30B8884F30A88AB5983F3088884F357
:100510001488BFF36F8FBFF36F8F7B6898474521B7
:100520000A4807F001FEFEE73546526E0080015092
:10053000C2A1000008240020DBA10000FEA10000F1
:100540002DA200004BA2000070A20000A3A2000098
:1005500010B50F4C204608F090FF28B9BDE81040B8
:1005600045210C4807F0E0BD2269A16813682046C8
:1005700023F0800313600B684FF400320721984783
:100580002046BDE810400022072106F02ABC00BF2B
:10059000A0980000C6A20000024608B538B1054880
:1005A0000023452107F0C0FD6FF0150008BD08606D
:1005B000FCE700BFFDA2000021B1012906D06FF0C9
:1005C00015007047044B53F830007047024B03EBA3
:1005D000C0035868704700BF089C00002DE9F04F29
:1005E0009B46D9B0764B039038A8DDE963890E4667
:1005F0001446659F1D6801F023F8B8F1000F07D07D
:10060000B9F1000F04DD4A46414638A807F016FC50
:100610004FF0000833897289D6F80CA013449A442D
:10062000C2453DD838A90CA807F02EFC27B12022DE
:1006300038460CA907F0A0FE00232246009331465D
:100640004FF6FF7306A806F0DFFB074628BB2146DE
:1006500003980B9E06F0B3FC86421ED84FF0FF367F
:10066000DFF860B1DFF860910DF1120304AA05A96B
:1006700006A806F017FC00280FDB40F09A800599C9
:1006800006A806F05BFC10BB4FF6FF71BDF8120028
:100690004E4A32F8023B8B4217D1494B1D688BE022
:1006A000629BAAEB0809994528BF99465A464B46D2
:1006B0004146204607F046FD0028EED14A465946FD
:1006C00038A807F0BBFBC844AAE79842E1D1BDF8BF
:1006D0001230102B17D0222B4DD0012BC4D1BDF8D6
:1006E0001030202BD9D82046059938AA07F02AFDCA
:1006F00006460028D1D19DF810A0BAF1200F19D9D3
:100700004FF0FF36B0E7BDF81070202FC5D13B4643
:100710002046059938AA07F015FD0028BDD13A46B4
:1007200038A90CA806F044FCDBF800308342B4D1B1
:10073000012799E7D9F80030DFF894800393039BF1
:100740009E42DDDA1CA800F07BFFD8F804201CA82C
:10075000126858F8081B07F071FB1CA914A807F0D1
:1007600093FB524638A914A807F0F6FD00283FF481
:100770007BAF0136E3E7731C3FF476AFD9F8003066
:10078000B342BDDDBDF81030802B86D820460599D8
:1007900038AA07F0D7FC00287FF47FAFF6B22021FB
:1007A000BDF81030009638AA0CA800F013F80546E2
:1007B000A6E7002F3FF471AF284659B0BDE8F08F8F
:1007C0000820002008240020189C000084A10000BC
:1007D0001C9C00002DE9F04798B016461D469DF878
:1007E0008020394B074653F8321003EBC2035B6895
:1007F00003911868DFF8D4800144302304AA03A8C9
:10080000D8F8009006F0D3FC002849D1DDE9034375
:100810001C44214608AB05AA03A806F0F0FC0028FA
:100820003ED1069A072A3BD12949079807F094FD43
:10083000002835D1099A082A32D126490A9807F0AA
:100840008BFD68BB214604AA03A806F0C4FC38BB94
:10085000DDE903A30AEB0302944221D1412B1FD10E
:1008600035443023294605AA04A8049606F09FFCC7
:10087000A0B9DDE9043213449D420FD32A4604A9EE
:1008800008A806F069FB48B92A4604A910A806F092
:1008900063FB18B99AF80030042B05D0D8F8009003
:1008A000484618B0BDE8F08700F0DCFD202200903B
:1008B000394608AB0AF1010007F05DF90128EDD1D6
:1008C000054BD3F80090EBE71C9C000008200020AB
:1008D0002CA3000023A3000008240020034637B502
:1008E0004FF40072084693F8B84013490192620031
:1008F00051F82250A8420ED1582101FB043201FBCD
:100900000434526A283401A907F08EFC08B9019B0F
:10091000236003B030BD013251F82220904208D14B
:10092000582101FB043201FB0433126D03F154041E
:10093000E9E70120EDE700BF249C000070B590F8C6
:10094000B850104E6D0056F825100446FFF7C6FF4C
:1009500098B9013556F825102046FFF7BFFF054628
:1009600068B9582294F8B83002FB0343186A07F0BC
:100970002BFCC4F8B400284670BD0125FBE709250F
:10098000F9E700BF249C00002DE9F04F4FF02C0840
:10099000582508FB01F890F8B890044605FB098338
:1009A00003441E6A87B030460F4607F014FC024627
:1009B00094F8B80015FB008525446B1E033513F829
:1009C000011F914254D1AB42F9D1454B1D682846D5
:1009D00007B0BDE8F08F434B1D68434B1B68AB422B
:1009E0000DD057B1B2680021304607F0D5FB3F4A21
:1009F00045213F4807F098FBE7E73E4AF8E75822D1
:100A000094F8B8305343E218D16C8E42DFD1D2F85B
:100A10002080002205922C2202FB073323441989EF
:100A20000423304605AA194407F08CFB0028CCD1DA
:100A300094F8B830012B17D0002BC8D1D8E9012386
:100A400013440599914201D39942C0D945212A48BE
:100A500007F06AFB4521294807F066FB0021304674
:100A6000B26807F099FBB0E74FF08273244AE8E7D9
:100A70004FF0580B2C220BFB09F302FB0733E51850
:100A80002969CA06A1D4E2581E4B9A42A3D1EB6849
:100A90002A89D2189FD26B899B189CD2B268934244
:100AA00099D240F60C6A11EA0A0A94D1394603F049
:100AB0008DFC0546144B1B6898428ED14FF4807311
:100AC00009FB0B81009332462046CDE902AA0F4B69
:100AD000CDF804A02144FFF781FD05467DE700BF66
:100AE0000420002008200020082400203CA300004F
:100AF00046A3000034A300006EA30000B7A30000CB
:100B0000008800013DB8F396002000207C71002091
:100B10002DE9F84F884691469A460026DFF88CB0BA
:100B2000234D244C0B9B9E4201D300200FE00B9BD6
:100B300040469F1BB7F5806F28BF4FF480671B4A64
:100B40003B4606EB0A0107F0FDFA10B10120BDE8B3
:100B5000F88F0A993B465A464846711807F007FB3A
:100B60000028F3D1144BC5F800463E44C5F80446AE
:100B7000C5F80846C5F80C46C5F81046C5F8144631
:100B8000C5F81846C5F81C46C3F80046C3F8044625
:100B9000C3F80846C3F80C46C3F81046C3F8144619
:100BA000C3F81846C3F81C46BCE700BF0C2400205D
:100BB000008001503546526E009001502DE9F04FF3
:100BC000002604460D46B046DFF85892DFF858B2CA
:100BD00095B0012E84F8B86029D90026934F17F8F4
:100BE000011B012918D13046FFF7E6FC0EA9C0B25F
:100BF00001F00CF90346002840F003810E981946D5
:100C0000826807F0C9FA0346002840F0FA803246AD
:100C10004521874807F088FA002E00F0F080B8F1EF
:100C2000000F00F06E8100232C275826F5E0A31951
:100C300093F8B930002B56D1582707FB064109EB32
:100C400006324A6202F500520A653046194602939E
:100C5000FFF7B2FC94F8B810824607FB0141C0B21E
:100C6000203101F0D3F8029B70B901213046FFF723
:100C7000A3FC94F8B810824607FB0141C0B24C3186
:100C800001F0C4F848B10123CDE9003052463346A3
:100C90004521684807F048FAFEE72046FFF74EFE78
:100CA000064690B90021204606F0E4F90746F8B15F
:100CB0005721584694F8B82007F036FA012294F8E4
:100CC000B830234483F8B0200DE04FF40072572170
:100CD000594807F029FA012294F8B8309642234483
:100CE00083F8B020DED194F8B8600136F6B270E730
:100CF000204600F097FA0028E0D00AA806F0E3F9B1
:100D000006F0EAF90646C0B994F8B83023B90021D4
:100D1000204606F0AFF9D1E794F8B020042A04BFCA
:100D2000012284F8B020012BF1D094F8B130042BCB
:100D3000EDD1012384F8B130E9E79DF82F30012B84
:100D40004BD1582294F8B8300E9702FB03433B4A2C
:100D5000D96AD86C91422AD1998E04230EAA1944DB
:100D600007F0F0F9F0B1052794F8B830234483F880
:100D7000B07094F8B8306BB1E21892F8B020012A44
:100D8000B1D0042A0CD094F8B020042A02D1012258
:100D900084F8B020234493F8B030023B022BA2D851
:100DA000B046A0E7022194F8B830204AD15494F814
:100DB000B80003F0B5FB831E022B0746D4D80121EF
:100DC0002046FFF7E1FD1E4B1B689842CCD01D4B1F
:100DD0001B689842C7D10127C6E701212046FFF7CB
:100DE000D3FD174B1B68984218BF052294F8B83002
:100DF00008BF9DF82F20234483F8B020B9E70126CF
:100E0000EDE632464521104807F08EF904E7E21876
:100E100092F8B910D1B10133DBB2012B84F8B830AC
:100E2000F5D96EE00C2800206DA400007C72002033
:100E300099A40000DEA300002BA400003DB8F396A7
:100E40000824002004200020C4A4000092F8B02050
:100E50000EA802F0FB02013A18BF01227A4306FBFA
:100E600003212144D1F8208016FB032101234246AF
:100E700000932144402305F0C7FF00285FD10023E1
:100E80000DF1160206A90EA806F00CF8002838DBB2
:100E900052D1BDF816300C2B53D14046069907AA03
:100EA00007F050F968BB9DF81C30012B29D8E218D7
:100EB00092F8B0207343023A022A8CBF002201222A
:100EC00007FB02332344197D9DF820209142D6D898
:100ED0000AD3597D9DF821209142D0D804D3DA8AD3
:100EE000BDF822309A42CAD294F8B830234493F81D
:100EF000B020012A1ED0023A012A02D8012283F82A
:100F0000B02000274FF0FF094FF05808012F84F858
:100F1000B8701BD90023DFF8CC82B34EB34F0E93C9
:100F2000012B84F8B83040F2EB800E9A022A00F0D0
:100F30003981FEE70422E2E794F8B8306BE7032832
:100F4000DFD140F20113A4F8B030DAE7E21992F8E9
:100F5000B960002E40F0CF800AA806F0B4F892F8ED
:100F6000B030042B8DF82F3006D8012B06D800F0B6
:100F7000B38082F8B090AFE0052BF8E708FB074399
:100F800019463846DA6C2C3108F0C2F8012882463E
:100F900040F0A28001460EAA20460E9606F012F8F6
:100FA00094F8B87049213A46914807F0BDF84921B4
:100FB000904807F0B9F894F8B83006A908FB034345
:100FC0001B6A4FF0580B187800F020FF0AEB47001F
:100FD000B246894B07A913F8200000F017FF94F8D8
:100FE000B83008FB03439B6A534519D094F8B820E6
:100FF00031460BFB0242526A069802EBCA02526863
:101000000393029207F0C8F8029A039B16440E9AC3
:1010100096426DD3D4F8B460B2FBF6F206FB0266DA
:10102000D4F8B40005F0C6FF582394F8B82003FBA9
:101030000242536A926A1968013A03EBC203002222
:10104000D3F804E09C4672449042A3F10803F7D819
:10105000DCF800300698591A07F09EF833463A46F5
:101060004921664807F060F8DDE9062100232046A3
:1010700001960093FFF74CFD70BB069803F0DAF978
:1010800050BB582794F8B800324607FB0043196A52
:1010900008F04CF80146F8B994F8B830079807FB07
:1010A00003431B6D5A6807F077F894F8B83007FBD4
:1010B0000343D3E91423013B52F8331002EBC3007E
:1010C00013684268C91A079807F066F8069807F08F
:1010D00038F8079807F035F894F8B830234493F8B7
:1010E000B030FF2B07D14521454807F01DF8FEE73A
:1010F0000AF1010A78E794F8B8700137FFB205E702
:10110000234493F8B9208DF81C209DF81C2002F090
:10111000FF013AB10E9B01330E9394F8B8300133BE
:10112000DBB2FDE693F8B030012B14D0204605F079
:10113000A1FF80B1D8F80050102200210AA807F0C2
:1011400026F958260023012B84F8B83015D92846F3
:1011500015B0BDE8F08F00212046FFF715FC33687D
:101160009842E7D1D8F800309842E3D03B689842E3
:10117000D0D1DFE784F8B82031E0E21892F8B92046
:101180005AB906FB0343D86C06F0DBFF94F8B8307D
:1011900006FB0343186A06F0D4FF94F8B830013315
:1011A000DBB2D0E794F8B93023B194F8BA30002B11
:1011B000E0D10123582684F8B83006FB0343186AAF
:1011C00005F01FFE287194F8B83006FB03431B6A34
:1011D0005B68AB6094F8B83003FB06462E60024BA8
:1011E0001D68A9E708200020082400200420002012
:1011F000FBA4000030A50000249C00004EA50000C8
:1012000098A5000038B5064D0446BC2200212846AA
:1012100007F0BDF821462846FFF7D0FC38BD00BFD7
:101220000C6800205822F8B590F8B83002FB030093
:10123000D0F828C0466DBCF5007F02D8B6F5007F17
:1012400036D957211E4806F06FFF0020F8BDA54291
:1012500016D1476A07EBC2077F6801323D44076D2C
:1012600007EBC3077F6801333C449445EFD89E42A7
:10127000EDD8944501D19E4220D057211148E2E794
:101280000CD2476A022907EBC2077F683D4402D1AE
:1012900057210D48D7E701210132E6E7076D012903
:1012A00007EBC3077F683C44F2D002210133DCE73F
:1012B00000210B460A460C460D46D6E70120C5E73D
:1012C000A4A500000AA60000D3A500000A4619B193
:1012D000024B00211B681847704700BF0C200020FC
:1012E0000822F0B589B006F0C6F8CB6A0027039350
:1012F0000B6B0C4604934B6B064605938B6BCDE949
:1013000001770693CB6B0097079313466A46114605
:10131000104605F0BEFF31460546304605F0B9FFE0
:10132000216B05440391616B10460491A16B0591FB
:10133000E16BCDE90617114605F0ABFF31460544D8
:10134000304605F0A6FF0544206ACDE904770090F9
:10135000606A03970190A06A0290A06B0690E06B10
:101360000790304605F095FF0544606AD4F838C010
:101370000090A06ACDF810C00190E06AD4F83CC09B
:101380000290606BCDE905C00390206A079030465B
:1013900005F07FFF0544E06ACDE904770090206BFB
:1013A00003970190606B0290206A0690A06A0790F4
:1013B000304606F093F8236B2D1A0093636B30468A
:1013C0000193A36B0293E36B0393636A0693E36A4F
:1013D0000793082306F082F8636B2D1A0093A36B22
:1013E00030460193E36B0293236A0393636A049389
:1013F000A36ACDE90537236B0793082306F06EF83F
:10140000A36B2D1A0093E36B3046CDE90137636A75
:101410000393A36A0493E36A0593636B079308231A
:1014200006F05CF82D1A10D40D4C35B9082231465F
:10143000204606F02CF801280FD00823224631461A
:10144000304606F04BF82D1AEFE7054A08233146DF
:10145000304605F01EFF2D18F8D409B0F0BD00BFCE
:10146000389C000000487047349C00002DE9F04F84
:10147000002703689DB002934368DFF8BCA1039383
:101480008368DDE902460493C36805930369DDE9D7
:1014900004BE0693436907938369DDE9062C08932C
:1014A000C36998460993089B0093CD590CAB2DBA9C
:1014B0005AF8049BDD514FEAF223A94483EAB213A0
:1014C000009D83EA72634B4425EA020502EA0C0997
:1014D00085EA09052B44434486EA0B054FEA743834
:1014E00088EAB408254006EA0B0985EA090588EA76
:1014F000B4580437A844402F03EB0E054344DE469E
:10150000DDF8008040F088804FF0100A4B490A91C6
:1015100051460AF1010A0DF1700E0AF00F070EEBA9
:10152000870757F8407C01F00F094FEAB748019749
:1015300088EAF71801F10E0707F00F070EEB87078F
:1015400057F8407C09314FEAF74E8EEA774ECDF8D6
:101550002CE001F00F010DF1700E0EEB81010EEB8E
:10156000890959F840EC51F8401CBAF1400F714418
:10157000DDF804E088EADE08DDF82CE041448EEA7C
:10158000972E714405EA02084FEAF52E2CEA05076A
:1015900087EA08078EEAB51EDDF828808EEA756EA8
:1015A000774458F804EF49F8401C77440F440099F9
:1015B0004FEA733E394484EA0607CDF828808EEA64
:1015C000B30E07EA030704EA06088EEAB35E87EA69
:1015D000080777440F4401EB0B0ECDF800C0B3466B
:1015E00022D102993944016003991944049B416056
:1015F00023448360059B3344C360069B73440361AB
:10160000079B2B444361089B13448361099B6344FC
:10161000C3611DB0BDE8F08FB346CDF800C02646CB
:1016200094461C462A4640E7944626462A461C46CF
:1016300075463B466CE700BFE49C0000209D00001F
:1016400010B50446C8B17022002106F07AFC0B4B9D
:101650000B4A0C49C4E900230B4B0C48C4E90213A4
:101660000B4BC4E9040301200A4BA36103F174533B
:10167000A3F52303A3F69243E36110BD85AE67BBD8
:1016800067E6096A72F36E3C3AF54FA57F520E5138
:101690008C68059BABD9831FBFF36F8F72B6002395
:1016A0004FF0FF30094A03F120010133102B42F8BB
:1016B0002100F8D100234FF0FF30044A03F160010C
:1016C0000133102B42F82100F8D1704700E100E00F
:1016D0002DE9F8434FF0FF3501274FF00008204B6C
:1016E000DFF880905F60C3F84853C3F8085303F5F0
:1016F00080535F60C3F84853C3F8085359F8044B4C
:10170000002644F30730C4F8085300F0F7FE8022A7
:101710006760C4F84C61D4F84C31C4F81061D4F857
:101720001031C4F844613146D4F84431A018C4F8EB
:10173000006506F02CFE8022314604F5C07006F0EC
:1017400026FEB8F1000F08D0074BC3F808554FF03C
:101750005023C3F80853BDE8F8834FF00108CDE7E4
:1017600000400150E89D000000700150014B1B68D3
:10177000184700BF10200020014B1860704700BFC1
:101780001020002007B50B460021024600910348B7
:1017900000F006F803B05DF804FB00BF6D17000011
:1017A0002DE9F04F82464FF000098DB01D46531EC3
:1017B00001910393039B58785C1C252819D10020C4
:1017C0004FF0FF381E4644460346023602903178F9
:1017D0000396392955D81F2914D8002900F0EF8124
:1017E00001992520D04701993078D04709F10209A5
:1017F000E0E7002800F0E3810199D04709F10109F1
:101800000394D7E7A1F12002192AE9D801A757F8D4
:1018100022F000BF7D180000E1170000E117000072
:101820007D180000E1170000FD180000E11700001E
:10183000E1170000E1170000E1170000491900005E
:101840007D180000E11700005D1900000919000073
:10185000E1170000171900003719000037190000C0
:101860003719000037190000371900003719000038
:1018700037190000371900003719000008460136F3
:10188000A5E7582900F0EB80A1F16302D7B2172F2A
:10189000A6D8172AA4D801A757F822F0051B0000E4
:1018A00083190000E1170000E1170000E1170000B4
:1018B0006319000083190000E1170000E117000020
:1018C00063190000E1170000E1170000E1170000B4
:1018D000391A0000E1170000E1170000D91A0000D2
:1018E000E117000083190000E1170000E117000074
:1018F000391A0000E1170000631900002520019942
:10190000D04709F1010955E7029A4FF0000802F0AB
:10191000FE020292B3E7002C0DDAB8F1000F0DDAE7
:10192000029A002A00F043810A2224EAE47402FBAE
:101930000414303CA3E7B8F1000FF5DB0A2202FBE8
:101940000812A2F130089AE7B8F1000F55F8042BFD
:1019500080F22F81002A80F22E81544202220292CC
:101960008DE7682903D1682B06D1482387E76C29C6
:1019700002D16C2B00F02181002B7FF431AF0B469C
:101980007DE77A2B06D1752955F8046B14D14FF0F9
:10199000000B0CE06C2BF6D04C2BF4D1073525F066
:1019A0000703752903F10805D3E9006B06D1202848
:1019B0003BD1854F013C09E04FEAE67BBBF1000FCC
:1019C000F5DA7642814F6BEB4B0B013C0DF12D03A9
:1019D000059300230493304659460A220023FEF75C
:1019E000B9FB059BB446303203F8012D5A460593E6
:1019F000049BBCF10A0F8B4672F1000203F1FF3128
:101A000006460491E7D2C3F1010B30330DEB030618
:101A1000B8F1000FA6F104066DDA029BD9077DD458
:101A2000A8EB0B03A4EB0B0413E02B280ABF684FB1
:101A3000684F04F1FF34C9E770290FD155F8042B22
:101A40000023FAB96FF004034FF0050B614F624EAB
:101A5000053C029A920770D4A04666E078216C2B70
:101A600003D1002355F8042B08E04C2BF9D107359E
:101A700025F007031D465B6855F8082B232825D160
:101A8000880621D5554F023C002601F06001A1F1E6
:101A9000390B0DF12D0E02F00F01092988BF5944B1
:101AA00030310EF8011D102A4FEA121141EA03717C
:101AB0004FEA131C73F1000306F1FF3008D2C6F1A0
:101AC000010B06F13003A1E7454FDCE7414FDBE7AF
:101AD00006460A466346DEE755F8046B304606F0D4
:101AE00034FCB8F1000F834602DB4045A8BFC34673
:101AF0004FF00008374FA8EB0B03002B92DDA4EB4F
:101B00000804A6E755F8043B4FF0010B8DF8183098
:101B1000304F4FF0FF33013C06AE9AE7A046EAE7AC
:101B2000029320200199D047029BB8F10108F7D514
:101B300024EAE472013C9144A41AB84606E00493F6
:101B400002920199D047029A049B9046424612F8AD
:101B5000010B0028F3D11A46013A15D5002BACBF72
:101B6000C7EB03077F425B46013B15D5BBF1000F76
:101B7000A8BF5F4426464F44013E14D5002CA8BFA1
:101B80003F1907EB080915E60493029230200199EA
:101B9000D047049B029ADFE70293019916F8010BE4
:101BA000D047029BE0E701992020D047E4E70122DB
:101BB000D5E6904663E6144661E64C235FE6484668
:101BC0000DB0BDE8F08F00BF95A6000093A6000001
:101BD00097A60000FCA200009FA6000099A60000A6
:101BE0009CA600002DE9F047058B04462807904687
:101BF00011D4022905F0070540F0CC80204606F0FC
:101C0000BBF978B10138218B042811D8DFE800F046
:101C1000C2106D85950001290CBF45F0100545F0F7
:101C20002005258388F31188BFF36F8FBDE8F08707
:101C300001F0070AAA4500F0A5800027B9463E46F4
:101C4000A368002B00F0BC8041F00801218388F3D9
:101C50001188BFF36F8FA168002900F0BA800D686A
:101C6000002900F0B680334652462046D1F8048061
:101C7000C047002D76D02B6829461D46F0E701F0BD
:101C800007035A1F012A1BD8002221F00701062B47
:101C9000276889B2C4E9002209D13B4603E0628B80
:101CA000013262831B68002BF9D141F0020120460A
:101CB000218306F061F900287AD041F0200176E016
:101CC000042B0AD121F0070189B22046218306F0B6
:101CD00053F910B141F020012183218B01F0070A53
:101CE000AA454FD00027B946AAE7236921F007018A
:101CF00041F00601062DD3F8009021832DD1B9F1D2
:101D0000000F3FD041F00801218388F31188BFF311
:101D10006F8F20463949C84729E021F00701236920
:101D200041F0040189B2042DD3F804902183E6D058
:101D300000274FF0040A3E4682E721F0070123699D
:101D400041F0050189B2052DD3F808902183D6D042
:101D500000274FF0050A3E4672E700274FF0060ABB
:101D60003E466DE72B4687E7B9F1000FD1D1EFF37F
:101D70001188202383F31288BFF36F8F238B23F006
:101D800008032383258BEA062ED525F01003238331
:101D900005F007056669218B002EBFF670AF0023A2
:101DA0002768C4E9003321F0070141F001012183D4
:101DB000218B4FF0000901F0070AAA457FF440AFDC
:101DC000002F9CD041F00801218388F31188BFF3D4
:101DD0006F8F002FC8D03D683946334652462046A3
:101DE00006F0F6F82F46F4E7AB067FF51BAF25F0BB
:101DF0002003238305F0070500E700BFFD7F0000F7
:101E0000014B036000207047F09D000070B5104B3F
:101E10000D461C68B4B10F4B196800238B4202DBDE
:101E20006FF0010070BD224612F8106B864202D09E
:101E300014460133F2E7E06807F01FFB28B10020E9
:101E40002C60EFE76FF00C00ECE76FF01200E9E7B1
:101E500014200020F09D000010B5436888B0029364
:101E600083680C46CDE9033200230A68C068CDE9D7
:101E70000623054901AA059306F036FB079808B921
:101E8000059B236008B010BDE581000008B505483A
:101E900006F05BF8044806F058F8BDE8084003482F
:101EA00006F053B8A5A60000D6A6000009A70000BA
:101EB000014804F053BE00BFA49E000038B504469C
:101EC00018B90F4B0F485B6898476168B1F5683FD8
:101ED00010D0B1F5680F0DD00B4DA9420AD011F406
:101EE0006861206807D00146084807F021FB0023FD
:101EF0002360656038BD142206F049FAF9E700BF97
:101F00004C21002037A700002C5F5CA9C86D002081
:101F100008B560B34368B3F5683F0ED0B3F5680FFA
:101F200018D0144A934220D000684FF0FF324FF08F
:101F3000FF3303F0E1FE58B115E001220368D3E856
:101F4000EF1F002903D1C3E8E02F0028F7D10AD101
:101F5000002008BD0368084A1B7803F5807352F817
:101F60002330002BF4D00548F3E70548F1E76FF480
:101F7000E040EEE72C5F5CA900000350E98FFFFF13
:101F8000EA8FFFFF08B520B34368B3F5683F09D077
:101F9000B3F5680F13D0114A93421DD0006803F0C7
:101FA00023FF14E000220368D3E8EF1F012903D1C7
:101FB000C3E8E02F0028F7D109D0094808BD002167
:101FC0000368084A1B7803F5807342F82310002049
:101FD000F4E76FF4E040F1E70348EFE72C5F5CA91A
:101FE000E98FFFFF00000350EA8FFFFF10B50446A2
:101FF00018B91D4B1D485B6898476368B3F5683F87
:102000002FD0B3F5680F2CD0194A934219D1236809
:1020100003BB4FF0FF324FF0FF332146154803F06A
:102020003DFE08B923681BB90F4B13485B689847FE
:1020300014220021206806F0AAF94FF46863636057
:1020400008E0B3F5683F0DD83A2B03D040F6BA62EA
:102050009342DED1206807F0B5FA636843F03A0393
:10206000636010BD054AF3E74C21002037A700004C
:102070002C5F5CA9C86D00205DA700003A00003A03
:1020800008B5064940231422054807F043FABDE885
:1020900008400449044804F0D3BD00BFC8680020CC
:1020A000C86D0020AC9E0000C09E000030BFFFF74E
:1020B000FDBF00BF074A936893F90E10002907DBA4
:1020C000526993421FBF044A536843F080535360E0
:1020D000704700BF746F002000ED00E0154B9A6A56
:1020E00012F0007F9A6A14BF1E201D2012F0807F1C
:1020F0009A6A18BF1F2012F4801F9A6A18BF022024
:1021000012F4002F9A6A18BF212012F4802F9A6AC5
:1021100018BF222012F4003F9A6A18BF232012F43D
:10212000803F9A6A18BF24206FEA02426FEA124287
:102130009A62704700ED00E010B5194B0246986AAC
:102140009C6A10F4805F14BF1720162014F4006FEF
:102150009C6A18BF1820A40509D5986B986A0004DA
:1021600004D51AB19A6A22F400429A6219200C4BE3
:102170009A6A12F4806F9A6A18BF1A20D2050CD49A
:102180009B6A13F4005F18BF1C20054A936A43F44E
:102190007F43936200230B7010BD1B20F5E700BF47
:1021A00000ED00E010B51C4B0246986A9C6A10F0E6
:1021B000100F14BF1120102014F0080F9C6A18BFD4
:1021C0001220A40709D5586B986A000604D51AB1E5
:1021D0009A6A22F080029A6213200F4B9A6A12F0D8
:1021E000010F9A6A18BF142012F0200F9A6A18BFC4
:1021F0001520D40658BF9B6A074B9A6A920642BFC5
:102200005A6A22F400525A629A6A42F0FF029A62B3
:1022100000230B7010BD00BF00ED00E070B5444B13
:1022200006465B6800258AB0C3F3080385F311886E
:10223000BFF36F8F02F07F40B0F17F4F11D102F0FA
:102240000C0008280DD010074CBF0E4601250022B7
:10225000033B8DF80720032B05D8DFE803F01E5C55
:1022600060592E46F3E700249DF807309BB92022E1
:10227000314602A806F080F8099B002D53D0C3F325
:10228000080222B96FEA53236FEA432309932046D9
:1022900002A905F0E3FF0AB070BD254BDA6A910789
:1022A000E1D4DA6A002ADEDBDA6A5200DBD55A6949
:1022B000B16942F480725A61BFF34F8FBFF36F8FE1
:1022C0005A6931F8021C22F480725A61BFF34F8FB1
:1022D000BFF36F8F4DF60272914209D09A6AD2B263
:1022E00042B101200DF10701FFF75CFF0446BBE797
:1022F0003468B9E79A6A12F47F4F05D001200DF1D6
:102300000701FFF719FFF1E79B6AB3F5803FAAD3F6
:10231000FFF7E4FEEAE700200DF10701E4E7002003
:102320000DF10701EDE723F4FF7323F00103ADE79F
:1023300000ED00E0064B5A6942F010025A615A69FA
:1023400042F480625A615A6922F008025A61704769
:1023500000ED00E0EFF30880EFF3098101B572466C
:10236000FFF75CFF01BD00BF002080F31488BFF3BE
:102370006F8F002080F30A8880F30B880F4880F36A
:10238000088802F065F900200D490860BFF34F8FFF
:1023900000F02CF8202080F311880A484FF40061E7
:1023A000401880F30988EFF314800221084380F37A
:1023B0001488BFF36F8F00F0D9F80000D8A3042071
:1023C00094ED00E098720420002318460649D1F8E5
:1023D0009020C2F30722934200DB7047C1F8983087
:1023E000C1F8A0000133F6E700ED00E010B572B6C9
:1023F000002484F31388FFF7E7FF23464FF0FF30F4
:102400000C4A03F120010133102B42F82100F8D1CE
:1024100000234FF0FF30074A03F160010133102B16
:1024200042F82100F8D162B6BFF34F8FBFF36F8F30
:1024300010BD00BF00E100E0084B9B6883420BD158
:10244000EFF3058343B1064B5A6842F080525A605D
:102450005A6A22F400425A6204F042B8746F0020B3
:1024600000ED00E013498A684FF030001044EFF3AC
:10247000098C80E8F01F202080F31288BFF36F8F53
:102480000D4F4FF000664A698A603E60506F00232E
:10249000536780F3118802F1300090E8F01F8CF34D
:1024A000098802F1000004B505F0EDFEBDE8044026
:1024B00070470000746F002004ED00E01EF0040F70
:1024C0000CBFEFF30880EFF30980816911F8021C5B
:1024D0000229FFD001B5724605F0C6FE01BD00BF5E
:1024E00040B2002807DB01234109034A00F01F0026
:1024F000834042F82130704700E100E040B20028FC
:102500000CDB01220649430900F01F008240203302
:1025100041F82320BFF34F8FBFF36F8F704700BF89
:1025200000E100E0054B420953F82220012300F0AE
:102530001F0003FA00F01040704700BF00E100E008
:1025400040B2002801F10101ACBF00F16040064B30
:102550004FEA4111C9B2ABBF00F5614000F00F0076
:1025600080F800131954704714ED00E00B4A08B5C9
:102570000B4B22F07F029A60BFF34F8FBFF36F8F38
:10258000D3F8882022F47002C3F8882003F0C6FA3A
:1025900004F0B4F800F042F803F000FB0000000083
:1025A00000ED00E042F8203C009B0B4942F81C3C47
:1025B000019B21F0010142F8183C029B42F8081CE3
:1025C00042F8143C4FF0807342F8043C0023203A58
:1025D00002654367704700BF657F000000B5094B87
:1025E0000E4698601546436E83F30B882C4686F39F
:1025F00009880020044B9847204600210022002330
:10260000024C2047746F00208F820000657F00001D
:102610001022014B1A61704700ED00E000232021D9
:102620000348C2180133452B82F80013F9D17047D3
:1026300000E100E008B5EFF30583064A103B02EB2A
:10264000C30152F8330049688847BDE80840FFF7E6
:1026500031BD00BF2C9900001FB5094C094A234623
:102660000121094800F0FAF800230393074B0121E8
:10267000E41A01A80193029400F0FAF804B010BD26
:102680000000072000200020D09E000048220020EB
:1026900010B50C7A0B6804F01F0223F01F031A43D5
:1026A000CB68640923F01F03054943EA440343F060
:1026B0000103C1F89800C1F89C20C1F8A03010BDFA
:1026C00000ED00E010B5074BD3F89030C3F30723BB
:1026D000013B984202D8FFF7DBFF10BD6FF01500F9
:1026E000FBE700BF00ED00E02DE9F04F0F46144678
:1026F00006464FF000084D4D85B0B84580F29280F7
:10270000D6F80490B9F1000F36D0B9F11F0F40F29E
:10271000878019F01F0F40F08380D6F800A01AF0D0
:102720001F0F7DD1504605F0EEFD834609EB0A00F0
:10273000013805F0E8FD834572D11BF1160F6FD00B
:102740005C456DDDC5F898B0D5F89C10C5F898B01B
:10275000D5F8A03021F01F0143F01F0AD6E900325E
:102760001A44994202F1FF391ED1CA4508D13146B7
:102770005FFA8BF005F0D0FD08F101080C36BCE7DC
:102780003146C5F898B0D5F89C3022F01F0203F00E
:102790001F031343C5F89C30E0B205F0BDFD10F1F6
:1027A000160F3DD0441CE7E7C5F898B0D5F8A02037
:1027B000013B23F01F0302F01F021343CA453146B9
:1027C000E0B2C5F8A030E8D005F0A6FD10F1160F74
:1027D00026D0C5F898B0D5F89C209DF808300AF1AD
:1027E000FF3A62F304038DF80830D5F8A0309DF865
:1027F00008205B0863F347128DF80820D6E9003201
:102800001344009323F01F035344A3EB0903013047
:1028100023F01F036946C0B20393FFF753FFBEE7DF
:102820006FF01504204605B0BDE8F08F00ED00E024
:102830000522044BC3F89420BFF34F8FBFF36F8F73
:10284000704700BF00ED00E0BFF35F8F0022024B36
:10285000C3F89420704700BF00ED00E010B5034CB2
:102860002278FFF741FF207010BD00BF7E7200206C
:102870002DE9F74F294D8A4606464FF00008AB4632
:10288000274FD0451BDAD6F80490B9F1000F3FD09E
:1028900031680846019105F036FD0199044609EBBF
:1028A0000100013805F02FFD84424FF014021D4B4A
:1028B00008D002FB08F36FF015024BF8032003B0B9
:1028C000BDE8F08F14F1160F2C60F8D01978A142F2
:1028D000F5DD02FB08B0C7F89840C7F89840D7F874
:1028E0009C4000F10801007B64F304000871D7F8F4
:1028F000A0000C79400860F347140C71D7F89C10C5
:1029000021F01F016960D7F8A01021F01F01296193
:1029100008F1010814350C36B3E700BFE46D002060
:1029200000ED00E07E720020F0B54149414CD1F845
:1029300090302568C3F307239D4287B075D80020E7
:10294000FFF782FF3C4BC1F8C030854216D13B4CAB
:1029500001A82570FFF754FA00250646384FAE420D
:1029600013D1002023783249D1F89020C2F30722F6
:10297000934254DBFFF75CFF00202FE0616801EB1E
:102980000011FFF785FE0130DFE70199280101EB17
:102990000513DA683A40B2F5001F21D0B2F5800F76
:1029A0002BD0B2F5801F38D15A689B680958013B7B
:1029B00022F01F0003440120844623F01F0340EA55
:1029C0004C10CDE902218DF8100002A92078059362
:1029D000FFF778FE00281DDA6FF0150007B0F0BD94
:1029E0005A689B680958013B22F01F0003444FF0CE
:1029F000020C012023F01F03E1E75A689B68095885
:102A0000013B22F01F0003444FF0000C022023F092
:102A10001F03D4E723780133237001359FE7C1F802
:102A20009830C1F8A00001339EE74FF0FF30D5E7A2
:102A300000ED00E0DC9E0000AAFF44007E72002052
:102A40000000F0FF014B1860704700BF38200020E5
:102A500000F01F0240090DD001280DD1094B03EBF6
:102A60008203D3F8002222F0E04242EA0171C3F867
:102A700000127047044BF2E70023803253F82230F3
:102A8000FFDE00BF002884500025845038B50124A3
:102A9000134B144DC3F8004502230321C5F8D0366B
:102AA0000020FFF7D5FF20460321FFF7D1FFC5F82F
:102AB00004472146C5F804492120C5F8004BFFF71B
:102AC000C7FF21462020FFF7C3FF21462520FFF73F
:102AD000BFFF21462420FFF7BBFF002038BD00BF09
:102AE000001000500040005007B50DF1070001F044
:102AF000D3FE114B98421CD14FF480620F4B10490A
:102B0000C3F8B8254FF40062C3F83C259DF80700D0
:102B100006F082FB0B499DF8070006F078FB0120C8
:102B20009DF80730984001F0B1FE002003B05DF839
:102B300004FB6FF00B00F9E70000AD0B00A00250A2
:102B40002CA0025028A10250052370B5144D154E3B
:102B50002C780134B4FBF3F303EB8303E41A06F09F
:102B6000A4FA114A137823B156F82430C01A072862
:102B700014D94FF05023D3F8141141B10021C3F8F8
:102B80001411D3F814312C700CB9012313702C7864
:102B900006F08BFA46F82400012070BD0020FCE707
:102BA00080720020F86D00207F72002048B1054B34
:102BB000054A1B68B3FBF2F35843044B43F001038F
:102BC00018477047A420002040420F00009C0000DE
:102BD0000149024805F01FBA049F00000C6E002056
:102BE0004FF47F032DE9F041D3F830210646072A40
:102BF0000D46D3F8343120D1023B032B02D8124AC0
:102C0000D35CD3B14FF050244FF0010800270520CA
:102C1000C4F81886C4F8147606F0F7FA4046C4F8EB
:102C2000148606F0F2FAC4F81476C4F81876304622
:102C30002B46BDE8F041002118474FF050230022F9
:102C4000C3F81426F3E700BF99A70000084B70B53E
:102C5000C31A0D4607499B100446594340220648B3
:102C600005F0B2FB2B4601462046BDE870401847F0
:102C70003C6E0020B76DDBB68C980000402373B526
:102C80000B4C0093041B0B460D460A49A4106143EC
:102C90000646094A094805F0C2FB011E05DA30461E
:102CA0002B4602B0BDE87040184702B070BD00BFAF
:102CB0003C6E0020B76DDBB6878400008C98000066
:102CC00010B5EFF31184202383F31288BFF36F8FC5
:102CD000074A136823F00201DB07116002D40120C8
:102CE00006F0A6FA84F31188BFF36F8F10BD00BF02
:102CF000DC6E00202DE9F843002201210646052064
:102D0000FFF71EFC114801F047FE114B984219D104
:102D100001F052FE00244FF01C090C27DFF834802C
:102D20003569414609FB045005F075F9002807DBB9
:102D3000012307FB04551C44042CAB67F0D1002091
:102D4000BDE8F8836FF00400FAE700BF512E0000E1
:102D50000000AD0B109F00001FB500220123CDE93C
:102D600002236B46084ACDF800D0CDF804D005F018
:102D700083FB002805DB4FF480420023684603F004
:102D8000B7F805B05DF804FBBD8400000C22104BC1
:102D9000014602FB0033002030B4D3E91C5218670F
:102DA000EFF31180202484F31288BFF36F8F9C6FA0
:102DB00004F0C00444F002049C6780F31188BFF360
:102DC0006F8F1DB12B4630BC0248184730BC70478E
:102DD0003C6E00208C98000010B4EFF31182202389
:102DE00083F31288BFF36F8F1748016841F0020424
:102DF0000460C80707D482F31188BFF36F8F0120E6
:102E000010BC01F0F1BD4FF05021D1F80C04D1F805
:102E10000C14C907EFD5EFF3118083F31288BFF3C9
:102E20006F8F0A498B6F03F0C00343F002038B6777
:102E300080F31188BFF36F8F82F31188BFF36F8F18
:102E4000002010BCFFF7A2BFDC6E00203C6E00200B
:102E5000092813D8DFE800F005101212121212121E
:102E60000E0C074B986F10F0070007D1FFF78EBFCD
:102E70000220FBE70320F9E70120F7E7704700BFD6
:102E80003C6E00202DE9F041012207463649D1E889
:102E9000EF3FC1E8E02F0028F9D133B93349344876
:102EA0004B60CB608A6005F0C9F87B1E012B2BD8E4
:102EB000012F07D14FF05023D3F81C3403F0030344
:102EC000022B21D006F091FB0546F8B9294B1B785F
:102ED000E3B14FF0502302220646C3F808234FF017
:102EE0005024DFF89480D4F81824D4F81834D2038E
:102EF00015D503F00303022B01D0012F0FD16DB3C1
:102F000086F31188BFF36F8FBDE8F081EFF3118670
:102F1000202383F31288BFF36F8F0125DFE7C5B14C
:102F2000304605F0D4F9D4F81835DBB2012BDAD1EC
:102F3000D4F80421002AD6D00022C4F80421D4F801
:102F400004210222C4F818252022C8F88021A36099
:102F5000C9E70021212006F0DFFBE4E74FF0502312
:102F60000222C3F80423CFE7386E0020286E002029
:102F7000586E00209372042000E100E008B5074875
:102F800006F07BFA38B10648FFF75CFD0448FEF70F
:102F9000F3FB002008BD6FF01200FBE7C8980000AB
:102FA000A52F00000A2838B50446074D04D1AB68A8
:102FB0000D2128465B689847AB6803485B68E1B21F
:102FC0009847204638BD00BFC8980000C3780F2B33
:102FD00014D9C96B0B480B0E13708B0200EA9110C9
:102FE00003F47C030906034301F0FE4110680B4320
:102FF000054901400B430020136070476FF08500C6
:10300000704700BF00FF0300FF000080024B0B6011
:1030100001231360704700BFE06E00200048704736
:103020004C9F000010B501220648114606F0D1FA67
:1030300006F09AF9044C206006F093F960600020D5
:1030400010BD00BFE86E0020E06E002070B50C4699
:10305000154606F086F929460646204605F079FA17
:1030600008B3B4FBF6F306FB1343E3B9B5FBF6F381
:1030700006FB1353BBB9AE4201D9002070BD4FF01F
:10308000FF324FF0FF33094802F032FF06F069F9D2
:103090000646204602F058F9AD1B3444F9D10348E6
:1030A00002F0F2FEE9E76FF01500E7E7E86E0020B6
:1030B000F8B50E461946304617461C4605F049FA43
:1030C00008B346EA040515F003051CD1A4B14FF07E
:1030D000FF324FF0FF330D4802F00AFF24F00304E3
:1030E000A54206EB050009D1094AD2F80034DB07F6
:1030F000FBD5064802F0C8FE0020F8BD795902F061
:1031000041F90435ECE76FF01500F6E7E86E0020B2
:103110000090035000487047CC9F0000024B0B60AA
:1031200001231360704700BFD49F00000048704720
:10313000DC9F0000B1F5802F2DE9F7430D461746BF
:103140001C462ED2C1F580239C422AD841EA0406AF
:1031500016F0030625D10422FF210DEB020005F035
:1031600016F9DFF8448008EB0509A64209D33A4670
:1031700008EB05033C44A2420CD1002003B0BDE89B
:10318000F083042209EB06010DEB020005F0E4F8E0
:103190000436EAE7197812F8010B014003F8011B25
:1031A000E9E76FF01500E9E781720020B1F5802FA3
:1031B000104608B51A4609D2C1F580239A4205D8AF
:1031C000044B194405F0D8F8002008BD6FF0150035
:1031D000FBE700BF81720020B1F5802F70B51DD2D2
:1031E000C1F580239A4219D841EA0206C6F30B06BC
:1031F000A6B90C4C21F47F6121F00F01150B0C4492
:10320000AE4201D1002070BD20464FF48052FF2114
:1032100005F0BDF8013604F58054F1E76FF01500B4
:10322000F1E700BF8172002008B54FF48022FF2132
:10323000024805F0ACF8002008BD00BF81720020F4
:103240004FF4802301480B60704700BF817200205B
:10325000F0B5406801F01F04057B87B044EA4514CF
:103260000569002D63D0B2F5001F00F1100506D1ED
:103270002146284606F06DF8002007B0F0BD002773
:10328000B2F5800F01AE0197776039D1B3F1007FBD
:1032900014BF052304238DF804300023CDE9046313
:1032A0000393836823FA01F111F001011AD1B2F1FD
:1032B000A07F17D104F01F03620903F180032AD015
:1032C000012A3AD11E4A52F82330DB070AD40DF105
:1032D000030632462146284601F08CFE194B9842DF
:1032E0001BD002962146284603AA01F03FFD164B4B
:1032F00098421FD101222146284601F0DDFEBBE79E
:10330000B3F1C06F05D0B3F1007F14BF01230223D6
:10331000C1E70323BFE70D4AD5E73146284601F050
:10332000C5FE094B9842DCD06FF00B00A5E76FF0AB
:103330008500A2E76FF015009FE751F82330FFDE0C
:10334000002884500400AD0B0000AD0B0025845014
:1033500038B545682B69B3B11035284601F096FEA3
:10336000044680B90146284601F05EFE084B9842AB
:103370000BD122462846074901F036FE2246052198
:103380000D20FFF7DDF8002038BD6FF00400FBE7EB
:103390000000AD0B993300004209034670B502D01E
:1033A000012A17D070BD0D4E326951680029F9D03D
:1033B000012503F01F030C689D400029F2D08A68A4
:1033C0002A4002D030464B6898472CB123682146EA
:1033D0001C46F2E7024EE7E72346F8E7B498000000
:1033E000A09800002DE9F04340F206354668D0066B
:1033F00048BF0320337B02EA050558BFC2F34010E3
:1034000087B001F01F07B5F5837F144647EA4317DD
:103410008DF8030044D00FD8062D18D007D8B5B1C9
:10342000022D3FD06FF0150007B0BDE8F083B5F571
:10343000807FF7D101250AE040F20222954233D085
:10344000B5F5407F32D0B5F5007FEBD102250123E1
:10345000220303FA01F12BD573689960326972BBBC
:1034600007F01F037F0928D0012F75D13C4A02EBDA
:10347000830284F48033D2F80012C3F30043C4F310
:10348000404444EA430421F4706144EA800421F09A
:103490000F0144EA05230B43C2F800320020C3E7C2
:1034A0000725D4E70425D2E70525D0E70325CEE795
:1034B000630344BF7368D960D0E72A4AD7E7103660
:1034C000394630460DF1020201F094FD14F4403FFC
:1034D00080460CD13946304605F039FF224B9845DD
:1034E000DCD130469DF8021001F0DAFDD6E74FF04E
:1034F000000901AB3946304603AACDE90439CDE9CC
:103500000199CDF80C9001F031FC174B984289D10C
:1035100014F4003315D09DF8033084F48034C4F3E0
:1035200000448DF80E3039464B46304603AA8DF8DC
:103530000C508DF80D4001F0D5FC0B4B9842CDD0CE
:1035400070E7CDE9043339460DF10303304603AA91
:10355000039301F00BFCF0E7803352F82330FFDED9
:1035600000288450002584500000AD0B036803F050
:103570001F025B09026004D0012B034818BF002022
:1035800070470248704700BF0028845000258450CF
:103590002DE9F04F1546834640F2FF18DFF8889179
:1035A000DFF888A185B000EB8101594503D10020E7
:1035B00005B0BDE8F08FDBF80030C3F3C322082A62
:1035C000C3F3080400F2AA801B0E444508BF4FF065
:1035D000FF3419F80270222B00F2A380DFE803F019
:1035E00012191F22252B22A1A1A1A13A67A1A1A1F5
:1035F000A1A1A1A1A1A16A7F8285A1A1A1888F9289
:1036000095989B00C5F80C45601C5DD10BF1040B2F
:10361000CBE7C5F81445621CF8D000265DE0C5F87C
:103620000845F1E7C5F81045F5E7631CC5F80845FE
:10363000ECD0002604E0661CC5F80C45E6D0012657
:1036400003A80394FFF792FF0122039B02FA03F3FE
:10365000C36008E0C5F80845002FDCD1631CD5D055
:10366000002606273246DBF80030039403F40040BE
:10367000002818BF002203A818BF0126019300925A
:10368000FFF774FF039C019B00EB8400D0F800421D
:10369000C3F3412C009A3B0243EA8C03134304EA30
:1036A0000A04234343EA4603C0F80032AEE7C5F8F4
:1036B0000C45D1E7C5F86045601CDBF80030A5D0AB
:1036C000C3F30043002BBAD0012603A80394FFF7ED
:1036D0004DFF039B06FA03F383603246C3E7C5F848
:1036E0006445E9E7C5F86845E6E7C5F86C45E3E7F2
:1036F000C5F82445621C89D001260022B3E7C5F82D
:10370000284581E7C5F83045F4E7C5F83445F1E7C9
:10371000C5F83845EEE7C5F83C4575E76FF015008C
:1037200046E76FF0850043E723A80000F0F0FCFFB8
:103730002DE9F04104460D46476805F056FF4FF06D
:10374000200888B9264B1B7873B16426606805F0A1
:1037500003FBF0B9012005F058FD013EF6D1002130
:10376000212005F0D9FFF0E7EFF31186314688F309
:103770001288BFF36F8F606805F0EEFAA8B986F380
:103780001188BFF36F8FEFE786F31188BFF36F8F58
:10379000E5E7EFF31186314688F31288BFF36F8FA8
:1037A000606805F0D9FA0028EED0FB6900201D7092
:1037B0006368FA691B68C3F844250122C3F84825E9
:1037C000C3F82001D3F82041C3F85801D3F85801B9
:1037D0009A6081F31188BFF36F8FBDE8F08100BF5D
:1037E00093720420F7B50546002201210820FEF758
:1037F000A7FE0820FEF774FE6B681A691868C0F807
:103800002425997D5A7D0A43198B1B7D0B43134355
:10381000C0F86C356E68D6E9004313F0010348D058
:103820002F6907F1080001F037F8304B98425AD160
:10383000387A04F10C0204F5907105F0F2FC387A44
:10384000012707FA00F001F021F80823C4F8003539
:10385000F369C4F844350023C4F84835A760D4F8A8
:103860005831002BFBD00021C4F800156B6801AA69
:10387000DC68204605F043FA002805DB019B22683E
:1038800019791868FFF784FE08216A681368C3F87D
:103890000015117A51B9126AC3F834250122C3F810
:1038A0003825C3F81011D3F810111A60002003B0A6
:1038B000F0BD0822C4F80025F269C4F84425C4F814
:1038C00048350123A360D4F82031002BFBD000231E
:1038D000C4F82031D4F820310123E3604FF4807321
:1038E000C4F80433BBE76FF00400E0E70000AD0B61
:1038F0002DE9FF4105690646D0F80480A86C2B6DC0
:10390000002835D1002B53D0B8F838406A6C9C425F
:1039100028BF1C46EF6CEB6C53B1296D41B107F029
:103920006041B1F1005F03D0082C28BF08246F6EFE
:1039300000926A6CAC651AB1AA6C002A18BF2246C4
:10394000CDE901271BB12B6D002B18BF23460022A8
:1039500069464046039301F073FF184B984229D003
:103960006FF00401304604B0BDE8F04105F0FFBA45
:10397000696CEF6C0A46B8F83840ABB1834228BF97
:1039800003469C4228BF1C460029C4D001F0604376
:10399000B3F1005FBFD0082C28BF0824286E224650
:1039A00004F0EAFC2A6EB6E7844228BF0446EBE73F
:1039B0001946D7E704B0BDE8F08100BF0000AD0BA9
:1039C0002DE9F04F8FB001934368884602938B88AE
:1039D00007469904914604692CD44FF0FF324FF00A
:1039E000FF3304F1100002F083FAC4F80480D7F822
:1039F00010A0D7F804B09AF85D30DBF808C023B106
:103A0000DAF80030984500F0BB80B8F804E01EF406
:103A1000006F16D06FF0850523689B8813F4005360
:103A200004D1636004F1100002F02EFA28460FB0B2
:103A3000BDE8F08FA369002BCFD163689845CCD146
:103A4000D5E71EF0090F02D06FF01505E4E7CEF3BD
:103A50004513082BF8D1D8F800300393039A994BFB
:103A60009A42F1D9984B9C4507D94FF05022D2F891
:103A7000582512F0030F18BF9C4604AD0BF10C063D
:103A80000FCE0FC50FCE0FC5039B96E8030063450D
:103A900028BF63469C468D4B85E803009C4517D2A2
:103AA000894B9C4514D28A4B9C4511D2894B9C452D
:103AB00048D8894B9C4547D8884B9C4546D8884B6D
:103AC0009C4545D88749884B884A8C4588BF134612
:103AD0001EF0020F09930EF004033BD0002B14BF1D
:103AE000032302238DF82830CEF300138DF82930FC
:103AF000DBF800301EF0020FD3F80825CEF34001AA
:103B00004FEA521302F01F022AD13BB3012B40F0BF
:103B1000D480774901239340CB609AF85D302BB174
:103B2000584601F047FE00238AF85D303B46584670
:103B3000704A04A901F008FE6F4B98421BD06FF049
:103B4000040569E76D4BC3E76D4BC1E76D4BBFE7FC
:103B50006D4BBDE7003B18BF0123C3E76B49D9E7B5
:103B60003BB1012B40F0AB806149012393408B6056
:103B7000D3E76649F9E70123CAF800808AF85D3087
:103B8000012384F85C30029B196C4A1C03D003F1BA
:103B9000440005F056FAB9F1000F68D1C4F834902A
:103BA0000023A36304F1480204F1380104F1340056
:103BB00005F008F9019B6064002B60D1E3630023EA
:103BC000236404F1500204F1400104F13C0005F0CB
:103BD000F9F8002501212A46E0642563204605F016
:103BE00028F93846FFF784FE2A462B46A06B83420D
:103BF0004DD100231946256CA9424FD1934238BFBD
:103C0000134626464FF4FA524FF0000802FB03F524
:103C100056F8203B4FF4004C1B684146B5FBF3F5CA
:103C200040F2E730C8354FF47A720023E5FB0C010F
:103C3000FCF790FA02460B46304602F059F902466C
:103C400018B9256B15F1740F2FD10298C4F858805C
:103C500001F0B0FD6FF07301384684F85D8005F027
:103C600086F9304602F06AF96FF07305D4E6D9F8A8
:103C700000306363002B93D0D9F8043091E7019BA7
:103C80001B68E363002B9AD0019B5B6898E7616B2C
:103C900001EBC301496801330A44A8E7E06B00EB7C
:103CA000C100406801310344A6E7002D3FF4B4AEE3
:103CB0000146386905F0BDF8AEE6C960FFDE0023B5
:103CC0009B60FBE747E801000024F4000048E8019E
:103CD00000127A00FF083D007F841E003F420F0063
:103CE0001FA107008FD0030048E8010090D0030017
:103CF00000288450918F00000000AD0B00093D00AA
:103D000080841E0040420F0020A10700002584503F
:103D100000F01F0240090DD001280DD1094B03EB23
:103D20008203D3F80002084A024042EA8102C3F843
:103D300000227047054BF2E70023803253F822300F
:103D4000FFDE00BF00288450F0F0FCFF0025845007
:103D50000123F0B587B08DF80230022300248DF8DE
:103D600004306B4403930F4601AB0DF10301049340
:103D700005460291059401F099F90C4B06469842CC
:103D80000FD13946284603AA00F0F0FFB0420BD00D
:103D900028469DF8031001F083F96FF0040007B086
:103DA000F0BD6FF01200FAE72046F8E70000AD0B17
:103DB0000123834070B5DC430B4AD2E8EF1F01EAD0
:103DC0000405C2E8E65F002EF7D14FF4803282404E
:103DD0000648C0F80823BFF35F8FBFF36F8F0B4215
:103DE00014BF0120002070BD406F00200050015022
:103DF00070B40E4922F07F46D1E90034D01AC318BE
:103E000044F10004C1E90034A6F50013B3F5400FF6
:103E100009D2074B1B681A0A1B069C19054B42F175
:103E20000005C3E9004570BC02F028BD58220020FF
:103E3000446F002060220020D9B101230D4A834045
:103E4000D2E8EFCF4CEA030CC2E8E1CF0029F7D16A
:103E50004FF48033084A8340C2F80433074BD3E859
:103E6000AF3FC340DB0742BF4FF40012044BC3F81F
:103E700000217047406F0020005001503C6F00202F
:103E800000E100E00D4B1868010A0006BFF35F8FE8
:103E90000B4BD3F80435181841F10001B3F5801F1E
:103EA0000AD2084BD3E90023904271EB030303D2FB
:103EB00010F1807041F10001704700BF446F002095
:103EC00000500150602200202DE9F04F85B01646C9
:103ED0001F4604469DF840A0FFF76AFF0190FFF7D8
:103EE000D1FFB04271EB070352D23B4B301A67EB64
:103EF0000101984271F100014DD2384B03EB0413DC
:103F0000D3E902239F4208BF964258D04FF480382D
:103F1000334908FA04F8204626F07F4BC1F848835D
:103F200005F0B7F84FF00309584604F15005AD000D
:103F3000ADB205F1502504F5A87305F5803502935F
:103F4000029A20F07F4341F82230C1F84483D1F82F
:103F50000435244AC01A033820F07F4090422ED9FD
:103F6000286868B1D1F80435A3EB0B0020F07F403E
:103F7000B0F5000F039322D9204605F08AF8039B81
:103F8000BAF1000F07D109EB030009F10109D7E7E6
:103F9000BAF1000F09D06FF0150520460199FFF71F
:103FA0004BFF284605B0BDE8F08F01230E4AA34021
:103FB000D2E8EF0F1843C2E8E10F0029F8D1074912
:103FC0000E982301C8500F9B01EB04120025C2E993
:103FD00002675360E1E700BF010080004822002033
:103FE00000500150FDFF7F003C6F00207FB5002591
:103FF0004FF0FF304FF0FF31194C1A4B0226C4F836
:104000000833C4F84833184BC4F80855C3E9020113
:104010004FF480334FF40012C4F80433134B0121E2
:10402000C4F804631520C3F880212A46FEF788FAF5
:104030001520FEF755FA01230D4AA3602360136093
:104040000C4B0D4A009328460023CDE90155FFF79C
:104050003BFF3046FEF716FF284604B070BD00BF98
:104060000050015003000F004822002000E100E052
:10407000406F0020F13D0000FFFF7F002DE9F74376
:104080002E4BD3F8042390070BD5D3F8042142B16B
:104090000022C3F804212A4AD3F8043113680133FB
:1040A0001360264AD2F80433D90326D5254BD3E82A
:1040B000EF1F21F00100C3E8E40F002CF7D1CB077C
:1040C00002D4D2F84031C3B100251C4CC4F8405191
:1040D000D4F84031FFF7D6FEEFF31182202383F3AB
:1040E0001288BFF36F8F184BD3E90267B042B94112
:1040F00006D282F31188BFF36F8F03B0BDE8F0835F
:104100004FF0FF38D3E900104FF0FF391D60C3E9CD
:1041100002894FF48033C4F84833C4F84051D4F8CE
:10412000403182F31188BFF36F8F0029E5D00090F2
:1041300032463B4628468847DFE700BF0050015023
:10414000446F00203C6F00204822002030B5431C03
:10415000124C85B005D08442A8BF0446012CB8BFDC
:104160000124FFF78FFE0E4B0C4DD3E90013401ACC
:10417000B0F5000F0FD22218AA4228BF2A4600200D
:1041800052180849CDE90100009143F10003FFF7FF
:104190009BFE05B030BD2A46F1E700BFFFFF7F0060
:1041A00058220020F13D000008B5FFF76BFE024BDE
:1041B0001B68C01A08BD00BF58220020012310B59B
:1041C000074C15206360FEF799F94FF40012054B78
:1041D000C4F80833C4F84833034BC3F8802110BD3A
:1041E0000050015003000F0000E100E040EA01032D
:1041F000C3F30D0330B58BB940F21515094C890B8B
:10420000C0F38730994201D1002030BDC218D2B22C
:1042100002F5C07244F822500133F3E76FF0150045
:10422000F3E700BF003000504FF0005318680D4B0B
:10423000984210D003F11C53A3F58B13A3F6CC5373
:1042400098420AD0084B984209D0084B98420CBFBC
:10425000042002207047002070470320704701208F
:10426000704700BFB6B3B4B55DCE03F1EC49F2B60A
:1042700008B5FFF7D9FF30B1034805F0A6FA0022D0
:10428000024BC3F8402408BDC0210020003000507C
:104290002DE9F0414FF0502315460122C3F81426B2
:1042A000002858D0002956D04FF0005302F1364272
:1042B000A2F14B12A2F59842C3E900204FF4084244
:1042C0009960DA60FFF7B0FF4FF47F03D3F8302135
:1042D0000646072AD3F834312DD1023B032B02D8EE
:1042E0001E4AD35C3BB34FF050244FF00108002727
:1042F0000520C4F81886C4F8147604F086FF4046FA
:10430000C4F8148604F081FFC4F81476C4F8187653
:10431000FDB1134C204605F0ABF8FFF785FF864250
:10432000F8D002280F4B0CD100226FF00D00C3F81B
:104330004024BDE8F0814FF050230022C3F814263A
:10434000E6E74FF050220121C2F814160022C3F80C
:1043500040240020EDE76FF01500EAE73FA80000D9
:1043600040420F000030005010220B4B13B5C3F831
:1043700040240022FFF78CFF044650B94FF400425E
:1043800000230648CDE9002302F05EFB044805F057
:104390006FF8204602B010BD00300050C021002050
:1043A00040420F001022034BC3F840240122FFF7C4
:1043B0006FBF00BF00300050034B000240F004000C
:1043C000C3F80007704700BF00300050012803D138
:1043D00011B9024B18687047014BFBE70824002015
:1043E0000020002013B50446104805F046F8B0B18F
:1043F000002001A9FEF724FF0D4B02689A4211D15B
:104400000389C16818444368B3F1807F0AD91CB19D
:10441000FFF7C8FF02B010BDFFF7A6FFFAE76FF085
:104420001200F7E76FF03C00F4E700BFF0980000DF
:104430003DB8F39630B5816885B0103921F0070496
:10444000054603F0C8FE10220146684603F09FFFB0
:1044500010226846064903F08FFF10236A46214662
:10446000284603F084FE003818BF012005B030BD97
:10447000A2A1000030B50D46816887B0102302AAC2
:104480001039044603F05EFE002802DA012007B06E
:1044900030BD1022204602A904F06DFE00283AD15A
:1044A00010221E4902A803F057FF00280CBF012369
:1044B00002232B70204604F04AFE012301460DF131
:1044C0000702204603F03EFE0028DFDB9DF80730A0
:1044D000204603F00F021B096A702B7101220DF1B7
:1044E000070104F048FE10B96B78042B03D90123AF
:1044F0006B7000232B71A2682046183A22F0070245
:10450000083AA91C04F04AFE0028BFD12046E91C45
:1045100004F060FEBBE70323CBE700BFA2A10000CD
:10452000F0B585B06946054604F0F4FD012804465F
:1045300006D1344B694653F8350004F051FE044669
:1045400014B1FF2005B0F0BD2E4B02A903EBC5034B
:10455000586804F045FE012837D12A4649212A48E7
:1045600003F0E2FD294B8DF80C40029300229DF8E8
:1045700000609DF80870264C3146207804F0EDFD6F
:1045800050B33946607804F0E8FD28B3A378042BD3
:1045900003D09DF8031099421ED1E378042B03D079
:1045A0009DF80B10994217D12379042B10D1627911
:1045B000022A1DD1174B18482A46492103F0B4FDA1
:1045C0006079831E022BBDD9BBE70028CED0B8E7A7
:1045D0009DF802109942EAD00132032A04F1060440
:1045E000CAD10E482A46492103F09EFD0120A9E7C1
:1045F000032A05D00A4B0B49042A08BF0B46DAE709
:10460000094BD8E7D0A0000066A80000030103030F
:10461000FBA8000048A80000B1A80000D5A8000031
:104620004DA800005FA8000043A800004FF47F03DE
:10463000D3F83021D3F83431072A05D1023B032BBC
:1046400002D8024AD05C70470020704715A90000CC
:1046500008B5FFF7EBFF58B1644BD3F8202A3AB9FD
:104660000D21C3F8201A0121C3F81C19C3F81C2915
:104670000022D30003F57F03D3F80013013107D0E4
:10468000D3F800130132D3F80433202A0B60F0D1A1
:10469000FFF7CCFF002840F0A080FFF7C7FF40B134
:1046A000534B544AC3F830254FF050230122C3F82E
:1046B00058254FF47F03D3F83021D3F83431072A3B
:1046C00009D1023B032B06D84B4AD35C1BB1002215
:1046D0004A4BC3F84C25FFF7A9FF50B14FF05023C8
:1046E000D3F80024D10742BF0022C3F81421C3F835
:1046F00018214FF47F03D3F83021D3F83431072A3F
:1047000009D14FF05023D3F80024D20744BF6FF0F3
:104710000102C3F80024FFF789FF18B16522334B6B
:10472000C3F80C274FF47F03D3F83021D3F834318A
:10473000072A16D1314BD3F82034002B11DA4FF071
:1047400050230322C3F8182501229A60D3F80421CC
:10475000002AFBD00022C3F804210122DA60C3F84A
:1047600018254FF47F03D3F83021D3F83431072ACA
:1047700023D1023B032B02D8214AD35CEBB17E222A
:104780001A4B1B49C3F80C27C3F83C297F231D4A49
:10479000C2F818310023C1F8043EC1F8083E01F503
:1047A0004821C1F81031C2F82431C2F82C3102F589
:1047B000FF1202F58052C2F8A032134AD2F88C30B0
:1047C00043F44063C2F88C30104A114B1168C3F8AF
:1047D0004415D269C3F84C2508BD2922034BC3F800
:1047E0000C270322C3F83C2757E700BF00400050C6
:1047F000009003504400EFBE11A9000000200350B8
:104800000DA900000020005000ED00E00080FF0036
:104810000060005030B50468ACB1B4FA84F30122F2
:10482000C3F11F03DBB29A4024EA0202D0E8EF5F33
:10483000A54204D1C0E8EC2FBCF1000FF6D1EAD1BB
:1048400002480B7030BD0248FCE700BF0000AD0B12
:104850000200AD0B10B50368CB40DB0710D4012379
:104860008B40026843EA0201D0E8EF4F944204D142
:10487000C0E8EC1FBCF1000FF6D1F2D1014810BD29
:104880000148FCE70000AD0B0400AD0B014BC3F881
:1048900004057047007001500146014800F044B91A
:1048A000A82000200328F7B506462ED84FF0502147
:1048B000364B374A33F81000925DC1F808030025E3
:1048C0000A44012142F210744FF05027314B11601D
:1048D00033F816308E4203F150231D601B688DF8AB
:1048E000071008BF0DF10705022E32D0032E40D06D
:1048F000012E1CD0D7F8183403F480333DB923B10E
:10490000012004F082FC013CF0D103B0F0BDD7F8E7
:10491000182402F003022A70002BF6D09DF807003D
:104920000128F2D104F071FC013CDDD1EDE7D7F8AC
:104930000C3403F480333DB9002BE6D0012004F0A1
:1049400064FC013CF3D1E0E7D7F80C2402F001024B
:10495000E1E7D7F85C3403F480333DB9002BD4D0C1
:10496000012004F052FC013CF3D1CEE7D7F85C24DF
:10497000ECE7D7F85434DB03C7D5002DCED10120A6
:1049800004F043FC013CF4D1BFE700BFBAA1000032
:1049900019A90000B2A10000044B1A7922B9012222
:1049A00018601A710248704702487047486F00202B
:1049B0000000AD0B0C00AD0B08B50A4B1B6833B102
:1049C0000520FDF7AFFD10B90520FDF789FD4FF07B
:1049D00050230122C3F81825C3F81425C3F88025F5
:1049E00008BD00BF486F002010B5032845D8DFE898
:1049F00000F01802554F00224FF48073012100206F
:104A000003F1502318601C68012402F15022146045
:104A1000284A1268002A47D04FF05023C3F80413E5
:104A20002BE04FF05023D3F81814D3F81824C903FF
:104A300012D502F00303022B05D0012B02D0002077
:104A4000FFF730FF01234FF050220221C2F8183542
:104A500008224FF48273D2E7D3F81424D207F1D599
:104A6000D3F81C2402F00302013A012AE7D8114AC4
:104A700012681AB10222C3F8042310BDD3F804212E
:104A8000002AFBD00022C3F80421D3F80431F4E754
:104A900018224FF490734FF48071B0E720224FF446
:104AA00092734FF40071AAE71A68002AFCD01860CC
:104AB0001B68E2E7486F0020F8B54FF0502301254E
:104AC0000026D3F80443174F04B9F8BDB4FA84F0B4
:104AD000C0F11F00830003F580739BB203F15023E4
:104AE00005FA00F2196892B224EA02040029EBD018
:104AF0001E601B684FF05023022AC3F808230DD113
:104B0000D3F81814D3F8181401F00301012905D1C2
:104B1000C3F81825C3F804239960D5E73B68C0B2F1
:104B20009847D1E7486F00200079024B03EB001053
:104B3000FFF770BEB0200020036803F01F025B097E
:104B4000026004D0012B034818BF002070470248C0
:104B5000704700BF0028845000258450034A430951
:104B6000D35C00F01F001844C0B270471DA90000BC
:104B700070B50546FFF7F2FF0C4C083034F81030E2
:104B80000E46DA0508D5C3F3432304EBC3022846D7
:104B900054F8333052689847A3682BB13146284601
:104BA000E268BDE87040184770BD00BFC02000201B
:104BB00008B5FFF7D3FF034B083033F81000400B64
:104BC00008BD00BFC020002008B5FFF7C7FF034B9A
:104BD000083033F81000C0F3400008BDC0200020AA
:104BE00008B5FFF7BBFF034B083033F81000C0F3E4
:104BF000401008BDC0200020034611F0010010B590
:104C0000CCB20BD1A207C4F340000DD5074A106AFD
:104C100058601062003818BF012005E004490A6A94
:104C20001A600A62002AEDD010BD00BF002884502F
:104C30000025845010B5FFF791FF124A083032F872
:104C40001030D9051CD5C3F3432123F4F85322F8BF
:104C50001030002002F10E0434F8023F13F4807F7C
:104C600003D0C3F3432399420AD001303028F3D153
:104C7000002342F831300448BDE81040FFF7EABD98
:104C800010BD00BFC020002038210020F0B505462F
:104C900000200126044607468C420BD1114BD3F865
:104CA0007C2132B10022C3F87C21D3F87C3140F062
:104CB0000040F0BDE3B29B0003F580729B0806FA4A
:104CC00003F31D420BD002F1A04202F55042D2F88C
:104CD00000C0BCF1000F02D0176012681843013405
:104CE000DAE700BF00D00050F7B506460846FFF7E8
:104CF00035FF1A4F00F1080537F815300C46DB0771
:104D00002AD5304604F0FFFA2046FFF769FF58B174
:104D10002046FFF74DFF0022316800B201EB80030F
:104D2000C3F81025C3F810252046FFF783FF0023A2
:104D300001A827F815300194FFF7FEFE019B00EB58
:104D40008300D0F80022064B134043F00203C0F862
:104D50000032044803B0F0BD0348FBE7C020002048
:104D6000F0F0FCFF0000AD0B0400AD0B2DE9F043AB
:104D70001646804685B00846FFF7F0FE0D463168BE
:104D8000044609B32846FFF71FFF18B12846FFF76E
:104D900027FF10BB00230DF10F02CDE900338DF882
:104DA0000E308DF80F3028460B460DF10E0104F041
:104DB00041FA484A04F1080132F8113023F00203A5
:104DC00043F0010322F8113073687BB328461F7843
:104DD0005968FFF7F9FE10B1E9B13F4829E03D4AB3
:104DE00004F1080032F8103023F02003DB04DB0C60
:104DF00022F8103079B1032FEFD87168D1F804E0B0
:104E0000D8F800109EF800C001EB8C01A7B9C1F8DA
:104E10001075C1F810752F4A04F1080132F81130ED
:104E200023F01C0343EA870322F81130B3683BBB2D
:104E30002A4805B0BDE8F083D1F810E543EA4C33C9
:104E40002EF0030EC1F810E5D8F8001043F020034F
:104E500001EB8C0EDEF8101522F8103021F44F31E2
:104E600021F44071CEF810152902DEF8108501F406
:104E70007C5141EA074141EA0801CEF81015CAE722
:104E80002846D3E90067FFF7D5FE002ED0D0114D9C
:104E9000D5E90023964203D19F4201D1002209E0C7
:104EA0000F480DF10F01FFF7B5FC0C4B9842C0D134
:104EB0009DF80F2005EBC20308345F6035F814300D
:104EC00045F8326043EA422343F4807325F81430F6
:104ED000AEE700BFC02000200400AD0B0000AD0B0A
:104EE000382100202DE9F0430C46804685B020464D
:104EF00011461D46FFF732FE064629B32046FFF74E
:104F000063FE18B92046FFF76BFE18BB334F06F15E
:104F1000080937F8193013F01C0F02D04B78012B19
:104F200018D001238DF80F3000234A1CCDE900135F
:104F300020468B1C0DF10F0104F07CF937F8193075
:104F400043F0030327F81930002D44D02046FFF723
:104F50003BFE18B9224805B0BDE8F083002295F861
:104F600000C0D8F800301D4F03EB8C03C3F81025A8
:104F7000C3F8102506F1080237F812104FEA8C0E1C
:104F800021F02001C904C90C27F812106E7816B35D
:104F9000D8F80000AD787044D0F81035360423F40A
:104FA000991323F4F853C0F81035230203F47C530B
:104FB00006F440362D05D0F810E5334305F480158E
:104FC0002B4341EA4C3143EA0E0341F02001C0F883
:104FD000103527F812100348BDE700BFC02000209D
:104FE0000400AD0B0000AD0B014BC3E9021270478A
:104FF000C020002010B508461446FFF7F1FD50B15F
:105000000846FFF7ABFD054B083033F81030044875
:105010005B0B237010BD0348FCE700BFC0200020DD
:105020000000AD0B0400AD0B70B5154D064695F8AC
:1050300080401CBB2146602205F1100003F0A7F957
:10504000214630682E6F8E420ED10023C0F87C318D
:10505000D0F87C3140F30730FDF742FA01230948CC
:1050600085F88030AB6770BDCBB29B0003F58072D2
:105070007C2B04BF845083580131E4E70248F2E7F7
:10508000C02000200000AD0B0C00AD0B034B93F8CB
:105090008000003818BF0120704700BFC0200020EA
:1050A0000148FFF7D7BB00BF342100200148FFF7BC
:1050B000B1BB00BF3421002073B503681646D3F896
:1050C00004230546002AA8BF4FF000420846A8BFA7
:1050D000C3F804230C46FFF783FD00B30846FFF72F
:1050E00073FD0146D8B92046FFF762FD04B2A40063
:1050F0000346286804F5807281502968825821444B
:10510000D1F8102542F00102C1F810252EB101227C
:10511000296802FA03F3C1F8043302B070BD2046D7
:10512000FFF71CFD0E4B083033F81030C3F3820339
:10513000042B11D0052B11D001A80194FFF7FCFC22
:10514000019A0369D34003F00103991C204602B081
:10515000BDE8704004F0B7B80321F7E70221F5E796
:10516000C02000202DE9F04F684BDFF8A481D3F870
:105170000403D8F87010C0B289B040F00040FFF7C7
:1051800085FD051E2FDAC24600235AF87C1F06A8AB
:10519000CDE90633FFF730FD4FF0000B5D4B0DF10D
:1051A00018090193019A12F8013B0192DA081AF8E2
:1051B000022003F0070322FA03F3DA071CD409F1F3
:1051C0000409BBF1000F14D0D8F870104FF0004064
:1051D000FFF75CFDD8F87C1006A8FFF70DFD00284E
:1051E000DAD125F000450124002D76D109B0BDE8C3
:1051F000F08F4FF0010BD5E7474B5B440293D9F892
:1052000000100029DBD091FAA1F1B1FA81F1029BE3
:105210001C7841EA44142046FFF7A0FC083038F817
:105220001070C808BB080393012319F8002001F08F
:10523000070103FA01F122EA010209F8002005A89A
:105240000594FFF779FC059A039B803250F82220E1
:10525000C7F382065B073746C2F3014222D52046D8
:105260003946D6B2FFF784FC05A80594FFF764FC25
:10527000059B803350F82330C3F301439E4207D18E
:105280000021204604F01FF83146204604F01BF8A8
:1052900005A80594FFF750FC0122059B02FA03F3D1
:1052A0000362ACE7022A0CD10321204604F00BF87C
:1052B00006F00503012BEBD139462046FFF758FCD9
:1052C000E6E702212046039203F0FDFF032EF3D010
:1052D000039A032ADCD1022EEDE795FAA5F3B3FA7F
:1052E00083F304FA03F29B0003F1A04303F5504358
:1052F000D3F81005D3F81015C0F30520C1F3014110
:1053000025EA0205FFF734FC6EE700BF00D000502D
:10531000C02000202DA900002DA900000022034B71
:10532000C3F88425C3F80425704700BF00900350DC
:10533000044AD2F80034DB07FBD50160BFF35F8F6E
:10534000704700BF0090035008B5C0F30B0383B94A
:105350000222094BC3F88425C3F804254FF0FF321D
:105360000260D3F80024D207FBD5FFF7D7FF03482C
:1053700008BD0348FCE700BF009003500000AD0BE0
:105380000A00AD0B012208B5054BC3F88425C3F80C
:105390000425FFF7CDFFBDE80840FFF7BFBF00BF02
:1053A00000900350036803F01F025B09026004D001
:1053B000012B034818BF002070470248704700BF08
:1053C00000288450002584504B69284A934247D0D6
:1053D0000FD8274A934243D009D8264A93423FD058
:1053E0002549264A26488B4218BF10467047254952
:1053F000F7E7254A934233D004D8244A93422FD06A
:105400002349EEE7234A93422CD191F823301BBB6A
:105410000268214B9A4223D10B685A1C01D0082BF9
:1054200020D14B68581C01D0092B1BD18B685A1C0A
:1054300001D00A2B16D191F8213023B1CB68581C2A
:1054400001D00B2B0ED1CB690D485A1C0CD00B4A46
:105450000C2B18BF1046704791F82430002BD7D082
:105460000748704705487047704700BF80841E009A
:1054700020A1070048E8010090D003000400AD0B14
:105480000000AD0B40420F000024F40000093D0075
:1054900000127A000048E80100A0005073B51646DB
:1054A000421C1C460546069B18D0012902D1BBB1FF
:1054B00003F0B0FF01A80195FFF774FF019B2402E0
:1054C00000EB8300D0F80022074B44EA86040C432B
:1054D00013401C4344EA4101C0F8001202B070BD01
:1054E00003F0A4FFE6E700BFF0F0FCFF2DE9F04F6A
:1054F00091F8213007460C4690F804A085B0002BA7
:1055000000F0B4804FF0010891F8223003936569F0
:10551000784B9D4200F0C48000F2B480764B9D42EF
:1055200000F0C18000F2A680744B9D4200F0BE8066
:10553000734B9D420CBF4FF080654FF08045242295
:10554000DFF8C09194F8230002FB0A93997F60F37F
:10555000000199773B79217C02FB03939A7F61F3E9
:1055600041029A7794F82360002E32D16269664B2B
:1055700001219A420CBF4FF0030B4FF0000B237E2A
:105580003246012B94BF00230123009320685B4621
:10559000FFF784FF00965B46324601216068FFF703
:1055A0007DFF00965B463146A27EA068FFF776FF3E
:1055B000237C324683F00103009301215B46E068BF
:1055C000FFF76CFF012100915B463246E069FFF76F
:1055D00065FF2423B8F1000F71D04FF0FF3203FBB9
:1055E0000A931A62A07C217E627EE66894F810809D
:1055F00094F824E094F820C03B68BEF1000F13D16A
:10560000D4E900BAD4F808E0E469C3F808B5C3F8EF
:105610000CA5C3F810E5C3F86C45039CC3F81465EA
:10562000C3F86885C3F86445003A18BF012202290F
:10563000C3F8C005C3F8245553D0032954D0012919
:1056400001D142F00202C3F854252422C3F860C5F8
:105650003B79534359F80330002B48D0386840F366
:10566000073005B0BDE8F04FFCF73ABF984602237B
:1056700003934CE7254B9D420CBF4FF080554FF0F4
:1056800080455CE7224B9D4213D01F4B9D4213D0B7
:10569000204B9D420CBF4FF000454FF080454EE738
:1056A0004FF000554BE74FF0006548E74FF00075AD
:1056B00045E74FF0206542E74FF0A0553FE703FB79
:1056C0000A9AE2689AF81E30CAF82020227C4FF02D
:1056D000FF3662F341038AF81E30A07C217E627E91
:1056E00086E742F00402AEE742F00602ABE705B0FF
:1056F000BDE8F08F80841E0020A1070048E801006B
:1057000090D00300506F00200048E80140420F0095
:105710000024F40000127A00431C07B50ED001905B
:1057200001A8FFF73FFE019B00EB8300D0F80022A9
:10573000044B134043F00203C0F8003203B05DF89D
:1057400004FB00BFF0F0FCFF2DE9F84F242590F892
:105750000490154C05FB09F504EB050B98469BF8E6
:105760001C3006460F469246DBB961B96251CBF850
:105770000480242303FB09440023637701230B489F
:105780002377BDE8F88FFFF71FFE084B9842F8D14A
:105790003946304644F805A0CBF80480FFF7A6FE52
:1057A000E7E70348EDE700BF506F00200000AD0BB6
:1057B0000C00AD0B2DE9F0410446067900681E4D42
:1057C00040F30730FCF79AFE24237343EB5853B1A0
:1057D00023681A4A06EBC601C3F80823206805EBC4
:1057E000810103F02FFE242101FB06512368D3F829
:1057F0000805D3F80C75D3F810858B7FDB0714D41C
:10580000FFF78AFF4046FFF787FF3846FFF784FF20
:10581000086AFFF781FF2368D3F86C05D3F81415E5
:10582000FFF77AFF0846FFF777FF242303FB0655AF
:1058300000232B77BDE8F081506F00205201080053
:1058400024232DE9F0430779534D7B439046EA1812
:105850000E46517F814685B0002940F09B80EB5871
:1058600023B118F0140F04BF01235377242496E8C2
:105870000F0004FB075404F10C0C8CE80F00206AA5
:10588000421C04D0A37F9B071AD503F0C3FD3368E5
:10589000D9F8004023B103F06043B3F1005F06D1B3
:1058A000B36883B103F06043B3F1005F0BD02423EE
:1058B000002203FB075339485A7705B0BDE8F0834F
:1058C00003F0B4FDE3E718F0010318BF0123C4F8A7
:1058D000503518F0020318BF0123EC46C4F84035D8
:1058E00096E80F008CE80F00039BC4F84405C4F849
:1058F0004815C4F83425C4F838350023C4F81831E5
:10590000D4F818310723C4F8003524237B4318F05A
:10591000080F05EB03021DD10121E858216158B998
:10592000D4F81831002BFBD062464021204603F00A
:1059300033FD24237B43EA18EB5813BB106A461C43
:1059400013D107EBC707204605EB870103F07AFD6B
:105950001348B2E7EB58A3B9106A411CF8D0937F03
:105960009A070BD503F062FDF2E7937F9B0702D500
:1059700003F05CFDE5E703F04DFDE2E703F04AFDCF
:10598000E6E7402318F0040F14BFC4F80833C4F846
:105990000433DDE7034890E7506F00200A00AD0BA9
:1059A0000000AD0B0B00AD0B10B540210F4A1048A5
:1059B00003F0F2FCC8B10F4C206A421C04D0A37F54
:1059C0009B070FD503F032FD637F1BB109490848DF
:1059D00003F038FD002323720748D4E90031BDE805
:1059E0001040184703F016FDEEE710BD5C6F002075
:1059F00000A00050506F0020586F002038B5EFF322
:105A00001185202383F31288BFF36F8F064B9C68A8
:105A100003F046FD85F31188BFF36F8F2046BDE884
:105A20003840FCF709BD00BF746F002038B5094B42
:105A300053F82040013053F82050A54200D838BD1B
:105A4000636823B1204603F02EFD0834F5E7236890
:105A50009847FAE7E0A00000012270B52A4B032026
:105A600086B01A70FFF7E2FFFCF710FA03F037FD7B
:105A70000420FFF7DBFF254C254D2646AE4204F1FE
:105A8000300410D300F02CFC204C224EAC4226D324
:105A900000F03AFCFAF7C6FC1F4A137B23F001031F
:105AA000137306B070BD54F80C3C059354F8103CC9
:105AB000049354F8143C039354F8183C029354F89C
:105AC0001C3C019354F8203C009354E90A2354E908
:105AD0000C0100F063FA54F8303C5E65CDE7D4E980
